:10000000F85F002011040000A1300000A1300000C2
:10001000A1300000A1300000A1300000A13000009C
:10002000A1300000A1300000A1300000A13000008C
:10003000A1300000A1300000A1300000A13000007C
:10004000A1300000A1300000A1300000A13000006C
:10040000FFFFFFFFFFFFFFFFFFFFFFFFFEFFFFFFFD
:1004100062B607F0D7FFFEE700B51248BB4909787E
:10042000405C11490870B9480078401CB749087011
:100430000D480078002803D101200C49087002E023
:1004400000200A4908700120094908700120094963
:100450000870AE480078042802DB0020AB49087021
:1004600000BD0000C8EAFF1FBD000020BE00002044
:10047000C1000020BC00002070B586B0050000203F
:10048000A34908700020A34908700020A249087001
:100490000020A24908700020A1490870280000F03F
:1004A0001FFF0600F6B2002E05D19E480078401CC2
:1004B0009C49087027E197480078002803D19648A6
:1004C0000078002802D03C20A24908703B2004009C
:1004D000E4B2052C00DA7FE0A41EE4B250206043B1
:1004E0009D49E4B2091989784018285C002801D197
:1004F000A41C71E09948049099480390994802908F
:10050000994801904F20009001239348E4B20019CC
:10051000827829002000C0B201F0CCF89348E4B200
:10052000005D8C49097888422CD3914800780028D6
:1005300014D08D48E4B2005D8949E4B208554F22D9
:1005400000218748E4B2005D8A4BE4B21B5DC0180D
:1005500001F098FD8149E4B2085513E08148E4B206
:10056000005D7E49E4B208554F2200217D48E4B287
:10057000005D804BE4B21B5DC01A01F083FD784939
:10058000E4B208557548E4B2005D7549E4B2095D0E
:100590004018022101F0B4FD6F49E4B208556F48DC
:1005A000E4B2005D6E49E4B2095D401A7249E4B2FA
:1005B00008557148E4B2005D66490978884204D262
:1005C0006D48E4B2005D634908706B48E4B2005DB9
:1005D000072800DB7CE7A41C4D4804703D20040084
:1005E000E4B24B480078801C84421FDBA41EE4B2B6
:1005F000502060435A49E4B2095D40182818002190
:100600008170E4B2502060435449E4B2095D40185F
:100610002818801E00210170E4B2502060434E492A
:10062000E4B2095D401800212954D9E75048007808
:10063000002834D05148007800281AD0504800785B
:10064000012802D102204E4908704D480078032845
:1006500059D143482E490978401800794949097809
:10066000884250D204204649087005204649087047
:1006700049E043480078022802D10320404908702D
:100680003F48007804283ED13F48007800283AD1FE
:1006900000203B49087000203C49087033E03C488A
:1006A000007800281AD036480078012802D10220AC
:1006B0003349087032480078032824D1354800783F
:1006C0002649134A12788918097988421BD20420D6
:1006D0002B49087005202C49087014E02848007840
:1006E000022802D1032026490870254800780428F2
:1006F00009D125480078002805D10020204908703C
:1007000000202249087006B070BD0000BF00002024
:10071000AE000020AF000020B0000020B10000209B
:10072000B2000020AD00002028201B4908700120E5
:100730001A4908704F201A49087001201949087099
:100740004F20194908704E20184908704E2018494A
:1007500008707047AB00002000E9FF1F80E9FF1F11
:1007600040E9FF1FC0E8FF1F80E8FF1F40EAFF1FAE
:10077000BD00002014E4FF1F80EAFF1F3BEAFF1FBB
:10078000C10000207BE9FF1FC0000020BC0000204A
:10079000FBE9FF1FBBE9FF1F3DE9FF1FBDE8FF1F8E
:1007A000FDE8FF1F7DE9FF1FBDE9FF1F7DEAFF1F79
:1007B000BDEAFF1FF0B587B0060000208049087031
:1007C0000020AB49087000207E4908700020A9492C
:1007D000087000207C49087000207C4908700020C7
:1007E0007B49087000207B49087000207A49087016
:1007F00000207A490870002079490870300000F024
:100800006FFD694648756846407D002804D1012087
:100810007449087000F048FC0020724908703B20C1
:10082000674908703B200400E4B20A2C01DA00F0AA
:100830000EFCA41EE4B2502060436B49E4B20919D7
:1008400089784018305C002861D18B48E4B20019E7
:1008500080781F285ADB6448E4B2001980781F288A
:1008600054DB6148E4B20019807832284EDAE4B2F1
:10087000322C4BDA8148E4B200198078002845D048
:100880005A48E4B20019807800283FD051480078D7
:1008900051490978884204D34E4800786946087562
:1008A00003E04D4800786946087573486946097D3C
:1008B000405C7149E4B209198978884226D26E48B1
:1008C000E4B2001980786C49E4B209190979401A38
:1008D0000B281BDABE48E4B200190079BC49E4B227
:1008E00009198978401A062810DABA48E4B20019C2
:1008F0008078B849E4B209190979401A062805DA5E
:10090000B5480078002801D0FFF786FD9FE3B34883
:100910000490B3480390AF480290AD4801904F2037
:10092000009001233048E4B20019827831002000A1
:10093000C0B200F0BFFE5048E4B2005D052862DAA4
:10094000E4B2292C5FDBA7480021405624285ADB5B
:10095000A448002140562D2855DA9D48E4B20019DC
:100960008078050028009B49E4B209198978C0B253
:1009700088423DD213480078002812D1E4B25020BA
:100980006043EDB240193018A0380078002815D126
:1009900037480078401C3649087001200949087022
:1009A0000CE0E4B250206043EDB240193018A0389A
:1009B0000078002802D00020024908706D1CD1E7A1
:1009C000AE000020BB000020B3000020B4000020D7
:1009D000B5000020AF000020B0000020B1000020D2
:1009E000B2000020AD00002000E9FF1FC0E9FF1F9A
:1009F0001F480078042806DB1D4800780F2802DA1B
:100A000001201C490870E4B2392C00DBB0E1E4B2EB
:100A10001F2C00DAACE11848E4B2005D322800DB9C
:100A2000A6E16D480078002800D1A1E111480078C6
:100A3000002800D09CE16948E4B200198078674939
:100A4000E4B2095D401A042800DBCDE06448E4B25A
:100A500000198078801D6249E4B2095D884200DB9C
:100A6000C2E0C2480078002800D0BDE0034807E09B
:100A7000BA000020B900002040EAFF1F00EAFF1F73
:100A8000E4B2005D002800D0AEE05548E4B20019A1
:100A900080780500EDB25248E4B2005D401E854208
:100AA0002EDAE4B250206043EDB240193018A0387D
:100AB000007800280CD0E4B250206043EDB2401919
:100AC00030189C380078002802D1C948057015E01C
:100AD000E4B250206043EDB240193018F03800788D
:100AE00000280BD0E4B250206043EDB2401930181A
:100AF000EC380078002801D1BD4805706D1CC9E7AD
:100B0000BB480078002800D132E13548E4B2005DEE
:100B1000B7490978401A052800DA29E13048E4B2DB
:100B2000005DB34909784018022101F0E9FAB049A3
:100B300008702500E4B220001E38EDB2A84200DBA8
:100B400016E1EDB250206843A94909784018305C9D
:100B500000283BD0EDB250206843A54909784018E1
:100B6000301850380078002830D0EDB2502068435B
:100B70009F49097840183018A0380078002825D0FF
:100B8000E4B2502060431649E4B2095D40183018C1
:100B90009F380078002819D0E4B2502060431049F3
:100BA000E4B2095D401830189D38007800280DD057
:100BB000E4B2502060430A49E4B2095D401830189D
:100BC0009B380078002801D0CB4804706D1EB1E737
:100BD00080E8FF1FC0E8FF1FA800002080E9FF1F7A
:100BE00040E9FF1F70E8FF1FC448E4B2005DC3493D
:100BF000E4B209198978401A042800DBB8E0CE482D
:100C0000E4B2005DCC49E4B209198978891F8842B1
:100C100000DBADE0C9480078002800D0A8E0C84853
:100C2000E4B2005D002800D0A2E0C348E4B200199D
:100C300080780500C048E4B2005D401CEDB2A842D7
:100C40002EDAE4B250206043EDB240193018A038DB
:100C5000007800280CD0E4B250206043EDB2401977
:100C60003018A4380078002802D16148057015E0DA
:100C7000E4B250206043EDB240193018F0380078EB
:100C800000280BD0E4B250206043EDB24019301878
:100C9000F4380078002801D1554805706D1EC9E769
:100CA00053480078002863D051480078A249E4B244
:100CB000095D401A05285BDB9F48E4B2005D4C49A2
:100CC00009784018022101F01BFA494908702500F3
:100CD000E4B220001E38EDB2A84249DAEDB250204D
:100CE0006843434909784018305C00283BD0EDB296
:100CF000502068433E490978401830185038007831
:100D0000002830D0EDB250206843394909784018A6
:100D10003018A0380078002825D0E4B25020604375
:100D20008549E4B2095D40183018A13800780028E0
:100D300019D0E4B2502060437F49E4B2095D401805
:100D40003018A338007800280DD0E4B2502060435A
:100D50007949E4B2095D40183018A53800780028B8
:100D600001D09D4804706D1EB2E700BFAF000020A7
:100D70009A48E4B2005DCD490978891C884247DB76
:100D80006F48E4B20019807800280ED0C848E4B259
:100D9000005D5A49E4B209198978491E884212DA7D
:100DA00001206749E4B208550DE0C148E4B2005D96
:100DB000BF49E4B209198978491E884203DA012043
:100DC0005F49E4B20855BB48E4B2001980780028B6
:100DD00010D05948E4B200198078401CB649E4B2FA
:100DE000095D884214DA0120B249E4B208550FE0E7
:100DF000B5000020B048E4B200198078401CAE492C
:100E0000E4B2095D884203DA0120AA49E4B2085538
:100E10004B48E4B2005D002832D0E4B2372C14DB3A
:100E20003648E4B2001980783449E4B208553520D8
:100E3000A24908700020A24908603048E4B2005D71
:100E400001F0B8F99F49086039E09C480078002813
:100E50000AD19A480470294B98480278121DD2B2E0
:100E60009849974800F057F99648026894480168F5
:100E70002000C0B200F016FA2049E4B208551EE086
:100E80009148007800281AD18C480078002816D0A4
:100E90008748E4B2025D8648E4B20019817884484C
:100EA000E4B20019007900F02BF901F093F9070082
:100EB0003800864901F09AF901D2834804707D48D0
:100EC000E4B2005D00283DD0E4B2372C18DB1A48AC
:100ED000E4B2001980781849E4B208553520174962
:100EE000087000207A4908601348E4B2005D01F000
:100EF00061F97849086044E0B300002040E9FF1F31
:100F00000E48007800280AD10C4804700A4B0B48A0
:100F10000278121DD2B26F496D4800F0FCF86D489E
:100F200002686B4801682000C0B200F0BBF90249BA
:100F3000E4B2085525E000BF80E9FF1FB0000020A3
:100F4000C0E9FF1F6448007800281AD16348007880
:100F5000002816D05848E4B2025D5748E4B20019A0
:100F600081785548E4B20019007900F0C9F801F021
:100F700031F9070038005A4901F04CF901D85648B8
:100F800004705848E4B2005D5749E4B2095D401A64
:100F90005649E4B2085556480078002820D0474802
:100FA000007800281CD048480078002818D1514803
:100FB0000078002814D049480078002810D046480E
:100FC000007800280CD14C48E4B2001980784A49D6
:100FD000E4B2085511E000BFB400002040EAFF1F52
:100FE0004048E4B2005D4049E4B2095D4018022186
:100FF00001F086F84049E4B208553C48E4B2005D8F
:101000002A490978884204D23848E4B2005D274969
:1010100008705E4804702C480078002801D1FFF762
:1010200003FC2D480078002801D1FFF7FDFB334871
:10103000E4B2005D002806D11E48E4B2005D00283D
:1010400001D1FFF7F1FB2000801C504908701B48BC
:101050000078002823D02148007800281FD01A48A3
:10106000007800280BD0254801901F480090104BB5
:101070003200154801781148007800F0BBFB164893
:10108000007800280BD00B480190164800900A4BBE
:101090003200114801781148007800F0ABFB3100B4
:1010A0003A48007800F06EFC07B0F0BDAB000020BD
:1010B00080E8FF1F00EAFF1FC0E8FF1FAF0000200D
:1010C000C0EAFF1F90E4FF1FB1000020FFFF3FC0F8
:1010D000C4EAFF1F94E4FF1FB2000020B00000200C
:1010E0000000404080E9FF1F40E9FF1F80EAFF1F2A
:1010F000FBE9FF1F3BEAFF1F00E9FF1FC0E9FF1FDD
:1011000070B40300CE1A3400561A35002E1B30007E
:1011100040B270BC7047F0B583B006000F001400F9
:101120001D00E4B228190079E4B2295D401A01F0EB
:1011300095F802000B000020584901F099F80022B0
:10114000574B01F057F901F0B6F93060E4B2285D71
:1011500001F074F802000B000020504901F088F8FB
:1011600000900191E4B2200001F024F8316801F010
:10117000D3F901F029FA02000B000098019901F05F
:101180009FFA01F098F93860F7BD0000AE0000202A
:10119000F2B582B0070016001C00089D09A800786F
:1011A00001283DD1F6B2A85D1430E4B2295D401AA1
:1011B00001F054F802000B000020384901F058F803
:1011C00000900191F6B2E4B2301B01F047F8020042
:1011D0000B000098019901F00DF901F06CF93860ED
:1011E000E4B2285D01F02AF802000B0000202B4930
:1011F00001F03EF800900191E4B2200000F0DAFF27
:10120000396801F089F901F0DFF902000B0000985C
:10121000019901F055FA01F04EF9029908603CE09D
:10122000F6B2A85D1438E4B2295D401A01F016F850
:1012300002000B000020194901F01AF800900191FA
:10124000F6B2E4B2301B01F009F802000B0000987E
:10125000019901F0CFF801F02EF93860E4B2285D71
:1012600000F0ECFF02000B0000200C4901F000F838
:1012700000900191E4B2200000F09CFF396801F079
:101280004BF901F0A1F902000B000098019901F05F
:1012900017FA01F010F902990860F7BD0000F03F5D
:1012A00000001040FEB506000D001400F6B230003C
:1012B00000F080FF290001F02FF9210001F077FAFA
:1012C00002904F22012100910192029801F000FB4F
:1012D000019A009900F0D6FE07003800C0B2FEBDAA
:1012E000F0B587B00400FFF71FFA3B200500EDB210
:1012F00050206843B64909784018205C002838D14E
:101300004F200090012305AA521C21002800C0B2E2
:1013100000F082F807004F200090012305AA210069
:101320002800C0B200F0C1F8060038003100C0B299
:10133000C9B288420AD3FFB2002F07D0344B354AD6
:1013400021002800C0B200F0FAF826E03800310091
:10135000C0B2C9B288420AD2F6B2002E07D02C4BD6
:101360002C4A21002800C0B200F04EF915E0002000
:101370004BE09848049098480390254802902548EF
:1013800001904F20009001239448EDB240198278DB
:1013900021002800C0B200F08DF9914800789149F1
:1013A00008709148007891490870914800789149F7
:1013B0000870914800789149087091480078002899
:1013C00008D090480078002804D081480078B349BC
:1013D00008700DE08448007881490978401802219E
:1013E00000F08EFEAD490870AC480078784908706E
:1013F000AB480078AB490870AB480078AB4908703F
:10140000A9480078AA490870012007B0F0BD000083
:10141000C0E8FF1F80E8FF1FFEB504000D00002795
:101420006846007A6946487008A8007869460870DE
:101430006846007A060008A800783100C9B28842E0
:101440001DD3FFB2002F0CD1E4B250206043F6B29E
:101450008019285C002810D06846467001200700DB
:101460000BE0E4B250206043F6B28019285C0028FB
:1014700003D16846711E017001E0761CDBE7FFB204
:10148000002F01D100200FE06846007869464978B6
:101490004018022100F034FE019908706846007877
:1014A00069464978401AC0B2FEBDFEB504000D0081
:1014B00000266846007A6946487008A800786946A0
:1014C000087008A80078070038006946097AC0B299
:1014D00088421ED3F6B2002E0CD1E4B250206043F5
:1014E000FFB2C019285C002811D06846077001209F
:1014F00006000CE0E4B250206043FFB2C019285C43
:10150000002804D169463800401C487001E07F1E65
:10151000DAE7F6B2002E01D100200FE0684600782D
:10152000694649784018022100F0EAFD01990870E7
:101530006846007869464978401AC0B2FEBDF0B5E9
:10154000040000200126E4B216554F26E4B21E55D1
:1015500001263500EDB2502D1DDAC0B200280CD1A5
:10156000E4B250266643EDB276198E5D002E10D09F
:10157000E4B21555012630000BE0E4B25026664374
:10158000EDB276198E5D002E03D16E1EE4B21E55AB
:1015900001E06D1CDEE7C0B2002817D0E4B2175D91
:1015A0000D4EE4B23755E4B21F5D0A4EE4B2375532
:1015B000E4B21E5DE4B2175DF71B8C4EE4B2375502
:1015C0008A4EE4B2375D8A4EE4B23755C0B2F0BD00
:1015D0003DE9FF1F80E9FF1F40E9FF1F00E9FF1FF2
:1015E000BBE8FF1FBDE8FF1FFBE8FF1FFDE8FF1F73
:1015F0007BE9FF1F7DE9FF1FBBE9FF1FBDE9FF1F5F
:10160000FBE9FF1F3BEAFF1FF0B5040000200126A5
:10161000E4B216554F26E4B21E554F263500EDB202
:10162000002D1ED0C0B200280CD1E4B25026664373
:10163000EDB276198E5D002E11D0E4B21D55012653
:1016400030000CE0E4B250266643EDB276198E5DB0
:10165000002E04D12E00761CE4B2165501E06D1E5A
:10166000DDE7C0B2002817D0E4B2175DBF4EE4B288
:101670003755E4B21F5DBE4EE4B23755E4B21E5D8D
:10168000E4B2175DF71B594EE4B23755574EE4B23A
:10169000375D574EE4B23755C0B2F0BD3BE9FF1F8E
:1016A0007BEAFF1F7DEAFF1FBBEAFF1FBDEAFF1FAA
:1016B000AB000020F4B50200089C099D0127AD484D
:1016C000D2B287540127AC48D2B287546846007E14
:1016D000D2B2A0540798D2B283546846007806006C
:1016E000F6B2DBB21800401C86421DDBD2B250209D
:1016F0005043F6B28019085C002813D1D2B25020B2
:101700005043F6B280190818401E0078002809D10D
:1017100000279848D2B287540798D2B28654D2B2E2
:10172000AE5401E0761EDBE76846007806006846A6
:10173000007E401EF6B2B0421CDBD2B250205043B5
:10174000F6B28019085C002812D1D2B25020504362
:10175000F6B2801908184078002809D10027864879
:10176000D2B28754D2B2A6540A98D2B2865401E0BB
:10177000761CDCE77F48D2B2805C00280DD0D2B264
:10178000372A05DB07983B27C05DD2B2A85404E096
:10179000D2B2A8188078D2B2A8547748D2B2805C6E
:1017A00000280FD0D2B2372A05DB3B20275C0A98ED
:1017B000D2B2875406E00A98D2B2801887780A9885
:1017C000D2B28754D2B2A05C079FD2B2BF5CC71B13
:1017D0000648D2B287540A98D2B2805CD2B2AF5CCB
:1017E000C71B0348D2B28754F1BD000040EAFF1F77
:1017F00080EAFF1FFCB587B004000D000E9EE4B226
:10180000372C02DB3B20040000E0241D0F983B2115
:10181000405C002846D0EDB258480078001D854253
:1018200040DB3B200400EDB27019001F0078EDB2E0
:10183000715D401A00F012FD02000B0000205049BB
:1018400000F016FD00900191EDB2281FEDB2401B93
:1018500000F004FD02000B000098019900F0CAFDA1
:1018600000F029FE0390EDB2705D00F0E7FC02008D
:101870000B000020424900F0FBFC00900191EDB20A
:10188000280000F097FC039900F046FE00F09CFE53
:1018900002000B000098019900F012FF00F00BFE0F
:1018A00004903AE0E4B2305DEDB2715D401A00F0B0
:1018B000D5FC02000B000020314900F0D9FC00905B
:1018C0000191E4B2EDB2601B00F0C8FC02000B0015
:1018D0000098019900F08EFD00F0EDFD0390E4B258
:1018E000305D00F0ABFC02000B000020244900F04A
:1018F000BFFC00900191E4B2200000F05BFC039972
:1019000000F00AFE00F060FE02000B000098019952
:1019100000F0D6FE00F0CFFD04906846057220006E
:101920006946097AC0B288421ED368466946097A78
:10193000891C01726846007A00F03CFC039900F0B3
:10194000EBFD049900F033FF05904F220121009137
:101950001700059800F0BCFF3A00009900F092FBD8
:101960006946097A7054DAE709B0F0BD40E9FF1F13
:1019700080E9FF1FC0E9FF1F00EAFF1FAE00002043
:101980000000F03FF2B582B00700C7480078C749B1
:101990000870C7480078C74908703D200400E4B2C9
:1019A000FFB23800801C844200DA5FE1A41EC24806
:1019B000E4B2005D00281CD0C048E4B2005D0028FD
:1019C00017D0BF48E4B2005DBE49E4B2095D4018DB
:1019D000022100F095FBBC49E4B20855B848E4B2D6
:1019E000005DB849E4B2095D401AB849E4B208554F
:1019F000A0E0B148E4B2005D00284BD0B148E4B2A9
:101A0000005D01282DD1B2480078002829D1AC48CA
:101A1000E4B2015D0091AD48E4B200198078022182
:101A200000F06EFB0099091A0091A548E4B2001974
:101A30008078A349E4B2095D401A022100F060FBFE
:101A40000099081806009E48E4B2005D801B022140
:101A500048439E49E4B2085576B2012E16DAA41C1A
:101A600004E19748E4B2005D9649E4B2095D40188C
:101A7000022100F045FB06009148E4B2005D914967
:101A8000E4B2095D401A9149E4B208558E48E4B2C7
:101A900006554FE08948E4B2005D00284AD08848E6
:101AA000E4B2005D4F282DD18A480078002829D162
:101AB0008448E4B2015D00918448E4B20019807862
:101AC000022100F01DFB0099091800917D48E4B245
:101AD000005D7C49E4B209198978401A022100F0BE
:101AE0000FFB0099081A06007648E4B2005D301A30
:101AF000022148437549E4B2085576B2502E16DBF0
:101B0000A41CB3E06E48E4B2005D6E49E4B2095D26
:101B10004018022100F0F4FA06006948E4B2005DC2
:101B20006849E4B2095D401A6849E4B2085566485C
:101B3000E4B206556848007800282CD001200190B6
:101B400066480090644803783B22AB49AB48FFF7F6
:101B50001FFB3B20050028005F490978C0B288427E
:101B600019D3A5480268A54801682800C0B2FFF74C
:101B700099FB5449EDB248555148EDB2405D514989
:101B8000EDB2495D4018022100F0BAFA4E49EDB2BB
:101B900048556D1EDFE79A48007800282CD00220B7
:101BA000019098480090964803783B2296499748C0
:101BB000FFF7EEFA3B200500280091490978C0B2F2
:101BC000884219D390480268904801682800C0B242
:101BD000FFF768FB3A49EDB248553948EDB2405D30
:101BE0003849EDB2495D4018022100F089FA3649C2
:101BF000EDB248556D1EDFE72C4800783149E4B25C
:101C0000095D884204D22F48E4B2005D274908707C
:101C10002B48E4B2005D27490978884204D228485D
:101C2000E4B2005D234908700298E4B25021614398
:101C3000244AE4B2125D891840180021817002988C
:101C4000E4B2502161431E4AE4B2125D8918401883
:101C5000801E002101700298E4B2502161431A4AAB
:101C6000E4B2125D89180022425498E66E4800786A
:101C70006E4908706E48047015480078002806D038
:101C8000104B134802785C495C48FFF744FA11484E
:101C90000078002806D00A4B0E4802785A495B4863
:101CA000FFF739FAF7BD00007BE9FF1FB7000020FE
:101CB000BBE9FF1FB8000020C0E9FF1F00EAFF1FBB
:101CC00080E9FF1F40E9FF1F00E9FF1F80EAFF1FB7
:101CD000B1000020B2000020B300002080E8FF1F08
:101CE000FEB50026002553480078002803D150484F
:101CF0000078392809DB5448007807004F480078FD
:101D0000002802D001204E4908704B480078002876
:101D10000AD04D480078070048480078002843D092
:101D20000120474908703FE041480078152802DA51
:101D300015203F4908703D200400E4B23C4800787B
:101D4000801C844213DBA41E4048E4B2005D3D4980
:101D5000E4B2624289183B22895C4843361839480C
:101D6000E4B2614240183B21405C2D18E5E74E2269
:101D70000221009101923000290000F0C1F9019A7E
:101D8000009900F07FF907004E220221FFB23800CF
:101D900000F078F907002C48077068462B49244A60
:101DA000127889188978017228216846007A00F033
:101DB0002FF840B200F052FA02000B0024A003C832
:101DC00000F056FA0090019128213800C0B200F0CE
:101DD0001FF800F043FA02000B001FA003C800F038
:101DE00047FA009A019B00F008FC00F08FFD1C49A7
:101DF00008703800C0B2FEBD90E4FF1FC0EAFF1FAC
:101E0000B4000020C0E8FF1F94E4FF1FC4EAFF1FD6
:101E100000B50300CA1A100040B2012802DA02001D
:101E200052B2504240B200BD3BE9FF1F3DE9FF1FE7
:101E3000AE000020AD000020B9000020A800002066
:101E4000A700002054E4FF1F70E8FF1F00E9FF1FF8
:101E50009A9999999999E93F9A9999999999C93F24
:101E6000AC00002010B5040005480078002803D11C
:101E70002000FEF79FFC02E02000FEF7FDFA10BDF7
:101E8000BC00002000B585480021405E00280ED12E
:101E90008348007800280AD182480078002806D1BB
:101EA00001207F490870B92040007F4908807E48A2
:101EB0000021405E00280DD179480078002809D023
:101EC0007A480078002805D101207849087001205F
:101ED0007749087073480078002813D0704800785C
:101EE00000280FD0734800214056002802D114204A
:101EF000704908706F48002140560F2802D1002019
:101F00006749087000BD00B565480078002803D116
:101F100000206949088059E068480021405601289E
:101F200043D167480078122803DBA6206249088065
:101F30004CE063480078102803DBA7205E49088046
:101F400044E05F4800780E2803DBA8205A49088047
:101F50003CE05B4800780C2803DBAA205649088047
:101F600034E0574800780A2803DBAC205249088047
:101F70002CE053480078082803DBAF204E49088046
:101F800024E04F480078052803DBB0204A49088048
:101F90001CE04B480078022803DBB020464908804B
:101FA00014E0B4204449088010E044480021405621
:101FB000022803D1AF204049088007E03F480021B4
:101FC0004056032802D1A5203B49088000BD80B5BA
:101FD000FFF758FFFFF797FF37480021425E394867
:101FE0000168394800F029FD38490968081837495F
:101FF000086036480068012814DBFA2252000021EC
:102000003248006800F03EF83049086000220221A2
:10201000002000F0A3FE2D4802680321002000F0FC
:102020009DFE13E000222A492848006800F02AF8A3
:10203000264908602548006842420221002000F03D
:102040008DFE00220321002000F088FE01BD80B536
:10205000012000F08AFF1B490860012000F07DFF8D
:1020600018480068FF219231884204DBC8204000F4
:102070001449086003E01348006812490860FFF73C
:10208000A6FF01BD00B50300934201DB100004E090
:10209000994201DB080000E0180000BD6EE8FF1F58
:1020A000A6000020A700002098000020A800002023
:1020B000AA000020A90000209C000020A30000200E
:1020C000AC0000207CE8FF1F1400002078E8FF1F10
:1020D0000CFEFFFFF446002804D4494200F013F838
:1020E000404260474042002905D45FD000F00BF821
:1020F000404249426047494200F005F84942604782
:1021000003460B43E6D40022030A8B420BD2030999
:102110008B4219D243088B422ED2411A00D201467B
:10212000524110467047FF2209023FD012068B42EF
:1021300005D3121209028B4201D3121209020309BC
:102140008B4219D300E0090AC3098B4201D3CB01AA
:10215000C01A524183098B4201D38B01C01A5241EC
:1021600043098B4201D34B01C01A524103098B42F0
:1021700001D30B01C01A5241C3088B4201D3CB00DB
:10218000C01A524183088B4201D38B00C01A5241BE
:1021900043088B4201D34B00C01A5241884200D3FE
:1021A000401A5241CFD201461046704708B500F0A0
:1021B000F5FE08BD9D2102000AD002D4491E9218E6
:1021C000FCD5C905100A1206524100D3012A484124
:1021D000704700009D210200EED55242F446FFF701
:1021E000EBFF0122D20710436047FF000CB401222D
:1021F00012060318DA4207D84B18DA4204D8020054
:102200000A43921802D288420CBC7047FCD081422B
:10221000FAE700000CB4012212060318DA4207D8CC
:102220004B18DA4204D802000A43921802D28142C3
:102230000CBC7047FCD088420CBC704701004222A5
:102240001201D21E004207D002D4521E0018FCD543
:10225000C10A400512058918704700000100EED53B
:102260004042F446FFF7EBFF0122D20711436047DB
:10227000F0B50E005E400125ED072E40B446AE0AD3
:10228000DF184C18F44208D2F7420ED2640D01D088
:102290007F0D12D100206146F0BD05D1F74201D873
:1022A0007F0D05D10020C143F0BDFBD1640DF9D0F5
:1022B0000020C143490549088FE0E419C902DB0247
:1022C00029432B43DB0A460DC00231438E4630B40E
:1022D00087B295B27D432E0CADB2140C7C43A41989
:1022E000260C240425439CB27C43A419190C794381
:1022F000270CC919A4B20F043C43090C000C97B277
:1023000047432E0CBE193543ADB2170C4743360C6C
:10231000BF19A6B2BF193E043543240C3E0C361932
:102320009FB24743BF19BCB23E0C89191F0C4743EB
:102330007F183E043443390C704680B297B247434D
:102340002E0CBE193543ADB2170C4743360CBF19DE
:10235000A6B2BF193E043543240C3E0C36199FB279
:102360004743BF19BCB23E0C89191F0C47437F1865
:102370003E043443390C77463F0C90B278432E0C20
:1023800080190604ADB22E43050CA0B22D18120C14
:102390007A435019020C80B2240CA4189AB27A43E2
:1023A000121914042043120C89181B0C7B43C91802
:1023B00030BCEF0A394203D1B61940414941641E8D
:1023C0006F12BF0DE41B0BDBFF19BC4211DA2405B1
:1023D00000274208AE417841614166463143F0BD75
:1023E000641C05D1401C6141CF0201D34908F4E7C8
:1023F00050E75DE7F0B40E005E400125ED072E408A
:10240000B446AE0ADF184C18F4423BD2F74241D230
:10241000640D43D07F0D38D0E41BC902DB02294391
:102420002B43CF0ADB0A0600B61A9F4104D2641E72
:10243000B6197F41B6185F416812800D2418001844
:10244000844222DAE80C0021B6197F41B61A9F4176
:1024500002D2B6185F413F1C40414941F4D3241CCD
:1024600021DD2405B6197F41B61A9F4105D33743B4
:10247000C60737430026012F70416141664631434C
:10248000F0BC7047FCD1F74205D20020C14349059A
:102490004908F3E704D00020C143F1E77F0DFAD0EB
:1024A00000206146ECE72442FAD1401C61410F0351
:1024B000F6D30020E2E7012252054B18DA4201D997
:1024C000581570475B0D0722D2019B1A10D9FF2BBC
:1024D0001DD2DB050122D2070A4013430903020D76
:1024E0001143490AC200524100D9491CC81870471B
:1024F0000AD1800A0A0302435212921C04D9D3075C
:102500000B40D00518437047C80FC0077047C80F6D
:102510000002FF30C005704730B405004D40012275
:10252000D20715404B180418240E2ED01B0E32D0A3
:10253000FF2C34D0FF2B3AD0E418000209021043DC
:102540001143000A090A9446C2B24A43000AC3B2C0
:102550004B43000A4843110A5B181A43D2B2190AC6
:10256000091801D44918641E080A7F3C23DBFE2C9D
:1025700008DAE4050906114363469941604128439E
:1025800030BC7047FF20C005F9E728001B0EFF2B69
:10259000F6D1D043F4E72800FF2CF1D1F9E740024F
:1025A000F7D1FF2B01D14902F3D1E005E7E7D805C8
:1025B0004902E4D0EDE743020020641CDFD15B1246
:1025C0009B1CDCD9D805DAE7012212060118CA42A1
:1025D0000AD28A420DD83822120609098918C20F78
:1025E000D20711434007704700D049080909014349
:1025F00001E0C10FC90700207047F0B40125ED07C5
:102600000F005F404FD48B4200D1824205D98446EF
:10261000100062468C4619006346DF184C18640DA2
:102620007F0D3AD0661C760537D0E61B352E34DC9C
:10263000DB022B43DB0A0C0DC9022943C912202EF1
:102640000DDB1700203E06D01F00F741F3405F402E
:102650000026012A7741C01871410DD217E01700FA
:10266000F741F2405740F3415A40B340F3405A40DB
:102670000026801859410AD3A21C52050FD0C20768
:10268000012F724117004008CB0718434908641C0A
:1026900024054208AF4170416141F0BC7047641CA1
:1026A00021050020F9E76B4010E06B40ABE7F742F3
:1026B000F3D1E943F1E72442EFD100200021ECE718
:1026C000F0B40125ED070F005F40EED40C00871A2F
:1026D0009C4105D2C01BA141D219634169406B40A6
:1026E000AE0ADF184C18F442E1D2640D7F0DE2D03F
:1026F000E61B362ED1DCDB022B43DB0AA4460C0D95
:10270000C9022943C90A012E28DC04D1D607520880
:10271000DF073A435B08EF0A76429041994114D0B3
:1027200039423BD1B61940414941761C394204D166
:10273000761C001849413942FAD0B9436746B7427E
:1027400008D9A41B24052143A7E70042EAD1364259
:10275000E8D1A2E7E40AE10700209EE7202E0BDD86
:10276000203E1F00F340F7415F40012A00225741FD
:102770007E42984191410BE01700F741F2405740EB
:10278000F3415A40B340F3405A407E429041994150
:102790000A0303D2641EB619404149410027641E52
:1027A00024054208AE4178416141F0BC70470122E6
:1027B000D20703004B402ED4431A01D2C01AC918C5
:1027C00030B44B180418240E1B0E22D0FF2C20D03E
:1027D000E31A182B1DDC09021143C40D641E00020C
:1027E000104394461925ED1A0A00AA40D94045180D
:1027F00001D36D08A41CE405D209280A2D062A433A
:102800006546AA41604103181B0EFF2B01D3C00D82
:10281000C00530BC7047514006E05140CCE7012272
:10282000D20703004B40F8D4431A03D2C01AC91888
:102830005040514030B44B18090211430418240E83
:102840001B0E40D0FF2C3AD025009D410BD31ED843
:10285000C50D4002401A0BD3ED050100400AC90521
:1028600091416841D5E7C50D40024918401AD0D0C2
:1028700001214008491C0018FCD58C4204D36D1A74
:10288000000AED054019C4E7E8051040C1E7182D1E
:10289000BFDCAC1C0D00E140E5414D40012D49413C
:1028A000C40D00021043451A01D46D199543641EEE
:1028B000E405280A2D069541604130BC7047FF2B86
:1028C000A7D1D843A5E72442A3D10020A1E7000067
:1028D0000122D2070118090E7F3910D449421F3155
:1028E0000FD4001805D2C0011043C84000D5D04312
:1028F0007047C0011043C84005D4404270470020D3
:1029000070470042F3D5100070470000F4464A18A3
:1029100005D200F00FF801D580174008604700F09D
:1029200009F80121C907884200D9080040426047E0
:102930004A1812D2400DC90208430121C9070843B1
:10294000520D40210901521A521C06D452421F3224
:1029500001D4D0407047C017704700207047000076
:102960000021016000214160002181607047002248
:10297000026000224260002282600022C2600A6877
:1029800002614A6842618A6882617047F0B585B029
:1029900005000F001600F01B040020006043FFF745
:1029A0005DFC02000B0000204A49FFF761FC00902B
:1029B00001914948494900228A5610214A4380180A
:1029C000C068FFF74BFC02000B0000980199FFF76D
:1029D00011FD009001914048404900228A56102183
:1029E0004A438058FFF73AFC009A019BFFF705FE27
:1029F000FFF761FD02902000FFF7ECFB0299FFF763
:102A00008BFD010000913448344900228956102280
:102A10005143401880686968611A4843FFF7DAFB40
:102A20000099FFF7C4FEFFF753FF03906C60872007
:102A300040010399401A05B0F0BDF0B583B0040021
:102A40000D001600701B019001986168401AFFF795
:102A5000C1FB2169FFF760FD010000910198FFF7BC
:102A6000B9FB6169FFF758FD0099FFF7A0FE01006F
:102A700000910198616802225143401AA1684018F0
:102A8000FFF7A8FBA169FFF747FD0099FFF78FFE4D
:102A9000FFF71EFF07006068A06001986060019862
:102AA0003121C943884203DA01200D4908700DE045
:102AB00001983121C943884208DA09480078002882
:102AC00004D000200649087006483F183800FEBDB3
:102AD000000000000000F03FCCE6FF1FA200002035
:102AE000A4000020D4FEFFFF38B504000D0064B23E
:102AF000002C03D0022C55D039D36EE096480068E4
:102B0000802149040143944801606DB2002D08D032
:102B1000022D12D00BD3042D1BD014D3052D1ED0A3
:102B200023E0C0218900982000F03AFA1EE0C0217D
:102B30008900992000F034FA18E0C02189009D2016
:102B400000F02EFA12E0C02189009E2000F028FA41
:102B50000CE0C02189009F2000F022FA06E0C0218D
:102B600089009A2000F01CFA00E036E035E07A484F
:102B70000068802189040143774801606DB2002D0F
:102B800002D0012D06D00BE0C02189000C2000F0FE
:102B900007FA06E0C02189000D2000F001FA00E0EC
:102BA0001BE01AE06C4800688021C90401436A48B0
:102BB00001606DB2002D02D0012D06D00BE0C021C6
:102BC0008900012000F0ECF906E0C02189003320E3
:102BD00000F0E6F900E000E0FFE731BDFCB583B0AE
:102BE00006000F0076B2002E02D17FB2062F0CDB5A
:102BF00076B2012E02D076B2022E02D17FB2022F1F
:102C000003DBD8218D4800F037FA390049B2300093
:102C100040B2FFF769FF8A4800688A49484340107C
:102C200001900198000C0399FFF76DFA0400002051
:102C30000500A4B220002841012801DB6D1CF8E743
:102C4000EDB2082D03DBF3217C4800F015FA019862
:102C5000E8400399FFF757FA040076B2002E03D03C
:102C6000022E18D00CD321E00498A4B22100491CF4
:102C70004843FA218900FFF746FA6946088015E0C3
:102C80000498A4B22100491C48436421FFF73BFA91
:102C9000694608800AE00498A4B22100491C484310
:102CA0006949FFF730FA69460880FFE77FB20820DC
:102CB000784376B204217143644A515809187FB2AF
:102CC0000820784376B204227243604B9A58101859
:102CD000C06804229043C8607FB20820784376B26F
:102CE00004217143594A515808182821C160584895
:102CF00000685849014056480160554800688021E5
:102D0000490401435248016076B2042070434F49A0
:102D10000858EDB26907490F08220A43026076B2EB
:102D20000420704349490858A4B284607FB2082047
:102D3000784376B204217143444A515808186946D1
:102D40000988016176B20420704340490858002187
:102D5000416005B0F0BD00003C800440F8B50500BE
:102D60000F00160000246DB2002D02D17FB2062F95
:102D70000DDB6DB2012D02D06DB2022D02D17FB2FA
:102D8000022F04DBFF2130312C4800F075F96DB2C1
:102D9000002D03D0022D12D009D319E02E4886420F
:102DA00004D39A214900254800F066F910E0652E09
:102DB00004D39C214900214800F05EF908E027482F
:102DC000864204D39E2149001C4800F055F9FFE7D4
:102DD0006DB2042068431D49085880680400002C27
:102DE000F6D06DB2002D03D0022D12D009D318E019
:102DF0002000401C7043FA218900FFF784F90090FD
:102E00000FE02000401C70436421FFF77CF9009024
:102E100007E02000401C70430B49FFF774F9009055
:102E2000FFE77FB2082078436DB204216943074A67
:102E30005158081800990161F1BD00009887000001
:102E40003000002040420F0060EA0000B4E6FF1F9F
:102E500004800440FFFFFFFCE903000061EA00007A
:102E600070B504000D00160076B2082E04DBFF21B9
:102E7000F431424800F000F964B2002C03D0022C77
:102E800011D008D317E0414800688021490401436C
:102E90003E48016013E03D480068802189040143F9
:102EA0003A4801600BE0394800688021C9040143B9
:102EB0003648016003E03649304800F0DDF86DB275
:102EC000002D0DD13348006880214904A14088437A
:102ED000304908608021C900302000F061F815E019
:102EE0006DB2012D0DD12B48006880214904A1400D
:102EF0000143284801608021C9004D2000F050F8AE
:102F000004E0852189001D4800F0B6F81D480068DE
:102F10001D4901401B4801601A480068802149048E
:102F200001431848016064B2042060431449085802
:102F300076B27107490F10220A43026064B204207E
:102F400060430F4908581449816064B2042060430B
:102F50000B4908580021416070BD40B20421414333
:102F6000074A515800224A60704740B20421484342
:102F700003490858406880B27047000098870000F5
:102F8000B4E6FF1F04800440FFFFFFFC3C800440C8
:102F9000050200000C800440FFFF000070470000A5
:102FA00010B4324A126880239B000400E4B2640922
:102FB000A34013432D4A1360C0B2020052110423F0
:102FC0005A432B4B9A58A0320123C406E40EA34067
:102FD0001360C0B2C206D20E04235A43C0B203002B
:102FE0005B1104246343224CE358995010BC704792
:102FF00010B41E4A126880239B000400E4B26409E6
:10300000A3401343194A1360C0B2020052110423B3
:103010005A43174B9A58A0320123C406E40EA3402A
:1030200013600A00134911400A00C0B2C106C90E5C
:1030300004235943C0B203005B11042463430C4CC6
:10304000E3585B58E021C90019401143C0B2C206E1
:10305000D20E04235A43C0B203005B11042463431D
:10306000034CE358995010BC70470000388004406E
:10307000A0E6FF1FFFF8FFFF38B504000D002A008F
:1030800021000E4800F022F8FEE738B504000D00DC
:10309000210049B2022000F09FF9200032BD7047A4
:1030A00010B507480468E4B20920604305490A18CE
:1030B000E4B22100044800F009F810BDD0880000F7
:1030C00004ED00E098E4FF1F6C8800000EB4C0B56A
:1030D000020003A801900020009001AB01210448E8
:1030E00078440C3000F0A2F9029906B0084700BFFE
:1030F000FD580000F1B584B00F006846AD498181EC
:10310000694610200856002803D0022825D012D383
:1031100035E0A94800688021C9000143A648016044
:10312000C02189000F20FFF73BFFC02189000E203E
:10313000FFF736FF23E0A048006880210901014322
:103140009D480160C02189004320FFF729FFC0216D
:1031500089004420FFF724FF11E097480068802190
:103160004901014394480160C02189006220FFF7B2
:1031700017FFC02189006320FFF712FFFFE76946B0
:1031800010200856002800D0ABE08C4800688C491D
:1031900001408A480160894800688A49014387489C
:1031A000016089480078F321014087480170874811
:1031B0000021017086480068864948430221FEF7D5
:1031C0009FFF029004200400E4B2212C64DA0298EC
:1031D000E4B22100491C7943FEF795FF0500ADB22A
:1031E00080208001854255DA0298ADB2E4B2210018
:1031F000491C6943FEF787FF01900198C01B012815
:1032000003DB01983900461A02E00198C01B4642D0
:10321000B6B2002E05D1684605806846E4B2448007
:103220003AE068468089B6B2864206D26846868110
:10323000684605806846E4B244806D1CADB28020CB
:103240008001854226DA0298ADB2E4B22100491C21
:103250006943FEF758FF01900198C01B012803DB6A
:1032600001983900461A02E00198C01B4642B6B2E6
:10327000002E05D1684605806846E4B244800BE024
:1032800068468089B6B2864204D2684605806846A0
:10329000E4B24480641C97E75C480078E021014078
:1032A0000C006846008880B2000AC006C00E2043A9
:1032B0005649087056486946098801705548007893
:1032C000E02101400C0068464088C006C00E204343
:1032D000504908703C4800780C2101433A4801707D
:1032E00066E0694610200856042148434A490858B8
:1032F000C178F32008406A461021515604225143F8
:10330000454A5158C8706946102008560421484360
:10331000414908580021817040480068FA2189001D
:1033200048430290029810217943FEF7ECFE69466B
:1033300008806846008880218901884202DB68464F
:103340003749018069461020085604214843324914
:1033500008580078E02101400C006846008880B2DF
:10336000000AC006C00E20436A46102151560422AE
:103370005143294A515808706946102008560421C3
:103380004843254908586946098841706946102014
:1033900008560421484320490858C1780C200843A6
:1033A0006A4610215156042251431B4A5158C87095
:1033B00005B0F0BDFFFF00003480044004800440ED
:1033C000FFFFFFF30000010403A0064002A0064037
:1033D0003000002040420F0000B540B2002806D166
:1033E000104A12781206FBD50F4A11700DE040B258
:1033F00004224243084B9A5812791206F7D540B27C
:1034000004224243044B9A58D17100BD00A00640EB
:1034100001A006400AA00640C0E6FF1F3C000020B5
:10342000FF1F000004A0064007A00640F0B5A3B0AF
:1034300006000C00289D00BF74A003C86F4603C798
:10344000069404A83B21455400200F9003961700D2
:10345000029310E03D00260029780698039A9047D1
:103460000690002800D1B5E00F98401C0F906D1C0D
:10347000761EF1D13F193878252808D1002009900F
:103480000A900B900C900D900E903C000FE06A4655
:103490000021C943380001F003F8040001D10F985E
:1034A0009AE0D7D50124E5E7010001200843641C18
:1034B00021782029F8D023290FD02B2904D02D29B9
:1034C00007D030290CD089E001000220084380B2E7
:1034D000EDE7020004201043F9E701000820F5E7BA
:1034E00001001020F2E7002111910AE01199464BEA
:1034F000994205DA8B005918490089183039119121
:10350000641C2278110030390A29EFD321782E2942
:1035100003D00021C943109128E0641C22782A2A94
:103520000AD102990968029A11600A68091D029B72
:1035300019601092641C19E02D2A01D1641C00E06E
:103540000022002110910CE0002A09D1109B2E4D81
:10355000AB4205DA9D00EB185B0059183039109129
:10356000641C21780B00303B0A2BEDD304A908879B
:103570002578290027A000F0A5FF002801D0641CB1
:1035800000E0002504A83A214554405C682804D195
:103590002178682901D1622005E06C2807D12078C4
:1035A0006C2804D1712004A93A228854641C14A800
:1035B00008902378029A04A9039800F069F8671C20
:1035C000002807D114AA04A9039800F001FA0028E2
:1035D00000D450E70020C04323B0F0BD2A2900D01A
:1035E00081E702990968029A11600A68091D029B25
:1035F00019601192002A05D5514211910200042050
:10360000104380B2641C81E7CBCCCC0C00000000DE
:1036100000000000686A6C747A4C00000B0062289D
:103620001CD068280DD06A2803D06C2823D07128BC
:1036300021D11A68D21D072082431A6003CA1A607A
:103640007047002A19681960086803D0091D1960BD
:1036500000B217E0091D196080B217E0002A19684E
:103660001960086803D0091D196040B20AE0091DFD
:103670001960C0B20AE0002A19681960086803D00E
:10368000091D1960C1177047091D19600021704795
:10369000F0B583B00C0016001F00256939002539EC
:1036A00000D14DE11C3900D184E0091F022900D866
:1036B00080E00E3900D106E1491F59D0093979D08F
:1036C000891E16D0491E34D0491E022972D9091FFD
:1036D0002FD0491F00D196E0491E49D0491E00D184
:1036E000E1E0C91E00D1FDE0891E41D0C91E3FD0D6
:1036F0002CE13A21615C6C2909D06069411C61614F
:10370000316831600A68091D31602A5428E1316846
:1037100031600A68091D3160009200210191C9439E
:1037200021636A46210000F0D1F9002800D417E196
:1037300003E1012231003A20205CFFF76FFF03C450
:10374000083C002904DA6069411C61612D210DE00B
:10375000208F810704D56069411C61612B2105E040
:10376000C00722D56069411C6161202129541CE0F9
:10377000002231003A20205CFFF750FF03C4083CD0
:103780003820205C000710D503CC083C002901D16B
:1037900000280AD020203843782806D160693021DB
:1037A0002954401C411C61612F5460692818E06055
:1037B000390084E03268D21D07208243326003CA98
:1037C000326003C4083C03CC083CC80F04D06069D5
:1037D000411C61612D210DE0208F810704D56069B6
:1037E000411C61612B2105E0C00704D56069411CC3
:1037F00061612021295460692818E06039002000A7
:1038000000F07EFAACE03B20205C002804D00024CD
:10381000E44300BF54A074E03A20205C622808D042
:10382000682823D06A2812D06C282ED071280ED098
:103830002BE0306830600168001D3060002903D142
:103840000024E4434EA05CE0E06A087088E0306841
:1038500030600268001D3060002A03D10024E44378
:1038600047A04EE0E06AC11703C279E030683060DB
:103870000168001D3060002904D10024E44300BF2A
:103880003FA03EE0E06A08806AE03068306001688E
:10389000001D3060002903D10024E44338A030E04B
:1038A000E06A08605CE0306830600268001D3060EB
:1038B0000020C043104003C4083CE560782120008C
:1038C00000F062F94CE06C213A22A1543168316079
:1038D0000A68091D3160002A2AD10024E44300BF90
:1038E0002DA00EE03A21615C6C29EFD03068306089
:1038F0000768001D3060E760002F06D10024E44314
:103900002CA000F0EBFD201A2BE0256B002D03D539
:10391000380000F007FE09E02A000021380000F01E
:1039200009FE002801D0C01B00E02800A06117E0BC
:10393000210000F0CBF8002812D50020C04310E091
:103940006069411C61612521295409E06069411CBD
:10395000616125222A54380002D0481C60616F54EE
:10396000002003B0F0BD00007072696E74665F7372
:103970003A20256E20646973616C6C6F7765640012
:103980007072696E74663A2062616420256E2061EF
:103990007267756D656E74007072696E74665F73C0
:1039A0003A2062616420256C7320617267756D65D1
:1039B0006E7400007072696E74665F733A206261A3
:1039C0006420257320617267756D656E7400000058
:1039D000F4B506000C00606B6169401A216A401A58
:1039E000A169401A616A401AE169401AA16A471A3E
:1039F0003820205C40070DD4002F0BDD3D00202136
:103A0000A068B047A06000285CD0E06A401CE0627B
:103A10006D1EF4D16369009A2100300000F0F1FCC2
:103A200000284FD1256A002D0ADD3021A068B0475B
:103A3000A060002846D0E06A401CE0626D1EF4D110
:103A4000A369E2682100300000F0DBFC002839D1D6
:103A5000656A002D0ADD3021A068B047A06000280B
:103A600030D0E06A401CE0626D1EF4D1E369E0688A
:103A7000A16942182100300000F0C3FC002821D1C8
:103A8000A56A002D0ADD3021A068B047A06000289B
:103A900018D0E06A401CE0626D1EF4D13820205C32
:103AA00040070DD5002F0BDD3D002021A068B04759
:103AB000A060002806D0E06A401CE0626D1EF4D1D0
:103AC0000020F2BD0020C043F2BD0000F1B5A6B059
:103AD0000F0014003E6B002E00D5864E00F036FD20
:103AE000796B0A1826A003C803AB03C3812A44D20A
:103AF0002698002126900291002E2FDD03AA21682E
:103B0000684600F0D2FC050037D42068002801D1B7
:103B10006D1E32D4AE4221DB7869401981280BD367
:103B20000020786305AA39002698FFF751FF02901C
:103B3000002813D400207861786901902A00694632
:103B400005A8019BC01800F007FD01984019786195
:103B50002068002802D0241D761BCDE7029800289B
:103B600004D105AA39002698FFF732FF002802D1B8
:103B700000217961796327B0F0BD0020C043FAE7E6
:103B80000000000000000000F2B586B004002769C4
:103B90000A466F2A01D1082507E008462021014383
:103BA000782901D00A2500E010253C2603CC083CEA
:103BB0006B4603C3642A01D0692A0BD1002909DAB4
:103BC000684603C800220023121A8B411000190016
:103BD0006A4603C2684603C8002920D100281ED1C6
:103BE000206B00281BD1082D52D13820205C000703
:103BF0004ED53B2630204AE000290ED53821615CA5
:103C000014220A40102A08D1616B6269891A226A5B
:103C1000891A0E1A002E00DD266207B0F0BD04944A
:103C200002970395761E039CE517684603C8220099
:103C30002B0000F0BFFC3032D2B23A2A03DB6846D8
:103C4000007E5138121802988255684603C8220037
:103C50002B0000F0AFFC6A4603C2684603C8002987
:103C600001D1002805D00498C068029989198842BA
:103C7000D8D3049C029F039D082D09D13820205CD5
:103C8000000705D5B85D302802D0761E3020B85523
:103C90003C20801BA061B919E160216B8842ABDA3E
:103CA000081A2062208F144901402187B5E7F8B532
:103CB0000024124D06000F00009214E0C00707D543
:103CC00022002B0030003900FEF7D2FA06000F0068
:103CD0000098401000902000290022002B00FEF7E1
:103CE000C7FA04000D0000980028E7D13000390021
:103CF000F4BD0000FFFFFF7FEFFF00000000244045
:103D0000F3B591B006A811990CC902A90CC12021E4
:103D10006A4612AB1B78194311706946097861290C
:103D20000DD01199096B002901D5062105E006D1B6
:103D300069460978672902D10121119A1163119905
:103D40000CC95C006415641C13D1190311D0032045
:103D50001199886112A8007861381A2804D25B4949
:103D60007944FF31693116E059497944FF316331B3
:103D700011E05C006415641C13D1190311D10320F8
:103D80001199886112A8007861381A281BD351490B
:103D90007944FF31413103221198C06800F0DCFB07
:103DA000D2E104A90CC104A930C99BA20CCA2240CB
:103DB0002B40002480256D03AB4209D204A9C0C961
:103DC00072407B400DE044497944FF310D31E2E718
:103DD0001A0D8F4CA41804A90CC9914F1F408D4B8C
:103DE0003B4311990CC169460978612913D1119996
:103DF000C96830220A708A1C119BDA6012AA1278F4
:103E0000612A01D1782200E058224A70119949694B
:103E1000891C119A51611199C0C97FA20CCA324004
:103E20003B4004D1002A02D10021002483E16846EE
:103E30000078612800D0B7E01198006B002801D508
:103E4000212000E0401C01900198401C009002A835
:103E500003C80022002300F0E2FB02D2802000060B
:103E6000474002A8C0C0241F002569460D7606A859
:103E7000471C0098002800DC6DE102A803C800225E
:103E800080235B0300F0E4FB00D964E108004100FB
:103E9000490D0A001C32002920D0002A1EDDB94934
:103EA0008A420ADB09054A00520802A803C80B002F
:103EB000802000060340134316E0594901401205D3
:103EC0000A4302A803C8110010E000BF9C4B000089
:103ED0009C4B0000A04B0000984B000002A803C8B8
:103EE0000B008020000603400020190002AA03C234
:103EF00002A803C8FEF70AFD06000098C01F009044
:103F000000280ADD3000FEF7A9F902000B0002A824
:103F100003C8FEF7D5FB02AA03C2F81D072104E07F
:103F2000401E0F22324002703611002E01DD491E64
:103F3000F6D5491E00D509E1401E0570F9E70A00D3
:103F400006AB9B1801E0491E5B1E521E1E78AE4256
:103F5000F9D00F2D06D106AB5B1C9B5C5B1C06AD3C
:103F60006D1CAB54002A02D506A8491C241D4A1E0C
:103F700011D4831812AD2D781E783036F6B2392E52
:103F800002DD2F003A3FF6191E70521E5B1E002AFA
:103F9000F2D512AA1570119A126B002A00D4CAE049
:103FA0004A1E119B1A63C6E002A803C80022002320
:103FB00000F035FB06D202A803C880221206514049
:103FC00002AA03C27048444320007049FEF798F8E3
:103FD000059007200599421A04DD02A803C8FFF7DF
:103FE00066FE0BE05042020000206949FFF75FFEC9
:103FF00002000B0002A803C8FEF7FCF902AA03C2E4
:104000006846007866280DD105980A300BE000BF9D
:1040100002FCFFFF0000E03FFFFFFFFFFFFFFF7F0D
:10402000FFFF0F8006201199096B0818142800DD86
:10403000142030216A46117606A94C1C00283CDD6C
:10404000049002A803C8FEF773FC10902500083501
:104050000424019001980A21FEF755F80F000198F9
:104060000A21FEF750F801903037681E077001985A
:104070000A21FEF748F80F0001980A21FEF743F8DD
:104080000190AD1E30372F70641EE3D12C00083430
:104090000498083804900028D0DD1098FEF7CEF878
:1040A00002000B0002A803C8FEF70AFB0022394BEE
:1040B000FEF7DEF802AA03C2C3E706A8401C221AD4
:1040C00006A8401C059C02E0521E641E401C01789C
:1040D0003029F9D069460978662901D1611C06E0CA
:1040E00069460978652901D1012100E00021119B71
:1040F0001B6B59188A4200DA511E00291BD49142C9
:1041000004DA425C352A01DB392200E030220B0060
:10411000451EED1801E0491E6D1E5B1E2E7896426D
:10412000F9D0392A02D1C25C521CC254002B02D5EC
:10413000401E491C641C24B200940BB2020012A859
:104140000178119800F028F813B0F0BDC71D009851
:10415000002800DD91E606A8401C3A1A06A8401C7B
:1041600001998A4200DC1100002900D513E7914231
:1041700000DBE4E606AA521C525C072A00DCDEE6FD
:104180000F25DCE6FF07000097750000A086010000
:104190000000F03F84D79741F6B587B005001C00BA
:1041A00000F089F96946406A007808702F6B002C8E
:1041B00002DC01249FA008900E9E6846017F20200B
:1041C0000843662801D1761C13E067287DD10320BF
:1041D000C04386427DDBBE427BDA761C3820285CF9
:1041E000000702D4BC4200DA270036B2BF1B00D55C
:1041F0000027A969E868401836B2002E25DC491C62
:1042000030220270002F03DC3820285C000704D520
:1042100068460078EA685054491CA9617042874298
:1042200000DA7E4236B270426862BF19A74200DAF5
:104230003C0024B2EC6122000899E868AB69C01820
:1042400000F08AF9381BA862C5E03200944217DA00
:104250002200089900F080F9A8690019A861311BB3
:104260006962002F03DC3821695C090706D56946BD
:104270000978EA681154E869401CE861AF62AAE075
:10428000089900F069F9A8698019A41B002F03DCC4
:104290003821695C090704D569460978EA68115430
:1042A000401CA86124B2A74200DA3C0024B22200DC
:1042B00008988119E868AB69C01800F04DF9A86941
:1042C0000019A861381B686285E0612911D170204E
:1042D00012E0BC4204DA3820285C000700D4270032
:1042E0007F1E00D50027672901D1652004E0452005
:1042F00002E0412902D1502069460877A9694A1C89
:10430000AA6108980378E86843540898401C08900C
:10431000002F03DC3820285C000718D5501CA8614A
:1043200069460B78E9688B54002F10DD641E24B2B7
:10433000A74200DA3C0024B222000899EB68181862
:1043400000F00AF9A8690019A861381B6862E868DA
:10435000A96940186946097F0170002E03D42B21FA
:104360004170871C04E02D214170871C30004642BB
:10437000002401A80AE00A2204A800F082F90598A6
:1043800000990870049E641C0098401C009031B293
:104390000029F0DC012C08DC6846007F2021014365
:1043A000652902D1302038707F1C002C0AD13020C2
:1043B0003870781C089008E0641E01A8005D303059
:1043C00038707F1C002CF7DC08970898E968AA6908
:1043D0008918401AE8613820285C1421014010290E
:1043E0000DD16869A9694018696A4018E9694018DF
:1043F000A96A4018696B884201DA081A286209B074
:10440000F0BDF8B507000D0014000020002B10D0FF
:104410001E002178A868B847A860002807D0E86A7D
:10442000401CE8620020641C761E02D0F1E70020E8
:10443000C043F2BD300000002048704730B45368DC
:10444000D418042B0BDA002909D0057825700578DB
:10445000002D04D05B1C491E641C401CF1E7536016
:1044600030BC704738B514001D0000290CD0FFF790
:10447000E5FF616820006A6B90470122D243811AF0
:1044800002D0491E02D004E0012000E00020C04319
:1044900032BD0021616032BD80B5DA6B904702BD4C
:1044A00080B5064BFFF7DEFF02BD80B5034BFFF77B
:1044B000F3FF02BD000002487047000024E8FF1F20
:1044C000ECE7FF1F00BFC9B200E0401C02788A423F
:1044D00002D0002AF9D100207047000080B50028E2
:1044E00001D100BF07A006490B68002B03D0222290
:1044F0000021984701E000F0D4F8222002BD00001E
:1045000094000020636F6E73747261696E7420682A
:10451000616E646C65723A20626164206D657373CC
:1045200061676500010000E0491C0A78002AFBD1A0
:10453000081A7047C9B201E0401C521E002A03D07D
:1045400003788B42F8D170470020704780B5FFF7A1
:1045500073FF006C02BD0000124207D08B0706D02B
:104560000B78491C0370401C521EF7D87047830714
:1045700006D00B78491C0370401C521EF9D17047BD
:1045800070B4103A03D378C9103A78C0FBD25307FD
:1045900001D318C918C001D508C908C0D20704D36F
:1045A0000B880380891C801C002A01D50B780370BE
:1045B00070BC7047124224D0994228D970B50025AA
:1045C0001B4202D00C00002109E0002401264918FA
:1045D0006441944200D3A41A7641F8D331000126F5
:1045E00001E0764109D2001864416D41A41A9D4151
:1045F000F7D2A4185D41B619F5D3300022002B0084
:1046000070BD1B42D8D108B500F050F808BD01D1EB
:104610009042D3D202000B0000210020704730B43A
:10462000012464054D00EC420BD85D00EC4208D833
:104630000C001C4364000443144304D2994200D18B
:10464000904230BC7047FCD08B42FAD18242F8E7EE
:1046500030B4012464054D00EC420BD85D00EC42FF
:1046600008D80C001C4364000443144304D28B425A
:1046700000D1824230BC7047FCD09942FAD19042BE
:10468000F8E77CB504000E00150030002900FDF7A6
:1046900037FD00904543701B0190684603C803C472
:1046A00073BD80B5012000F003F801BD7047000024
:1046B00080B500BF00BF024A11001820ABBEFBE767
:1046C0002600020038B50400002508200500EDB2E0
:1046D000002D15D0200604D50121662000F0DFFF53
:1046E00003E00021662000F0DAFF0021652000F0E1
:1046F000D6FF0121652000F0D2FF64006D1EE6E7C1
:1047000031BD10B504000021642000F0C8FF002175
:10471000632000F0C4FF2000C0B2FFF7D3FF0121E7
:10472000642000F0BCFF10BD10B50400002164201F
:1047300000F0B5FF0121632000F0B1FF2000C0B2FE
:10474000FFF7C0FF0121642000F0A9FF10BD10B5E4
:1047500004000021642000F0A2FF0121632000F08A
:104760009EFF200080B2000AC0B2FFF7ABFF20001E
:10477000C0B2FFF7A7FF0121642000F090FF10BD39
:1047800038B505000C00280080B2FFF7BAFF200002
:10479000C0B2FFF7C9FF31BD80B5E9480089FFF716
:1047A000B0FF01BD80B50021672000F078FF6420D4
:1047B00000F0FAFF0121672000F071FF642000F093
:1047C000F3FF01BD80B500220121632000F000FF4E
:1047D00000220121642000F0FBFE0022012165205F
:1047E00000F0F6FE00220121662000F0F1FE00221A
:1047F0000121672000F0ECFE01BD80B5FFF7E2FF6C
:10480000FFF7D0FF1120FFF77CFF782000F0CCFFEE
:10481000B120FFF776FF0120FFF786FF2C20FFF77E
:1048200083FF2D20FFF780FFB220FFF76AFF0120F2
:10483000FFF77AFF2C20FFF777FF2D20FFF774FF9B
:10484000B320FFF75EFF0120FFF76EFF2C20FFF77C
:104850006BFF2D20FFF768FF0120FFF765FF2C207D
:10486000FFF762FF2D20FFF75FFFB420FFF749FF3E
:104870000720FFF759FFC020FFF743FFA220FFF7F3
:1048800053FF0220FFF750FF8420FFF74DFFC120A8
:10489000FFF737FFC520FFF747FFC220FFF731FFC3
:1048A0000A20FFF741FF0020FFF73EFFC320FFF77C
:1048B00028FF8A20FFF738FF2A20FFF735FFC420A2
:1048C000FFF71FFF8A20FFF72FFFEE20FFF72CFFD7
:1048D000C520FFF716FF0E20FFF726FF3620FFF753
:1048E00010FFC820FFF720FFE020FFF70AFF0F208E
:1048F000FFF71AFF1A20FFF717FF0F20FFF714FF2B
:104900001820FFF711FF2F20FFF70EFF2820FFF7D9
:104910000BFF2020FFF708FF2220FFF705FF1F20D5
:10492000FFF702FF1B20FFF7FFFE2320FFF7FCFE2F
:104930003720FFF7F9FE0020FFF7F6FE0720FFF70C
:10494000F3FE0220FFF7F0FE1020FFF7EDFEE1205E
:10495000FFF7D7FE0F20FFF7E7FE1B20FFF7E4FE6F
:104960000F20FFF7E1FE1720FFF7DEFE3320FFF7F1
:10497000DBFE2C20FFF7D8FE2920FFF7D5FE2E20E6
:10498000FFF7D2FE3020FFF7CFFE3020FFF7CCFE3E
:104990003920FFF7C9FE3F20FFF7C6FE0020FFF7D2
:1049A000C3FE0720FFF7C0FE0320FFF7BDFE102067
:1049B000FFF7BAFE2A20FFF7A4FE0020FFF7B4FE9F
:1049C0000020FFF7B1FE0020FFF7AEFE7F20FFF7CB
:1049D000ABFE2B20FFF795FE0020FFF7A5FE002081
:1049E000FFF7A2FE0020FFF79FFE9F20FFF79CFE2F
:1049F000F020FFF786FE0120FFF796FEF620FFF776
:104A000080FE0020FFF790FE3A20FFF77AFE052097
:104A1000FFF78AFE2920FFF774FE00F05BF801BD66
:104A200070B506009C237D221D210120C04300F0AB
:104A300019F80020050028004149098880B2884201
:104A40000FD20020040020003D49498880B28842EE
:104A500005D2300080B2FFF77AFE641CF3E76D1CCC
:104A6000E9E770BDF8B507000C0015001E003448DA
:104A70004089FFF746FE3FB23812C0B2FFF754FE3E
:104A80003800801CC0B2FFF74FFE2DB22812C0B212
:104A9000FFF74AFE2800801CC0B2FFF745FE2848F9
:104AA0008089FFF72EFE24B22012C0B2FFF73CFE31
:104AB0002000C01CC0B2FFF737FE36B23012C0B2C1
:104AC000FFF732FE3000C01CC0B2FFF72DFEFFF72B
:104AD00063FEF1BD80B52C201949088100201849DA
:104AE00088718020164908808020154948802A2036
:104AF000134948812B2012498881C8213620FFF7AD
:104B00003FFE01BD38B505000C0023001D331BB26C
:104B1000AA1E12B221001D3109B2A81E00B2FFF771
:104B2000A1FF31BD38B505000C00210089B2280075
:104B300080B2FFF7E7FF73480088FFF708FE31BD3A
:104B4000CCEAFF1FF5B581B00F001E00684669462C
:104B500009896A469288891A491C41806846F11B76
:104B6000491C018033001C331BB268460089C21EF9
:104B700012B239001D3109B268468088801E00B229
:104B8000FFF770FF0020050028006946098880B201
:104B900088420FD20020040020006946498880B274
:104BA000884205D26846008CFFF7D1FD641CF3E70C
:104BB0006D1CE9E7544843881C331BB252480088F7
:104BC000C21E12B21D210120C043FFF74BFFF7BDEB
:104BD000FFB587B0002400256846808C6946898B24
:104BE000401A02906846008D6946098C401A01906F
:104BF0006846808B03906846008C06000298012866
:104C000002DB012005900BE00298002802D1002071
:104C1000059005E00020C0430590029841420291B2
:104C20000198012802DB012004900BE00198002884
:104C300002D10020049005E00020C04304900198B8
:104C40004142019101980299884202DA02980700D4
:104C500001E0019807000020694608803800401CE8
:104C60006946098888421CDB3000010089B203983C
:104C700080B2FFF757FF0298241801982D18A74219
:104C800004DAE41B0398059940180390AF4202DA56
:104C9000ED1B04983618684669460988491C01804E
:104CA000DCE70BB0F0BDF8B507000E0015001C00E6
:104CB00033009BB22A0092B2310089B2380080B230
:104CC000FFF786FF23009BB23A0092B2310089B20F
:104CD000380080B2FFF77CFF23009BB22A0092B21B
:104CE000210089B2380080B2FFF772FF23009BB227
:104CF0002A0092B2310089B2280080B2FFF768FF23
:104D0000F1BD0000A0000020CCEAFF1FFFB583B07A
:104D10000D9F5C480088694608810CA80CA9097899
:104D2000203901706846008AFFB2C019431E1BB2C9
:104D30000193684681890091FFB238000221FDF796
:104D4000DFF900990818421E019B12B26846008ADA
:104D5000010009B26846808900B2FFF783FE0EA801
:104D6000007800283AD10020060030003900C0B297
:104D7000C9B2884272D2FFB20C2F09D142480CA9A5
:104D800009780C2251434018F6B2805D040008E017
:104D90003E480CA90978102251434018F6B2805DB4
:104DA000040000200500FFB238000221FDF7A8F939
:104DB000EDB2854210DAE00705D56846808AC0B2B8
:104DC000FFF7B2FC04E06846008BC0B2FFF7ACFC12
:104DD000E4B264086D1CE6E7761CC6E70020060016
:104DE00030003900C0B2C9B2884237D2FFB20C2FAE
:104DF00009D125480CA909780C2251434018F6B274
:104E0000805D040008E021480CA909781022514374
:104E10004018F6B2805D040000200500FFB23800A3
:104E20000221FDF76DF9EDB2854215DA6846808AF8
:104E300014490880E0070BD56846008AF6B281194C
:104E400089B268468089EDB2401980B2FFF76AFEE8
:104E5000E4B264086D1CE1E7761CC1E7684600898E
:104E6000084908800A4843881C331BB20848008858
:104E7000C21E12B21D210120C043FFF7F3FD07B08F
:104E8000F0BD0000A0000020F0700000006B0000EA
:104E9000CCEAFF1FFCB583B004000E0068464480D6
:104EA0000520694688800020694608806846008899
:104EB00069468988884276D28F48694609882222C5
:104EC0004A43805C0A990978884266D18A486946D3
:104ED000098822224A43801840780A9949788842F2
:104EE0005BD133000F331BB222000F3212B23100FC
:104EF00009B2200000B2FFF7B5FD00200700FFB2A5
:104F0000202F4ADA00200500EDB2082D43DA0BA865
:104F10000078002818D178486946098822224A4337
:104F20008018FFB2C019022140568021294180B269
:104F3000084204D068468089FFF709FC29E06846EA
:104F4000008AFFF704FC24E06846808969490880EC
:104F500069486946098822224A438018FFB2C0196D
:104F6000022140568021294180B2084205D03100FB
:104F700089B2200080B2FFF7D5FD641CA4B2684658
:104F80004088201A102804D1684640880400761C06
:104F900001E06D1CB8E77F1CB1E7684669460988E7
:104FA000491C018082E7A14843881C331BB29F48FB
:104FB0000088C21E12B21D210120C043FFF752FD1E
:104FC00005B0F0BDFCB583B004000E006846448017
:104FD0000B20694688800020694608806846008862
:104FE00069468988884276D29148694609884A226A
:104FF0004A43805C0A990978884266D18C486946A0
:1050000009884A224A43801840780A994978884298
:105010005BD1330017331BB22200173212B23100BA
:1050200009B2200000B2FFF71DFD00200700FFB20B
:10503000482F4ADA00200500EDB2082D43DA0BA80C
:105040000078002818D17A48694609884A224A43DC
:105050008018FFB2C019022140568021294180B238
:10506000084204D068468089FFF771FB29E0684652
:10507000008AFFF76CFB24E0684680891D490880A0
:105080006B48694609884A224A438018FFB2C01912
:10509000022140568021294180B2084205D03100CA
:1050A00089B2200080B2FFF73DFD641CA4B26846BF
:1050B0004088201A182804D1684640880400761CCD
:1050C00001E06D1CB8E77F1CB1E7684669460988B6
:1050D000491C018082E7554843881C331BB2534862
:1050E0000088C21E12B21D210120C043FFF7BAFC86
:1050F00005B0F0BDA000002034850000FCB583B0F1
:1051000004000E0068464480012069468880002023
:10511000694608806846008869468988884276D250
:10512000A0486946098882224A43805C0A99097826
:10513000884266D19B486946098882224A43801882
:1051400040780A99497888425BD133001F331BB2FB
:1051500022001F3212B2310009B2200000B2FFF764
:1051600081FC00200700FFB2802F4ADA00200500F2
:10517000EDB2082D43DA0BA80078002818D1894831
:105180006946098882224A438018FFB2C019022169
:1051900040568021294180B2084204D06846808967
:1051A000FFF7D5FA29E06846008AFFF7D0FA24E035
:1051B000684680891F4908807A48694609888222A2
:1051C0004A438018FFB2C01902214056802129416C
:1051D00080B2084205D0310089B2200080B2FFF7CA
:1051E000A1FC641CA4B268464088201A202804D17F
:1051F000684640880400761C01E06D1CB8E77F1CFF
:10520000B1E7684669460988491C018082E707487A
:1052100043881C331BB205480088C21E12B21D21F0
:105220000120C043FFF71EFC05B0F0BDCCEAFF1F14
:10523000187D0000A0000020FCB585B005000E0020
:105240000C9C0D9F6846C581002069460873207834
:10525000002800D1A4E06846007B002858D1894886
:1052600001880091FFB238000221FCF749FF009944
:10527000081AADB2A84206DB82484088FFB2C01BC4
:10528000B6B2B04200DA8BE02078812803DB01203F
:1052900069460873DBE720780D2806D1FFB2F619BE
:1052A0006846C0890500641C30E0FFB20C2F02D0B4
:1052B000FFB2102F18D10EA8007802903800C0B2AB
:1052C0000190207800906846038B6846828A3100FE
:1052D00089B2280080B2FFF719FDFFB23800022121
:1052E000FCF70EFF2D1811E00EA800780290102098
:1052F0000190207800906846038B6846828A3100CE
:1053000089B2280080B2FFF701FD0835641C9EE7D2
:105310005C480088FFB2C01BADB2A84206DB59480A
:105320004088FFB2C01BB6B2B04200DA38E00020BD
:1053300069460873FFB2202F0ED10EA800780190A5
:1053400000946846038B6846828A310089B228003F
:1053500080B2FFF7D3FE1FE0FFB2182F0ED10EA8C8
:105360000078019000946846038B6846828A310079
:1053700089B2280080B2FFF725FE0DE00EA8007864
:10538000019000946846038B6846828A310089B296
:10539000280080B2FFF77EFDA41CFFB2ED1956E78E
:1053A00007B0F0BDE0850000FDB50F00684600883D
:1053B000E92804DABFB2FF203230874200DB60E028
:1053C000684669460979203901713B0010331BB2E8
:1053D00068460288083212B2390009B2684600886D
:1053E00000B2FFF73FFB0020060030006946097A53
:1053F000C0B2884245D26846007A0C2809D12248BA
:10540000694609790C2251434018F6B2805D0500C7
:1054100008E01E4869460979102251434018F6B247
:10542000805D0500002004006846007A0221FCF738
:1054300067FEE4B2844222DAE8070ED56846008CA3
:1054400013490880F6B2B91989B268460088E4B2F7
:10545000001980B2FFF766FB0DE06846808C0C49AE
:105460000880F6B2B91989B268460088E4B200191A
:1054700080B2FFF757FBEDB26D08641CD4E7761CD1
:10548000B3E7F7BDCCEAFF1FF0700000006B00002F
:10549000A0000020FAB585B00500160037000024F2
:1054A000684605826846808A69464882002E2DD16A
:1054B0006846008F01906846808E00906846037EA3
:1054C00030226846818A280080B2FFF76DFF0835D8
:1054D00010206946C88168460CA90978491E08222F
:1054E000514381816846008F00906846808A6946F2
:1054F000898943189BB26846C0892A1892B26846C7
:10550000818A280080B2FFF71DFB5FE0002F06D0E4
:1055100038000A21FCF7F7FD0700641CF6E72000BD
:105520000CA90978C0B2884202D30CA80078040004
:10553000E4B22700E4B2002C24D06846E4B208218B
:105540006143691808390182641E6846008F019022
:105550006846808E00906846037E029330000A21E0
:10556000FCF7D1FD0A003032029BD2B26846418A74
:105570006846008AFFF718FF30000A21FCF7C3FDD8
:105580000600D7E70CA8007887421FD01020694694
:10559000C88168460CA909783A00891A0822514343
:1055A0008181ADB2082078432D186846008F0090A5
:1055B000684680892B189BB26846C0892A1892B227
:1055C0006846818A280080B2FFF7BCFA07B0F0BDB8
:1055D00070B504000D0016006DB2002D15D1E4B2B7
:1055E00020004011042148435F490858E4B22100DB
:1055F0004911042251435C4A515849690122E3068A
:10560000DB0E9A409143416142E0E4B22000401138
:105610000421484354490858E4B2210049110422A6
:105620005143514A515849690122E306DB0E9A4021
:105630000A434261F6B2002E15D1E4B220004011B7
:10564000042148434849085800680121E206D20E67
:1056500091408843E4B22100491104225143424A57
:105660005158086014E0E4B220004011042148437E
:105670003D49085801680120E206D20E90400843D7
:10568000E4B22100491104225143374A51580860BD
:10569000802149002000C0B2FDF782FC70BD38B502
:1056A00004000D00E4B220004011042148432E49BB
:1056B00008584069E106C90EC840C00703D46921F3
:1056C0002A48FDF7D9FCEDB2002D15D1E4B2200037
:1056D0004011042148432449085800680121E2068A
:1056E000D20E91408843E4B2210049110422514373
:1056F0001D4A5158086014E0E4B220004011042112
:1057000048431949085801680120E206D20E90402A
:105710000843E4B22100491104225143124A51586E
:10572000086031BD10B50400E4B22000401104212E
:1057300048430D4908584069E106C90EC840C007F2
:1057400003D592210948FDF797FCE4B220004011EF
:1057500004214843044908580169E006C00EC140CD
:105760000800C007C00F10BD54E6FF1F00870000EF
:1057700010B50400002C16D080204004844203D3CE
:1057800029210F48FDF778FC0E48002101600E48E2
:1057900004600E48002101600A48052101600948A3
:1057A0000068C003FBD510BD10B504002000441EE6
:1057B000002804D006480068FFF7DAFFF6E710BDBE
:1057C0006486000010E000E014E000E018E000E073
:1057D000340000200121C206D20E9140A64A116079
:1057E000704780B572B6A54800F082FCA4492E200F
:1057F00000F0A6FDA349102000F0A2FDA248016818
:105800000A204143002000F0B3FDA049262000F00B
:1058100097FD1620FFF7DEFF9D48FDF7A1F89D4993
:105820009D48FDF7A4F800F042F8FEF7E6FF9B481C
:10583000FFF7F6F8002201219820FFF7C9FE00F0DB
:105840008CF897480078002805D100F035F9944885
:1058500000780028F5D0934801789C2000F080FF64
:1058600091480078002803D08C48FFF7D9F802E06F
:105870008A48FFF7D5F887235B01322200210120F7
:10588000FDF7ACF90023FA22520000210220FDF7B7
:10589000A5F90023FA22520001210220FDF79EF90A
:1058A000002200210020FDF7DBFA62B601BD80B5C1
:1058B000002200212120FFF78BFE02212120FDF78D
:1058C00097FB002200212220FFF782FE02212220E6
:1058D000FDF78EFB002200212320FFF779FE022135
:1058E0002320FDF785FB002200212720FFF770FE13
:1058F00002212720FDF77CFB002200212820FFF752
:1059000067FE02212820FDF773FB002200212920D9
:10591000FFF75EFE02212920FDF76AFB002200212D
:105920002A20FFF755FE02212A20FDF761FB002205
:1059300000212B20FFF74CFE02212B20FDF758FB06
:10594000002000F09FFF012000F09CFF022000F0EB
:1059500099FF032000F096FF01BD80B52120FFF7DD
:10596000E1FE012803D101204F49087002E0002028
:105970004D4908702920FFF7D5FE01280BD12A20B8
:10598000FFF7D0FE012806D1012048490870002009
:105990004749087031E02920FFF7C4FE01280BD1E8
:1059A0002A20FFF7BFFE002806D102203F490870D9
:1059B00001203F49087020E02920FFF7B3FE0028AE
:1059C0000BD12A20FFF7AEFE002806D1032037496D
:1059D00008700220364908700FE02920FFF7A2FE68
:1059E00000280AD12A20FFF79DFE012805D10420B6
:1059F0002E49087003202E49087001BD38B5FF24D8
:105A00000025002000F074FF002802D100200400CF
:105A100016E0012000F06CFF002802D101200400F4
:105A20000EE0022000F064FF002802D102200400F2
:105A300006E0032000F05CFF002801D103200400F1
:105A4000E4B2FF2CDDD000201A490870200040B2DB
:105A500000F041FF002804D10120FFF7A5FE6D1CD6
:105A6000F4E7ADB2FF202E30854202DB022011495F
:105A700008702000C0B232BD00E100E0DCEAFF1F88
:105A80005D8200007F8200003C00002087820000D1
:105A9000F8FFFF1F2CE7FF1F14000020FFFF00008E
:105AA000C600002072E8FF1FC8000020A3000020ED
:105AB000A2000020C500002010B584B00024012001
:105AC000029010200190D7480090D74B002205216A
:105AD0000520FFF7B1FB0120029010200190D34870
:105AE0000090D14B002215210520FFF7A5FB0120D6
:105AF000029010200190CE480090CB4B002225212F
:105B00000520FFF799FB0120029010200190C94861
:105B10000090C54B002235210520FFF78DFBC648BC
:105B20000078012846D1C0480290F8200002019078
:105B3000032000901023C148027805216920FFF757
:105B4000A9FCB94802900020019003200090102386
:105B5000BB48BC49002289561022514342581521A6
:105B60006920FFF797FCB0480290002001900320C5
:105B700000901023B248B3490022895610225143A5
:105B80004018826825216920FFF784FCA64802900E
:105B900000200190032000901023A948A949002269
:105BA0008956102251434018C26835216920FFF7F9
:105BB00071FC9CE1A0480078022846D19A480290E6
:105BC000002001900320009010239C4802780521BA
:105BD0006920FFF75FFC94480290F82000020190D2
:105BE00003200090102396489649002289561022DF
:105BF0005143425815216920FFF74CFC8A48029016
:105C0000002001900320009010238D488D49002230
:105C10008956102251434018826825216920FFF7D8
:105C200039FC81480290002001900320009010234D
:105C30008348844900228956102251434018C26883
:105C400035216920FFF726FC51E17B4800780328C5
:105C500046D1754802900020019003200090102347
:105C60007648027805216920FFF714FC6E480290FF
:105C700000200190032000901023714871490022F8
:105C8000895610225143425815216920FFF702FC22
:105C900065480290F8200002019003200090102334
:105CA000674868490022895610225143401882688B
:105CB00025216920FFF7EEFB5B4802900020019050
:105CC0000320009010235E485E490022895610226E
:105CD00051434018C26835216920FFF7DBFB06E11C
:105CE00055480078042846D14F4802900020019082
:105CF0000320009010235148027805216920FFF706
:105D0000C9FB494802900020019003200090102315
:105D10004B484C49002289561022514342581521C4
:105D20006920FFF7B7FB4048029000200190032054
:105D300000901023424843490022895610225143C3
:105D40004018826825216920FFF7A4FB364802909D
:105D5000F8200002019003200090102338483949B0
:105D600000228956102251434018C268352169200B
:105D7000FFF790FBBBE030480078052864D12A4843
:105D80000290002001900320009010232B480278FD
:105D900005216920FFF77EFB234802900020019037
:105DA00003200090102326482649002289561022FD
:105DB0005143425815216920FFF76CFB1A480290A5
:105DC000002001900320009010231D481D4900224F
:105DD0008956102251434018826825216920FFF717
:105DE00059FB1148029000200190032000901023DD
:105DF0001348144900228956102251434018C268A2
:105E000035216920FFF746FB012002901020019008
:105E10008B480090044BF822120246211E20FFF707
:105E20000BFA64E0288A0000FFFF0000388A0000B7
:105E3000488A0000588A0000C700002072E8FF1F4F
:105E4000CCE6FF1FA20000207E48029000200190B7
:105E50000320009010237C48027805216920FFF779
:105E600019FB784802900020019003200090102335
:105E7000764877490022895610225143425815210D
:105E80006920FFF707FB6F48029000200190032074
