:10000000F85F0020110400009D4000009D400000AA
:100010009D4000009D4000009D4000009D4000006C
:100020009D4000009D4000009D4000009D4000005C
:100030009D4000009D4000009D4000009D4000004C
:100040009D4000009D4000009D4000009D4000003C
:10040000FFFFFFFFFFFFFFFFFFFFFFFFFEFFFFFFFD
:1004100062B606F0E9FFFEE700B5BB480078104978
:10042000085C10490870B8480078401CB64908704C
:100430000C480078002801D1012000E000200A4982
:1004400008700A4801210170094801210170AE4875
:100450000078042802DBAC480021017000BD0000D8
:1004600004EBFF1F06010020070100200A01002005
:100470000501002070B586B00500A4480021017078
:10048000A34800210170A34800210170A248002167
:100490000170A24800210170280000F017FF06003B
:1004A000F6B2002E05D19E480078401C9C49087089
:1004B00027E197480078002803D196480078002863
:1004C00002D0A3483C2101703B200400E4B2052C7B
:1004D00000DA7FE0A41EE4B250206043E4B29D49FC
:1004E000091989784018285C002801D1A41C71E002
:1004F000994804909948039099480290994801902E
:100500004F2000900123E4B292480019827829001C
:100510002000C0B201F0BCF8E4B29348005D8C4901
:10052000097888422CD391480078002814D0E4B28E
:100530008A48E4B28B49095D01554F220021E4B29B
:100540008648005DE4B28A4B1B5DC01802F0A2F839
:10055000E4B28149085513E0E4B27F48E4B280492F
:10056000095D01554F220021E4B27D48005DE4B2EF
:100570007F4B1B5DC01A02F08DF8E4B27749085535
:10058000E4B27548005DE4B27449095D4018022187
:1005900002F0B4F8E4B26F490855E4B26E48005D69
:1005A000E4B26E49095D401AE4B272490855E4B2FA
:1005B0007048005D66490978884204D2E4B26D480B
:1005C000005D63490870E4B26A48005D072800DBFB
:1005D0007CE7A41C4D4804703D200400E4B24B4865
:1005E0000078801C84421FDBA41EE4B250206043CC
:1005F000E4B25A49095D4018281800218170E4B21C
:1006000050206043E4B25449095D40182818801E08
:1006100000210170E4B250206043E4B24D49095D0D
:10062000401800212954D9E750480078002834D0D8
:100630005148007800281AD050480078012802D18B
:100640004E48022101704D480078032859D12F48A7
:10065000007842490818007949490978884250D2FF
:1006600046480421017047480521017049E043488C
:100670000078022802D14148032101703F480078E8
:1006800004283ED13F48007800283AD13B48002159
:1006900001703D480021017033E03C48007800289B
:1006A0001AD036480078012802D13448022101705E
:1006B00032480078032824D1354800781349097856
:1006C000254A5118097988421BD22C48042101700F
:1006D0002C480521017014E028480078022802D136
:1006E00026480321017025480078042809D12548AF
:1006F0000078002805D121480021017022480021FE
:10070000017006B070BD000008010020F700002055
:10071000F8000020F9000020FA000020FB00002073
:10072000F60000201B48282101701B4801210170A0
:100730001A484F2101701A480121017019484F21B0
:10074000017019484E21017018484E210170704700
:10075000F40000203CE9FF1FBCE9FF1F7CE9FF1FFC
:10076000FCE8FF1FBCE8FF1F7CEAFF1F060100201A
:1007700020E4FF1FBCEAFF1F77EAFF1F0A010020E9
:10078000B7E9FF1F090100200501002037EAFF1F1C
:10079000F7E9FF1F79E9FF1FF9E8FF1F39E9FF1F9C
:1007A000B9E9FF1FF9E9FF1FB9EAFF1FF9EAFF1FC7
:1007B000F0B587B00600814800210170AC480021E7
:1007C00001707F4800210170AA48002101707D4816
:1007D000002101707C48002101707C4800210170DB
:1007E0007B48002101707B48002101707A4800217C
:1007F00001707A4800210170300000F067FD694601
:1008000048756846407D002804D175480121017073
:1008100000F04AFC72480021017068483B210170D9
:100820003B200400E4B20A2C01DA00F010FCA41E04
:10083000E4B250206043E4B26A490919897840184B
:10084000305C002861D1E4B2B348001980781F28D9
:100850005ADBE4B26348001980781F2854DBE4B205
:1008600060480019807832284EDAE4B2322C4BDA34
:10087000E4B2AA4800198078002845D0E4B25A486A
:100880000019807800283FD05148007851490978F4
:10089000884204D368464E490978017503E06846EA
:1008A0004C49097801756846007D9B49085CE4B2B3
:1008B000994909198978884226D2E4B296480019E4
:1008C0008078E4B2944909190979401A0B281BDA97
:1008D000E4B2BF4800190079E4B2BD49091989782A
:1008E000401A062810DAE4B2BA4800198078E4B257
:1008F000B84909190979401A062805DAB648007876
:10090000002801D0FFF788FDA1E3B4480490B44863
:100910000390B0480290AE4801904F200090012310
:10092000E4B230480019827831002000C0B200F0F3
:10093000AFFEE4B27848005D052862DAE4B2292C03
:100940005FDBA8480021405624285ADBA548002137
:1009500040562D2855DAE4B29D48001980780500EC
:10096000E4B29C4800198078EDB285423ED214482A
:100970000078002812D1E4B250206043EDB2401953
:100980003018A0380078002815D139480078401C6C
:10099000374908700A48012101700CE0E4B2502088
:1009A0006043EDB240193018A0380078002802D01A
:1009B0000348002101706D1CD2E700BFF700002042
:1009C00004010020FC000020FD000020FE000020AB
:1009D000F8000020F9000020FA000020FB000020B1
:1009E000F60000203CE9FF1FFCE9FF1F20480078CB
:1009F000042806DB1E4800780F2802DA1D48012172
:100A00000170E4B2392C00DBB2E1E4B21F2C00DA51
:100A1000AEE1E4B24048005D322800DBA8E16E4858
:100A20000078002800D1A3E112480078002800D007
:100A30009EE1E4B2694800198078E4B26749095D33
:100A4000401A042800DBCFE0E4B265480019807842
:100A5000801DE4B26249095D884200DBC4E0C348FE
:100A60000078002800D0BFE0E4B22C4804E000BFCA
:100A70000301002002010020005D002800D0B3E047
:100A8000E4B25748001980780500EDB2E4B254484A
:100A9000005D401E85422EDAE4B250206043EDB284
:100AA00040193018A038007800280CD0E4B250204B
:100AB0006043EDB2401930189C380078002802D10C
:100AC000CB48057015E0E4B250206043EDB2401908
:100AD0003018F038007800280BD0E4B25020604382
:100AE000EDB240193018EC380078002801D1C04828
:100AF00005706D1CC9E7BE480078002800D137E1B9
:100B0000E4B23748005DBA490978401A052800DA8E
:100B10002EE1E4B2324803E07CEAFF1F3CEAFF1F0B
:100B2000005DB34909784018022101F0E7FDB049A2
:100B300008702500E4B220001E38EDB2A84200DBA8
:100B400016E1EDB250206843A94909784018305C9D
:100B500000283BD0EDB250206843A54909784018E1
:100B6000301850380078002830D0EDB2502068435B
:100B70009F49097840183018A0380078002825D0FF
:100B8000E4B250206043E4B21549095D40183018C2
:100B90009F380078002819D0E4B250206043E4B2B6
:100BA0000F49095D401830189D38007800280DD095
:100BB000E4B250206043E4B20949095D401830189E
:100BC0009B380078002801D0CB4804706D1EB1E737
:100BD000BCE8FF1FFCE8FF1FF0000020BCE9FF1F7E
:100BE0007CE9FF1FA4E4FF1FE4B2C448005DE4B247
:100BF000C24909198978401A042800DBB8E0E4B238
:100C0000CD48005DE4B2CC4909198978891F884232
:100C100000DBADE0C9480078002800D0A8E0E4B2CD
:100C2000C748005D002800D0A2E0E4B2C248001925
:100C300080780500E4B2C048005D401CEDB2A842D7
:100C40002EDAE4B250206043EDB240193018A038DB
:100C5000007800280CD0E4B250206043EDB2401977
:100C60003018A4380078002802D16148057015E0DA
:100C7000E4B250206043EDB240193018F0380078EB
:100C800000280BD0E4B250206043EDB24019301878
:100C9000F4380078002801D1554805706D1EC9E769
:100CA00053480078002863D051480078E4B2A24944
:100CB000095D401A05285BDBE4B29F48005D4C49A2
:100CC00009784018022101F019FD494908702500F2
:100CD000E4B220001E38EDB2A84249DAEDB250204D
:100CE0006843434909784018305C00283BD0EDB296
:100CF000502068433E490978401830185038007831
:100D0000002830D0EDB250206843394909784018A6
:100D10003018A0380078002825D0E4B25020604375
:100D2000E4B28549095D40183018A13800780028E0
:100D300019D0E4B250206043E4B27F49095D401805
:100D40003018A338007800280DD0E4B2502060435A
:100D5000E4B27949095D40183018A53800780028B8
:100D600001D09D4804706D1EB2E700BFF80000205E
:100D7000E4B29A48005DCD490978891C884247DB76
:100D8000E4B26F480019807800280ED0E4B2C84859
:100D9000005DE4B2594909198978491E884212DA7E
:100DA000E4B26748012101550DE0E4B2C048005D9E
:100DB000E4B2BF4909198978491E884203DAE4B2CE
:100DC0005F4801210155E4B2BA4800198078002833
:100DD00010D0E4B2584800198078401CE4B2B649FB
:100DE000095D884214DAE4B2B248012101550FE0EE
:100DF000FE000020E4B2B04800198078401CE4B244
:100E0000AD49095D884203DAE4B2AA4801210155DF
:100E1000E4B24B48005D002832D0E4B2372C14DB3A
:100E2000E4B2364800198078E4B234490855A34842
:100E300035210170A24800210160E4B22F48005D15
:100E400001F0C2FC9F49086039E09C480078002806
:100E50000AD19A480470294B98480278121DD2B2E0
:100E60009849974800F057F99648026894480168F5
:100E70002000C0B200F00CFAE4B2204908551EE090
:100E80009148007800281AD18C480078002816D0A4
:100E9000E4B28748025DE4B2854800198178E4B283
:100EA00083480019007900F02BF901F081FC07005C
:100EB0003800864901F0ACFC01D283480470E4B2EA
:100EC0007C48005D00283DD0E4B2372C18DBE4B24A
:100ED000194800198078E4B2174908551748352198
:100EE00001707B4800210160E4B21348005D01F00D
:100EF0006BFC7849086044E0FC0000207CE9FF1F9F
:100F00000E48007800280AD10C4804700A4B0B48A0
:100F10000278121DD2B26F496D4800F0FCF86D489E
:100F200002686B4801682000C0B200F0B1F9E4B279
:100F30000149085525E000BFBCE9FF1FF90000206A
:100F4000FCE9FF1F6448007800281AD16348007844
:100F5000002816D0E4B25848025DE4B256480019A1
:100F60008178E4B254480019007900F0C9F801F022
:100F70001FFC070038005A4901F05EFC01D85648B2
:100F80000470E4B25748005DE4B25749095D401A65
:100F9000E4B25649085556480078002820D0474802
:100FA000007800281CD048480078002818D1514803
:100FB0000078002814D049480078002810D046480E
:100FC000007800280CD1E4B24B4800198078E4B2D4
:100FD0004949085511E000BFFD0000207CEAFF1FD1
:100FE000E4B24048005DE4B23F49095D4018022187
:100FF00001F084FBE4B240490855E4B23B48005D8F
:101000002A490978884204D2E4B23848005D274969
:1010100008705D4804702C480078002801D1FFF763
:1010200001FC2D480078002801D1FFF7FBFBE4B25A
:101030003248005D002806D1E4B21E48005D002859
:1010400001D1FFF7EFFB2000801C4F4908701B48BF
:101050000078002823D02148007800281FD01A48A3
:10106000007800280BD0254801901F480090104BB5
:101070003200154801781148007800F0A7FB1648A7
:10108000007800280BD00B480190164800900A4BBE
:101090003200114801781148007800F097FB3100C8
:1010A0003948007800F04EFC07B0F0BDF400002095
:1010B000BCE8FF1F3CEAFF1FFCE8FF1FF800002010
:1010C000FCEAFF1F9CE4FF1FFA000020FFFF3FC067
:1010D00000EBFF1FA0E4FF1FFB000020F900002031
:1010E00000004040BCE9FF1F7CE9FF1FBCEAFF1F76
:1010F00037EAFF1F77EAFF1F3CE9FF1FFCE9FF1FEC
:1011000070B40300CE1A3400561A35002E1B30007E
:1011100040B270BC7047F3B581B014001D00E4B25A
:1011200028190079E4B2295D401A01F099FB0022E8
:10113000554B01F0AFFB0022544B01F06DFC01F068
:10114000CCFC01990860E4B2285D01F093FB002219
:101150004D4B01F09FFB06000F00E4B2200001F0B0
:1011600033FB01000198006801F0E8FC01F040FD4C
:1011700002000B003000390001F0B6FD01F0ADFCBB
:1011800002990860F7BD0000F7000020F2B582B0B8
:10119000070016001C00089D09A80078012839D115
:1011A000F6B2A85D1430E4B2295D401A01F058FB94
:1011B0000022354B01F06EFB00900191F6B2E4B2D3
:1011C000301B01F04DFB02000B000098019901F06B
:1011D00023FC01F082FC3860E4B2285D01F04AFB98
:1011E0000022294B01F056FB00900191E4B220004F
:1011F00001F0EAFA396801F0A1FC01F0F9FC020003
:101200000B000098019901F06FFD01F066FC029956
:10121000086038E0F6B2A85D1438E4B2295D401ADF
:1012200001F01EFB0022184B01F034FB00900191ED
:10123000F6B2E4B2301B01F013FB02000B00009881
:10124000019901F0E9FB01F048FC3860E4B2285D47
:1012500001F010FB00220C4B01F01CFB00900191EF
:10126000E4B2200001F0B0FA396801F067FC01F047
:10127000BFFC02000B000098019901F035FD01F060
:101280002CFC02990860F7BD0000F03F0000104000
:10129000FEB507000E001500FFB2380001F094FA09
:1012A000310001F04BFC290001F095FD02904F2226
:1012B000012100910192029801F01EFE019A00990D
:1012C00001F0E8F904002000C0B2FEBDF0B587B01F
:1012D0000500FFF727FA3B200400E4B250206043EA
:1012E000AF4909784018285C002834D14F2000907D
:1012F000012305AA521C29002000C0B200F079F891
:1013000007004F200090012305AA29002000C0B249
:1013100000F0B7F80600FFB2F6B2B7420AD3FFB248
:10132000002F07D09F4BA04A29002000C0B200F038
:10133000EEF824E0FFB2F6B2B7420AD2F6B2002EBF
:1013400007D0984B984A29002000C0B200F046F917
:1013500015E000204BE09548049095480390914893
:101360000290914801904F2000900123E4B29148EF
:101370000019827829002000C0B200F089F98E4857
:101380008E49097801708E488E49097801708E481F
:101390008E49097801708E488E49097801708E480F
:1013A0000078002808D0B3480078002804D0B2485C
:1013B0007B49097801700DE0824800787F490978FF
:1013C0004018022101F09AF9AB4908707448AA4903
:1013D00009780170A948AA4909780170A948AA4961
:1013E00009780170A8480078A8490870012007B062
:1013F000F0BDFEB504000D00002768466946097A75
:101400004170684608A9097801706846007A0600AC
:1014100008A80078F6B2B0421DD3FFB2002F0CD15D
:10142000E4B250206043F6B28019285C002810D046
:1014300068464670012007000BE0E4B2502060438C
:10144000F6B28019285C002803D16846711E01702D
:1014500001E0761CDCE7FFB2002F01D100200FE095
:1014600068460078694649784018022101F046F93B
:10147000019908706846007869464978401AC0B2F8
:10148000FEBDFDB581B00C00002568466946097BAC
:10149000017009A8067809A8007807006846007B53
:1014A000FFB287421FD3EDB2002D0CD16846007900
:1014B00050214843FFB2C019205C002811D03E00E3
:1014C000012005000DE06846007950214843FFB235
:1014D000C019205C002804D169463800401C0870FF
:1014E00001E07F1EDAE7EDB2002D01D100200CE013
:1014F000F6B2684600783018022101F0FFF8029930
:10150000087068460078301AC0B204B0F0BDF0B57B
:1015100004000020E4B201261655E4B24F261E5501
:1015200001263500EDB2502D1DDAC0B200280CD1D5
:10153000E4B250266643EDB276198E5D002E10D0CF
:10154000E4B21555012630000BE0E4B250266643A4
:10155000EDB276198E5D002E03D1E4B26E1E1E55DB
:1015600001E06D1CDEE7C0B2002817D0E4B2165DC2
:10157000E4B20F4F3E55E4B21E5DE4B20B4F3E5550
:10158000E4B21E5DE4B2175DF61BE4B28D4F3E552A
:10159000E4B28D4EE4B28B4F3F5D3755C0B2F0BD23
:1015A00079E9FF1FFCE8FF1FBCE8FF1FBCE9FF1F34
:1015B0007CE9FF1F3CE9FF1FF9E8FF1FF7E8FF1F69
:1015C00039E9FF1F37E9FF1FB9E9FF1FB7E9FF1F1F
:1015D000F9E9FF1FF7E9FF1F37EAFF1FF0B5050024
:1015E0000C000020EDB201215155EDB24F215955AB
:1015F0004F210E00F6B2002E1ED0C0B200280CD132
:10160000EDB250216943F6B28919615C002911D00D
:10161000EDB25E55012108000CE0EDB250216943A6
:10162000F6B28919615C002904D1EDB23100491C80
:10163000515501E0761EDDE7C0B2002817D0EDB2AB
:10164000515DEDB2B84F7955EDB2595DEDB2B74F7E
:101650007955EDB2595DEDB2575DC91BEDB2B44F8E
:101660007955EDB25849EDB2B14F7F5D4F55C0B2DB
:10167000F0BD000077EAFF1F77E9FF1FB9EAFF1FFF
:10168000B7EAFF1FF9EAFF1FF7EAFF1FF400002087
:10169000F4B50200099C0A9DD2B2A64801278754DE
:1016A000D2B2A54801278754D2B208986F463F7E30
:1016B0008754D2B207988354684600780600F6B281
:1016C000DBB21800401C86421DDBD2B250205043D2
:1016D000F6B28019085C002813D1D2B250205043D2
:1016E000F6B280190818401E0078002809D1D2B23D
:1016F000904800278754D2B207988654D2B2A65495
:1017000001E0761EDBE76846007806006846007E4A
:10171000401EF6B2B0421CDBD2B250205043F6B2AB
:101720008019085C002812D1D2B250205043F6B282
:10173000801908184078002809D1D2B27E480027C5
:101740008754D2B208988654D2B2AE5401E0761CC7
:10175000DCE7D2B27748805C00280DD0D2B2372ABD
:1017600005DBD2B207983B300078A05404E0D2B237
:10177000A0188078D2B2A054D2B26F48805C002802
:101780000DD0D2B2372A05DBD2B208983B300078B0
:10179000A85404E0D2B2A8188078D2B2A854D2B229
:1017A0000898805CD2B2079FBF5CC01BD2B2054FC5
:1017B000B854D2B2A85CD2B2A75CC01BD2B2024F5E
:1017C000B854F1BD7CEAFF1FBCEAFF1FFCB585B031
:1017D00005000E000C9FEDB2372D02DB3B2005000B
:1017E00000E02D1D0D983B300078002842D0F6B265
:1017F00052480078001D86423CDB3B200500F6B2D3
:10180000B819001F0078F6B2B95D401A01F028F847
:1018100000224B4B01F03EF800900191F6B2301FD0
:10182000F6B2801B01F01CF802000B000098019931
:1018300001F0F2F801F051F90290F6B2B85D01F052
:1018400019F800223E4B01F025F800900191F6B204
:10185000300000F0B9FF029901F070F901F0C8F909
:1018600002000B000098019901F03EFA01F035F9F1
:10187000039036E0EDB2785DF6B2B95D401A00F043
:10188000EFFF00222E4B01F005F800900191EDB220
:10189000F6B2A81B00F0E4FF02000B0000980199CB
:1018A00001F0BAF801F019F90290EDB2785D00F09C
:1018B000E1FF0022224B00F0EDFF00900191EDB21C
:1018C000280000F081FF029901F038F901F090F949
:1018D00002000B000098019901F006FA01F0FDF8F2
:1018E00003903400EDB2E4B2A5421BD3A41CE4B2D1
:1018F000200000F069FF0100029801F01FF90100CB
:10190000039801F068FA04904F220121009101929E
:10191000049801F0F1FA019A009900F0BBFEE4B2DC
:101920003855DFE707B0F0BD7CE9FF1FBCE9FF1FBA
:101930007CEAFF1FFCE9FF1F3CEAFF1FF7000020C5
:101940000000F03FF2B582B00700C6480078C649F3
:101950000870C6480078C64908703D200400E4B20B
:10196000FFB23800801C844200DA5DE1A41EE4B2BC
:10197000C048005D00281CD0E4B2BF48005D0028CC
:1019800017D0E4B2BD48005DE4B2BD49095D40181E
:10199000022100F0B3FEE4B2BA490855E4B2B748F8
:1019A000005DE4B2B649095D401AE4B2B649085593
:1019B000A0E0E4B2AF48005D00284BD0E4B2B048EC
:1019C000005D01282DD1B1480078002829D1E4B26A
:1019D000AA48015D0091E4B2AB4800198078022169
:1019E00000F08CFE0099091A0091E4B2A348001996
:1019F0008078E4B2A149095D401A022100F07EFE20
:101A0000009908180600E4B29C48005D801B022182
:101A10004843E4B29C49085576B2012E16DAA41C5C
:101A200002E1E4B29548005DE4B29549095D4018D1
:101A3000022100F063FE0600E4B29048005DE4B2CB
:101A40008F49095D401AE4B28F490855E4B28D48C8
:101A500006554FE0E4B28848005D00284AD0E4B261
:101A60008648005D4F282DD189480078002829D16B
:101A7000E4B28348015D0091E4B2834800198078A4
:101A8000022100F03BFE009909180091E4B27C4865
:101A9000005DE4B27A4909198978401A022100F000
:101AA0002DFE0099081A0600E4B27548005D301A50
:101AB00002214843E4B27449085576B2502E16DB31
:101AC000A41CB1E0E4B26D48005DE4B26C49095D6C
:101AD0004018022100F012FE0600E4B26748005DE3
:101AE000E4B26749095D401AE4B267490855E4B2B7
:101AF000644806556748007800282BD001200190E3
:101B000065480090634803783B22A849A848FFF73E
:101B10003DFB3B2005005F480078EDB2854219D3BC
:101B2000A2480268A24801682800C0B2FFF7B0FBD3
:101B3000EDB253494855EDB25048405DEDB25049C1
:101B4000495D4018022100F0D9FDEDB24D494855DC
:101B50006D1EE0E79748007800282BD00220019006
:101B600095480090934803783B2294499448FFF7A6
:101B70000DFB3B2005008F480078EDB2854219D35C
:101B80008E4802688E4801682800C0B2FFF780FBCB
:101B9000EDB23A494855EDB23848405DEDB23849AA
:101BA000495D4018022100F0A9FDEDB235494855C4
:101BB0006D1EE0E72C480078E4B23149095D8842A7
:101BC00004D2E4B22E48005D27490870E4B22B48E5
:101BD000005D27490978884204D2E4B22748005DB5
:101BE00023490870E4B250206043E4B22449095DFF
:101BF00040180299081800218170E4B25020604317
:101C0000E4B21E49095D401802990818801E00219F
:101C10000170E4B250206043E4B21A49095D4018F3
:101C2000029900220A549AE66C486D4909780170BD
:101C30006C48047015480078002806D0104B1348F3
:101C400002785A495A48FFF766FA11480078002886
:101C500006D00A4B0E48027858495948FFF75BFAFC
:101C6000F7BD0000B7E9FF1F00010020F7E9FF1FE3
:101C700001010020FCE9FF1F3CEAFF1FBCE9FF1F38
:101C80007CE9FF1F3CE9FF1FBCEAFF1FFA000020B0
:101C9000FB000020FC000020BCE8FF1FFEB5002672
:101CA000002451480078002803D14E480078392894
:101CB00009DB5248007807004D480078002802D020
:101CC0004C48012101704948007800280AD04B484F
:101CD0000078070046480078002843D04548012195
:101CE00001703FE03F480078152802DA3D48152191
:101CF00001703D200500EDB23A480078801C854215
:101D000013DBAD1EEDB23E48405DEDB269423A4A8A
:101D100051183B31097848433618EDB268423649CC
:101D200008183B3000782418E5E74E220221009184
:101D300001923000210000F0E1FC019A009900F0CE
:101D4000A9FC07004E220221FFB2380000F0A2FCDD
:101D500007002A480770684622490978284A51181E
:101D60008978017228216846007A00F02BF840B289
:101D700000F076FD23A20CCA00F08CFD00900191CA
:101D800028213800C0B200F01DF800F069FD1FA244
:101D90000CCA00F07FFD009A019B00F042FF01F0A9
:101DA000C9F81C4908703800C0B2FEBD9CE4FF1F92
:101DB000FCEAFF1FFD000020FCE8FF1FA0E4FF1F5E
:101DC00000EBFF1F00B50300CA1A100040B2012843
:101DD00002DA020052B2504240B200BD79E9FF1F60
:101DE00077E9FF1FF7000020F60000200201002025
:101DF000F0000020EE00002060E4FF1FA4E4FF1FBD
:101E00003CE9FF1F9A9999999999E93F9A9999996B
:101E10009999C93FF500002010B5040006480078E4
:101E2000002803D12000FEF7C3FC02E02000FEF7EB
:101E300021FB10BD000000000501002000B5204876
:101E40000021405E00280ED11E48007800280AD1EB
:101E50001D480078002806D11A48012101701B484E
:101E600080681B4908701A480021405600280DD18F
:101E700014480078002809D016480078002805D1B9
:101E80001448012101701448012101700E480078A6
:101E9000002813D00B48007800280FD00F480021ED
:101EA0004056002802D10D48142101700B48002132
:101EB00040560F2802D103480021017000BD0000E8
:101EC0001EE4FF1FEF000020EE00002010E4FF1FC3
:101ED000F1000020F0000020F3000020F2000020BC
:101EE00000B5A14800214056012866D19F480078DE
:101EF000002804D09E489F490968018054E0A24808
:101F00000078012804D19B484068994908804BE03B
:101F100099480078122804DB9548B42149000180D3
:101F200042E095480078102804DB9148FF216E318B
:101F3000018039E0904800780E2804DB8C48B921F4
:101F40004900018030E08C4800780C2804DB884888
:101F5000BB214900018027E0874800780A2804DB7C
:101F60008348BD21490001801EE08348007808288D
:101F700004DB7F48BF214900018015E07E480078DE
:101F8000052804DB7A48C121490001800CE07A4829
:101F90000078022804DB7648C3214900018003E071
:101FA0007348C82149000180A548A6490160A64898
:101FB000A4490160A548002101706B4800214056EA
:101FC00002285DD169480078002804D06848694932
:101FD000096801804BE06C480078012804D165480D
:101FE00040686349088042E063480078122804DBB7
:101FF0005F48FF216E31018039E05F48007810288A
:1020000004DB5B48B9214900018030E05A48007880
:102010000E2804DB5648BB214900018027E05648C2
:1020200000780C2804DB5248BD21490001801EE0E5
:10203000514800780A2804DB4D48BF21490001803F
:1020400015E04D480078082804DB4948C1214900C3
:1020500001800CE048480078052804DB4448C3218F
:102060004900018003E04248C821490001807448CA
:102070007749016074487649016074480121017014
:1020800039480021405603285FD13848007800289D
:1020900004D037483749096801804BE03A48007856
:1020A000012804D1334840683149088042E0324871
:1020B0000078122804DB2E48B9214900018039E05C
:1020C0002D480078102804DB2948FF217831018051
:1020D00030E0294800780E2804DB2548BE2149005D
:1020E000018027E0244800780C2804DB2048FF21E9
:1020F000823101801EE0204800780A2804DB1C4859
:10210000C3214900018015E01B480078082804DB42
:102110001748FF218C3101800CE017480078052812
:1021200004DB1348C8214900018003E01048CD2199
:10213000490001804248FD21890501604248FD2196
:10214000890501604148022101700748002140567D
:1021500004286DD10548007800280FD004480549AF
:102160000968018059E000BFEB0000200501002054
:10217000E000002010E4FF1FF50000200248007876
:10218000012807D1334801E0ED00002040683249C2
:10219000088042E031480078122804DB2E48FF21F5
:1021A0007831018039E02D480078102804DB2A4876
:1021B000FF218231018030E0284800780E2804DBBE
:1021C0002548C3214900018027E0244800780C28D5
:1021D00004DB2148FF218C3101801EE01F4800787C
:1021E0000A2804DB1C48C8214900018015E01B486F
:1021F0000078082804DB1848FF21963101800CE0A4
:1022000016480078052804DB1348CD2149000180D9
:1022100003E01148D221490001800948FD218905C8
:1022200001600948FD21890501600848032101700A
:102230000B480078002802D107480021018000BD2A
:10224000B4E8FF1F9A99193FB8E8FF1FEA00002081
:102250003333333F10E4FF1FE0000020F50000207F
:10226000EF00002070B587204001C1490968401A7D
:10227000C0490860FFF7E2FD03210C2000F020FFB9
:102280000500ADB2BC4868438021490200F036FA2F
:102290000400A4B2B94884420BDBA4B2B84884421B
:1022A00007DAB8480078072803DAB7480121017037
:1022B00002E0B54800210170B348007801F07DFAD2
:1022C000FFF70EFEAB480068012851DBA948006803
:1022D0002D21484300F0C4FA0022CB4B00F0DAFA7B
:1022E0000022CA4B00F098FB00F024FEC849088089
:1022F000C7480021405E2E2802DBC5482D21018001
:10230000C3480021405E002802D5C1480021018059
:10231000C0480021405E00F04BFABF490860BD484C
:102320000021405E00F044FA0600BA480021405EF9
:102330002D2100F0E3F9B6490022895E484300F000
:1023400037FAB649096800F0F9FB0100300000F0E7
:102350007AFDB3490860B048006800F0CDFDB1498E
:102360000880AF48006800F0C7FDAF49088051E021
:102370008048016848422D21484300F071FA00224C
:10238000A14B00F087FA0022A84B00F045FB00F0BB
:10239000D1FD9F4908809E480021405E2E2802DB27
:1023A0009B482D2101809A480021405E002802D5DB
:1023B00097480021018097480021405E00F0F8F91D
:1023C000060094480021405E2D2100F097F99049C5
:1023D0000022895E484300F0EBF9AD49096800F03E
:1023E000ADFB0100300000F02EFD8B4908608948EC
:1023F0000021405E00F0DCF98949086086480068E9
:1024000000F07AFD874908808548006800F074FD77
:1024100085490880A5480068332815DAA448007863
:10242000002811D0A348007800280DD101213720C1
:1024300001F03DFA00220221002001F0DBFB002226
:102440000321002001F0D6FB9B480068332811DAF5
:102450009748007800280DD096480078002809D1C8
:1024600000220121002001F0C5FB002200210020F4
:1024700001F0C0FB6B480021425E8C4801688F4828
:1024800001F043FD8E49096808188D4908606648C7
:102490000021425E884801688A4801F036FD8A4979
:1024A00009680818884908608248007800280ED119
:1024B0007F48007800280AD100220221002001F084
:1024C00099FB00220321002001F094FB3CE07948B5
:1024D0000078002818D07A480068012814DBE1222F
:1024E000920000217648006800F0D4F87449086032
:1024F00000220221002001F07DFB714802680321C7
:10250000002001F077FB1FE06D480068002807D429
:1025100067480078002817D066480078002813D153
:1025200000226A496648006800F0B4F8644908600F
:102530006348006842420221002001F05BFB002258
:102540000321002001F056FB5A48007800281DD1D5
:1025500057480078002819D100220121002001F0FD
:1025600049FB00220021002001F044FB4BE000BFAA
:10257000A8E4FF1FB0E8FF1FE40C00001A040000ED
:10258000B1040000F5000020ED000020494800786B
:10259000002818D04C480068012814DBE122920082
:1025A00000214948006800F075F84749086000229A
:1025B0000121002001F01EFB434802680021002099
:1025C00001F018FB1FE040480068012807DB38488D
:1025D0000078002817D037480078002813D100224F
:1025E0003A493948006800F055F8374908603648DC
:1025F000006842420121002001F0FCFA0022002183
:10260000002001F0F7FA70BD0000F03F0060784054
:10261000E6000020E0000020A8E8FF1FB4E8FF1F4C
:10262000ACE8FF1FE2000020E400002000407A40F8
:1026300080B501F0FAFC1D49086001F0FDFC0120A5
:1026400001F0DFFB1C490860012001F0D2FB1748B4
:102650000068FF219231884204DB1448C8214900F8
:10266000016003E0114811490968016012480068DF
:10267000FF219231884204DB0F48C82149000160E4
:1026800003E00D480C4909680160FFF7EBFD01BD4F
:10269000B8E8FF1F00B50300934201DB100004E01F
:1026A000994201DB080000E0180000BDA0E8FF1F10
:1026B000EE000020EF000020A4E8FF1F40000020F3
:1026C00098E8FF1F5C0000209CE8FF1F0CFEFFFF46
:1026D000F446002804D4494200F013F84042604711
:1026E0004042002905D45FD000F00BF84042494237
:1026F0006047494200F005F84942604703460B43F2
:10270000E6D40022030A8B420BD203098B4219D272
:1027100043088B422ED2411A00D201465241104644
:102720007047FF2209023FD012068B4205D31212D6
:1027300009028B4201D31212090203098B4219D3F9
:1027400000E0090AC3098B4201D3CB01C01A5241F0
:1027500083098B4201D38B01C01A524143098B423A
:1027600001D34B01C01A524103098B4201D30B0123
:10277000C01A5241C3088B4201D3CB00C01A524148
:1027800083088B4201D38B00C01A524143088B420D
:1027900001D34B00C01A5241884200D3401A524123
:1027A000CFD201461046704708B501F061FC08BD64
:1027B0009D2102000AD5F446524200F007F801229A
:1027C000D2071043604700009D2102000AD002D4C6
:1027D000491E9218FCD5C905100A1206524100D3B1
:1027E000012A4841704738B4012100220368001DC6
:1027F000002B0BD00468001D0C4202D04D466D1E0C
:1028000064192260241D1B1FF0D0FAE732BC704708
:102810000CB4012212060318DA4207D84B18DA4228
:1028200004D802000A43921802D288420CBC7047B6
:10283000FCD08142FAE7FF000CB401221206031813
:10284000DA4207D84B18DA4204D802000A43921839
:1028500002D281420CBC7047FCD088420CBC70474D
:10286000010009D5F446404200F006F80122D207E3
:1028700011436047010000BF42221201D21E0042F4
:1028800007D002D4521E0018FCD5C10A400512051B
:1028900089187047F0B50E005E400125ED072E4007
:1028A000B446AE0ADF184C18F44208D2F7420ED2F2
:1028B000640D01D07F0D12D100206146F0BD05D11D
:1028C000F74201D87F0D05D10020C143F0BDFBD1F7
:1028D000640DF9D00020C143490549088FE0E4198F
:1028E000C902DB0229432B43DB0A460DC0023143F8
:1028F0008E4630B487B295B27D432E0CADB2140C27
:102900007C43A419260C240425439CB27C43A419BF
:10291000190C7943270CC919A4B20F043C43090CC4
:10292000000C97B247432E0CBE193543ADB2170CBD
:102930004743360CBF19A6B2BF193E043543240CD9
:102940003E0C36199FB24743BF19BCB23E0C8919E1
:102950001F0C47437F183E043443390C704680B245
:1029600097B247432E0CBE193543ADB2170C4743FF
:10297000360CBF19A6B2BF193E043543240C3E0CD9
:1029800036199FB24743BF19BCB23E0C89191F0CC0
:1029900047437F183E043443390C77463F0C90B2CE
:1029A00078432E0C80190604ADB22E43050CA0B25C
:1029B0002D18120C7A435019020C80B2240CA41862
:1029C0009AB27A43121914042043120C89181B0C72
:1029D0007B43C91830BCEF0A394203D1B6194041D4
:1029E0004941641E6F12BF0DE41B0BDBFF19BC4293
:1029F00011DA240500274208AE417841614166465C
:102A00003143F0BD641C05D1401C6141CF0201D3AC
:102A10004908F4E750E75DE7F0B40E005E40012599
:102A2000ED072E40B446AE0ADF184C18F4423BD2F4
:102A3000F74241D2640D43D07F0D38D0E41BC90268
:102A4000DB0229432B43CF0ADB0A0600B61A9F415B
:102A500004D2641EB6197F41B6185F416812800D1A
:102A600024180018844222DAE80C0021B6197F41AC
:102A7000B61A9F4102D2B6185F413F1C40414941FE
:102A8000F4D3241C21DD2405B6197F41B61A9F41D9
:102A900005D33743C60737430026012F70416141F4
:102AA00066463143F0BC7047FCD1F74205D20020A6
:102AB000C14349054908F3E704D00020C143F1E7C9
:102AC0007F0DFAD000206146ECE72442FAD1401C89
:102AD00061410F03F6D30020E2E7012252054B18B3
:102AE000DA4201D9581570475B0D0722D2019B1AB3
:102AF00010D9FF2B1DD2DB050122D2070A40134358
:102B00000903020D1143490AC200524100D9491C70
:102B1000C81870470AD1800A0A0302435212921C55
:102B200004D9D3070B40D00518437047C80FC0071E
:102B30007047C80F0002FF30C005704730B4050071
:102B40004D400122D20715404B180418240E30D0F6
:102B50001B0E34D0FF2C36D0FF2B3CD0E4180002E3
:102B6000090210431143000A090A9446C2B24A43BB
:102B7000000AC3B24B43000A4843110A5B18190A02
:102B800012061B0C1A43120A091801D44918641EB4
:102B9000080A7F3C23DBFE2C08DAE4050906114312
:102BA000634699416041284330BC7047FF20C0050F
:102BB000F9E728001B0EFF2BF6D1D043F4E72800DD
:102BC000FF2CF1D1F9E74002F7D1FF2B01D14902E7
:102BD000F3D1E005E7E7D8054902E4D0EDE7430289
:102BE0000020641CDFD15B129B1CDCD9D805DAE71E
:102BF000012212060118CA420AD28A420DD838228E
:102C0000120609098918C20FD207114340077047FD
:102C100000D049080909014301E0C10FC90700209C
:102C20007047F0B40125ED070F005F404FD48B4291
:102C300000D1824205D98446100062468C461900B4
:102C40006346DF184C18640D7F0D3AD0661C76057C
:102C500037D0E61B352E34DCDB022B43DB0A0C0DB0
:102C6000C9022943C912202E0DDB1700203E06D0D1
:102C70001F00F741F3405F400026012A7741C0184A
:102C800071410DD217E01700F741F2405740F34170
:102C90005A40B340F3405A400026801859410AD3A5
:102CA000A21C52050FD0C207012F72411700400825
:102CB000CB0718434908641C24054208AF41704102
:102CC0006141F0BC7047641C21050020F9E76B40AE
:102CD00010E06B40ABE7F742F3D1E943F1E7244260
:102CE000EFD100200021ECE7F0B40125ED070F0043
:102CF0005F40EED40C00871A9C4105D2C01BA14155
:102D0000D219634169406B40AE0ADF184C18F44297
:102D1000E1D2640D7F0DE2D0E61B362ED1DCDB0262
:102D20002B43DB0AA4460C0DC9022943C90A012E14
:102D300028DC04D1D6075208DF073A435B08EF0AC4
:102D400076429041994114D039423BD1B619404165
:102D50004941761C394204D1761C00184941394258
:102D6000FAD0B9436746B74208D9A41B24052143CA
:102D7000A7E70042EAD13642E8D1A2E7E40AE10738
:102D800000209EE7202E0BDD203E1F00F340F74180
:102D90005F40012A002257417E42984191410BE059
:102DA0001700F741F2405740F3415A40B340F34017
:102DB0005A407E42904199410A0303D2641EB619DB
:102DC000404149410027641E24054208AE41784134
:102DD0006141F0BC70470122D20703004B402ED462
:102DE000431A01D2C01AC91830B44B180418240E63
:102DF0001B0E22D0FF2C20D0E31A182B1DDC090259
:102E00001143C40D641E0002104394461925ED1AA7
:102E10000A00AA40D940451801D36D08A41CE40556
:102E2000D209280A2D062A436546AA4160410318A3
:102E30001B0EFF2B01D3C00DC00530BC70475140A5
:102E400006E05140CCE70122D20703004B40F8D402
:102E5000431A03D2C01AC9185040514030B44B181D
:102E6000090211430418240E1B0E40D0FF2C3AD047
:102E700025009D410BD31ED8C50D4002401A0BD32F
:102E8000ED050100400AC90591416841D5E7C50D2E
:102E900040024918401AD0D001214008491C0018AE
:102EA000FCD58C4204D36D1A000AED054019C4E725
:102EB000E8051040C1E7182DBFDCAC1C0D00E14057
:102EC000E5414D40012D4941C40D00021043451A12
:102ED00001D46D199543641EE405280A2D06954119
:102EE000604130BC7047FF2BA7D1D843A5E72442EF
:102EF000A3D10020A1E700000122D2070118090E8A
:102F00007F3910D449421F310FD4001805D2C001B7
:102F10001043C84000D5D0437047C0011043C8409B
:102F200005D440427047002070470042F3D510009E
:102F300070470000F4464A1805D200F00FF801D59A
:102F400080174008604700F009F80121C90788424E
:102F500000D90800404260474A1812D2400DC90209
:102F600008430121C9070843520D40210901521AA3
:102F7000521C06D452421F3201D4D0407047C017B1
:102F8000704700207047000038B5040064B2250087
:102F90006D11EDB2002D11D1734800688021090533
:102FA00001437148016071480068902188436F496E
:102FB00008606E486D490968016003E030216C4883
:102FC00001F058F864B22000002823D0401E26D01B
:102FD000401E29D0401E2CD0401E2FD0401E32D083
:102FE000401E35D0401E38D0401E3BD0401E3ED043
:102FF000801E41D0401E44D0401E47D0401E4AD0C3
:10300000401E4DD0083850D0C01E53D0C01E0128DD
:1030100050D950E00021942001F056F84FE00021F3
:10302000902001F051F84AE00021922001F04CF884
:1030300045E00021962001F047F840E0002195206E
:1030400001F042F83BE00021912001F03DF836E02C
:103050000021932001F038F831E00021972001F0A1
:1030600033F82CE00021202001F02EF827E0002189
:10307000212001F029F822E00021422001F024F86B
:103080001DE00021222001F01FF818E0002123207C
:1030900001F01AF813E00021402001F015F80EE0CD
:1030A0000021412001F010F809E000219E2001F0EC
:1030B0000BF804E003E06D212D4800F0DBFF31BD8B
:1030C000F8B506000F0076B234006411002539000F
:1030D00049B2300040B200F020F864B204206043EE
:1030E0002449085800680006F7D564B204206043FC
:1030F000204908580069050064B2042060431D4956
:10310000085800688021884364B204216143194A49
:1031100051580860280080B2F2BD70B440B202007D
:103120005211C306DB0E52B204245443114D2C59E4
:1031300049B28D000C262E4050253543A56052B271
:10314000042454430B4D2C590425E56052B2042449
:103150005443084D2C59DBB2DD06ED0E40262E43BC
:10316000266070BC704700003C800440188004401A
:10317000C0760000ACE4FF1F0121C206D20E9140D0
:10318000864A11607047F0B503000C005BB2002B5B
:1031900022D55BB21807000F08380500AD080420DF
:1031A00045437F4A5BB21807000F083880080421A6
:1031B00048437B490858FF219E07B60F08277E43E6
:1031C000B1408843A101C9B29E07B60F08277E43CC
:1031D000B140014351511CE05BB21800800804214A
:1031E000484370490858FF219A07920F08256A43FF
:1031F00091408843A101C9B29A07920F08256A43FA
:10320000914001435BB21800800804225043654A94
:103210001150F0BD80B572B6634801F009F86349FA
:103220002E2001F02DF96249102001F029F96148A2
:1032300001680A204143002001F03AF95E49262046
:1032400001F01EF91620FFF797FF00211E20FFF75F
:103250009AFF01210020FFF796FF02211620FFF7B9
:1032600092FF564800F0E6FD5549564800F0E9FD4A
:103270005549564800F0E5FD042001F05FF900F0E3
:10328000ABF801F085FA01F065FA0C20FFF77CFE3F
:1032900000F08CFA00F0EDF84D4A0021002001F01A
:1032A000E2FA00F0FDF94B4800780028F4D0D44849
:1032B0000068008AD3490870D1480068408CD24920
:1032C0000860CF480068808ECF494860CC480068CD
:1032D00046300088CC498860CC48002140561021F7
:1032E0004843CB49C64A1268583212880A50C74828
:1032F0000021405610214843C5490818C0490968B3
:103300006A3109888160BF4801789C2001F0B2FDD4
:10331000C04A0021002001F0A6FABF4A0021002087
:1033200001F0A1FA0021042001F025F901F012FAC0
:1033300087235B0132220121022000F09BFB002346
:10334000FA2252000221002000F094FB0023FA220E
:1033500052000321002000F08DFB0023FA225200CE
:103360000121002000F086FB0023FA2252000021F8
:10337000002000F07FFB0022C749022000F016FE6B
:1033800000220021012000F0B7FC62B600F0C3FF6C
:103390000121042001F0EFF801BD000000E100E090
:1033A0001CED00E000E400E008EBFF1F8D7300005F
:1033B000E1730000880000205975000024000020FF
:1033C00044E7FF1F4000002050E7FF1F5C00002083
:1033D000787A00000F01002080B500220021022031
:1033E00000F0FEF90221022000F096FE00220021EA
:1033F000012000F0F5F90221012000F08DFE0022ED
:1034000000210E2000F0ECF902210E2000F084FED5
:10341000002200210F2000F0E3F902210F2000F02C
:103420007BFE00220021212000F0DAF90221212078
:1034300000F072FE00220021202000F0D1F90221CC
:10344000202000F069FE00220021232000F0C8F9AE
:103450000221232000F060FE002001F09DFD0120EC
:1034600001F09AFD022001F097FD032001F094FD88
:1034700001BD80B5012000F05DFA012803D1874825
:103480000121017002E08548002101700E2000F04A
:1034900051FA012803D181480121417002E07F489F
:1034A000002141700F2000F045FA012803D17B482C
:1034B0000121817002E0794800218170202000F014
:1034C00039FA00280BD1232000F034FA002806D165
:1034D000AE48012101704D480021017031E02020EB
:1034E00000F028FA01280BD1232000F023FA00284D
:1034F00006D1A6480221017044480121017020E054
:10350000202000F017FA00280BD1232000F012FA37
:10351000012806D19D48032101703C480221017019
:103520000FE0202000F006FA01280AD1232000F045
:1035300001FA012805D1954804210170334803217F
:1035400001702F4892490160924A0021002001F049
:103550008AF92B4802680121002001F084F92848EB
:10356000026812320221002001F07DF9244802682D
:1035700024320321002001F076F921480268363216
:103580000421002001F06FF91D480268483205212E
:10359000002001F068F91A4802685A32062100201A
:1035A00001F061F91648006816490978018214484B
:1035B0000068154909684184114800681249496842
:1035C00081860F48006846300F49896801800F489E
:1035D00000214056102148430D4908580849096800
:1035E00058310880094800214056102148430849B5
:1035F00008188068024909686A31088001BD000026
:1036000078000020DCE7FF1F10E4FF1FEA00002025
:10361000E4E6FF1F507A0000987A000038B5FF24D6
:103620000025002001F0EEFC002802D1002004005B
:1036300016E0012001F0E6FC002802D10120040080
:103640000EE0022001F0DEFC002802D1022004007E
:1036500006E0032001F0D6FC002801D1032004007D
:10366000E4B2FF2CDDD04C4800210170200040B2B4
:1036700001F0BBFC002804D1012001F0F7FC6D1C17
:10368000F4E7ADB2FF202E30854202DB4248022132
:1036900001702000C0B232BDFFFF000004EBFF1F2D
:1036A00010B50024FFF7BAFF0400E4B2002C05D0E7
:1036B000022C2AD03DD3032C4FD057E03748007856
:1036C000072802DB354800210170344800781221B8
:1036D00048432F49081832490860324A0721002020
:1036E00001F0C1F82E4802680721002001F0BBF864
:1036F0002B480068028A0721482001F0EDF827488E
:103700000078401C2549087030E025480068008A90
:10371000401C23490968088200220721482001F043
:10372000DBF81F480068028A0721482001F0D4F81E
:103730001CE01B480068008A401E1949096808827D
:1037400000220721482001F0C7F815480068028AC6
:103750000721482001F0C0F808E01348012101705A
:103760000F480B4901600D480021017000220B48F1
:103770000178482001F0B0F809480068028A07483B
:103780000178482001F0A8F810BD0000EB000020EF
:103790005CE7FF1F887A00000E0100201001002066
:1037A00078000020507A00000F01002080B5002230
:1037B0000121372000F014F801BD38B504000025C0
:1037C000002005002500EDB2002D04D00121372096
:1037D00000F06DF803E00021372000F068F831BDFB
:1037E00070B504000D0016006DB2002D15D1E4B2C5
:1037F00020004011042148435F490858E4B22100E9
:103800004911042251435C4A515849690122E30697
:10381000DB0E9A409143416142E0E4B22000401146
:103820000421484354490858E4B2210049110422B4
:103830005143514A515849690122E306DB0E9A402F
:103840000A434261F6B2002E15D1E4B220004011C5
:10385000042148434849085800680121E206D20E75
:1038600091408843E4B22100491104225143424A65
:103870005158086014E0E4B220004011042148438C
:103880003D49085801680120E206D20E90400843E5
:10389000E4B22100491104225143374A51580860CB
:1038A000802149002000C0B200F00EFC70BD38B588
:1038B00004000D00E4B220004011042148432E49C9
:1038C00008584069E106C90EC840C00703D4692101
:1038D0002A4800F0CFFBEDB2002D15D1E4B2200054
:1038E0004011042148432449085800680121E20698
:1038F000D20E91408843E4B2210049110422514381
:103900001D4A5158086014E0E4B22000401104211F
:1039100048431949085801680120E206D20E904038
:103920000843E4B22100491104225143124A51587C
:10393000086031BD10B50400E4B22000401104213C
:1039400048430D4908584069E106C90EC840C00700
:1039500003D59221094800F08DFBE4B2200040110C
:1039600004214843044908580169E006C00EC140DB
:103970000800C007C00F10BD6CE6FF1F48770000AD
:1039800038B504000D0064B2002C03D0022C55D0D1
:1039900039D36EE096480068802149040143944879
:1039A00001606DB2002D08D0022D12D00BD3042D72
:1039B0001BD014D3052D1ED023E0C02189009820F0
:1039C00000F082FB1EE0C0218900992000F07CFB02
:1039D00018E0C02189009D2000F076FB12E0C02194
:1039E00089009E2000F070FB0CE0C02189009F2020
:1039F00000F06AFB06E0C02189009A2000F064FB19
:103A000000E036E035E07A4800688021890401430F
:103A1000774801606DB2002D02D0012D06D00BE079
:103A2000C02189000C2000F04FFB06E0C021890076
:103A30000D2000F049FB00E01BE01AE06C48006834
:103A40008021C90401436A4801606DB2002D02D093
:103A5000012D06D00BE0C0218900012000F034FBCD
:103A600006E0C0218900332000F02EFB00E000E0DA
:103A7000FFE731BDFCB583B006000F0076B2002E23
:103A800002D17FB2062F0CDB76B2012E02D076B2C5
:103A9000022E02D17FB2022F03DBD8218D4800F025
:103AA000E9FA390049B2300040B2FFF769FF8A48AD
:103AB00000688A494843401001900198000C03991E
:103AC000FEF71FFE040000200500A4B220002841DC
:103AD000012801DB6D1CF8E7EDB2082D03DBF321B3
:103AE0007C4800F0C7FA0198E8400399FEF709FE08
:103AF000040076B2002E03D0022E18D00CD321E0A1
:103B00000498A4B22100491C4843FA218900FEF719
:103B1000F8FD6946088015E00498A4B22100491C0C
:103B200048436421FEF7EDFD694608800AE00498E9
:103B3000A4B22100491C48436949FEF7E2FD6946E9
:103B40000880FFE77FB20820784376B204217143F2
:103B5000644A515809187FB20820784376B204228B
:103B60007243604B9A581018C06804229043C86092
:103B70007FB20820784376B204217143594A5158E4
:103B800008182821C1605848006858490140564823
:103B90000160554800688021490401435248016092
:103BA00076B2042070434F490858EDB26907490FB7
:103BB00008220A43026076B204207043494908583B
:103BC000A4B284607FB20820784376B204217143A6
:103BD000444A5158081869460988016176B20420A0
:103BE0007043404908580021416005B0F0BD000015
:103BF0003C800440F8B505000F00160000246DB2AB
:103C0000002D02D17FB2062F0DDB6DB2012D02D047
:103C10006DB2022D02D17FB2022F04DBFF213031C1
:103C20002C4800F027FA6DB2002D03D0022D12D0DF
:103C300009D319E02E48864204D39A214900254829
:103C400000F018FA10E0652E04D39C2149002148A9
:103C500000F010FA08E02748864204D39E2149006C
:103C60001C4800F007FAFFE76DB2042068431D49C5
:103C7000085880680400002CF6D06DB2002D03D0E7
:103C8000022D12D009D318E02000401C7043FA2105
:103C90008900FEF736FD00900FE02000401C7043C5
:103CA0006421FEF72EFD009007E02000401C7043C9
:103CB0000B49FEF726FD0090FFE77FB2082078430E
:103CC0006DB204216943074A5158081800990161EF
:103CD000F1BD0000147800007C00002040420F007D
:103CE00060EA0000CCE6FF1F04800440FFFFFFFCF9
:103CF000E903000061EA000070B504000D00160041
:103D000076B2082E04DBFF21F431424800F0B2F90C
:103D100064B2002C03D0022C11D008D317E0414824
:103D200000688021490401433E48016013E03D489A
:103D300000688021890401433A4801600BE039485A
:103D400000688021C90401433648016003E0364918
:103D5000304800F08FF96DB2002D0DD13348006866
:103D600080214904A1408843304908608021C9006E
:103D7000302000F0A9F915E06DB2012D0DD12B48CE
:103D8000006880214904A140014328480160802146
:103D9000C9004D2000F098F904E0852189001D48F4
:103DA00000F068F91D4800681D4901401B4801608A
:103DB0001A4800688021490401431848016064B230
:103DC000042060431449085876B27107490F102245
:103DD0000A43026064B2042060430F490858144942
:103DE000816064B2042060430B490858002141609F
:103DF00070BD40B204214143074A515800224A6035
:103E0000704740B20421484303490858406880B2D3
:103E10007047000014780000CCE6FF1F04800440C7
:103E2000FFFFFFFC3C800440050200000C800440C2
:103E3000FFFF00000021016000214160002181603E
:103E4000704700220260002242600022826000224D
:103E5000C2600A6802614A6842618A68826170478A
:103E6000F6B583B0050004980399401A04002000B9
:103E70006043FEF7F5FC0022474BFEF70BFD060002
:103E80000F00464800214056102148434449081875
:103E9000C068FEF7E5FC02000B0030003900FEF7B9
:103EA000BBFD06000F003D4800214056102148434D
:103EB0003B490858FEF7D4FC32003B00FEF7B1FE48
:103EC000FEF70BFE00902000FEF772FC0099FEF753
:103ED00035FE01000E0031480021405610214843B4
:103EE0002F49081880686968611A4843FEF760FC2A
:103EF0003100FEF770FFFEF7FFFF01906C60872036
:103F000040010199401A05B0F0BDF2B582B004003D
:103F100015000298281A06006068301AFEF748FC5F
:103F200001002069FEF70AFE010000913000FEF753
:103F30003FFC6169FEF702FE0099FEF74CFF0100AD
:103F40000091606802214843301AA1684018FEF7CA
:103F50002FFCA169FEF7F2FD0099FEF73CFFFEF78A
:103F6000CBFF07006068A06066603120C0438642D6
:103F700003DA0C48012101700CE03120C043864275
:103F800008DA08480078002804D0064800210170AB
:103F900005483F183800FEBD0000F03FEA00002051
:103FA000E4E6FF1FEC000020D4FEFFFF70B5040024
:103FB0000D00160027480078802101432548017034
:103FC00025480068012101432348016064B2012CA7
:103FD00005D1C021C900132000F076F80CE064B2CE
:103FE000022C05D1C0218900452000F06DF803E0C6
:103FF00033211A4800F03EF81B48002101601848A0
:10400000232101601748ADB2056076B2012E01D1BF
:10401000082000E0002064B2210130220A40104351
:10402000432101431048016070BD10480021016028
:104030000E48006880B270470B4800680121884331
:1040400009490860084800680121014306480160E9
:104050007047000000500640388004408C77000014
:104060000400044008000440000004400C00044028
:104070007047000038B504000D002A0021000E48EA
:1040800001F00AF8FEE738B504000D00210049B23E
:10409000022001F085F9200032BD704710B50748B5
:1040A0000468E4B20920604305490A18E4B221001B
:1040B000044800F0F1FF10BDFC78000004ED00E0C2
:1040C000B0E4FF1F9878000010B4324A12688023D1
:1040D0009B000400E4B26409A34013432D4A13601B
:1040E000C0B20200521104235A432B4B9A58A032FB
:1040F0000123C406E40EA3401360C0B2C206D20E70
:1041000004235A43C0B203005B1104246343224CCE
:10411000E358995010BC704710B41E4A12688023AF
:104120009B000400E4B26409A3401343194A1360DE
:10413000C0B20200521104235A43174B9A58A032BE
:104140000123C406E40EA34013600A001349114082
:104150000A00C0B2C106C90E04235943C0B203000D
:104160005B11042463430C4CE3585B58E021C90005
:1041700019401143C0B2C206D20E04235A43C0B242
:1041800003005B1104246343034CE358995010BCB3
:104190007047000038800440B8E6FF1FFFF8FFFFBB
:1041A0000121C206D20E9140994A11607047012147
:1041B000C206D20E9140974A1160704770B440B267
:1041C00010244443944D2C19A568802464042C4386
:1041D00040B210254543904E7519AC6040B2102492
:1041E00044438D4D2C191D022D0AA56040B21024A8
:1041F0004443894D295140B210244443864D2C1923
:104200006260864C247880252543844C257040B21A
:1042100010244443804D2C19E5688024E4052C4388
:1042200040B2102545437C4E7519EC6070BC704758
:1042300010B504007A48046000F08EF80028FBD026
:1042400000F002F8002010BD00B583B09620800079
:1042500001900120009007237148026871490020F5
:1042600001F0F7F86D4800784006400E6B49087081
:104270006D480068400040086B4908600020FFF767
:104280008FFF1E20FFF793FF68490720FFF71CFFF1
:1042900067490620FFF718FF07BD80B56548002174
:1042A000405604281BD16348032101701E20FFF7EC
:1042B0007EFF96239B005A4802685A490020FFF768
:1042C0007DFF5D4880210160574800688021090614
:1042D0000143554801600020FFF762FF05E01E2002
:1042E000FFF765FF53480221017001BD80B54E48BC
:1042F0000068400040084C4908600020FFF750FF6C
:104300004C48012101704D48006880214904014357
:104310004A48016001BD80B5464804210170464805
:104320000021C94301601E20FFF73AFF41480021E8
:10433000405601280FD03F48002140560228F5D1B1
:104340003C48042101703C480021C94301601E2003
:10435000FFF726FFEAE701BD10B582B000246846EA
:104360000021017000F0E0FB8021122000F082FDAE
:10437000002804D1324800F08FFE002046E03220B1
:1043800000F074FE0B220121684600F0ABFD00280E
:1043900004D12C4800F080FE002037E06846017808
:1043A000294800F079FE29480178294800F074FE78
:1043B00068460078212828D100200400234800788E
:1043C000A4B280B284421BD2A4B20220604321492D
:1043D00008184178A4B2022060431E4A105C80B2E3
:1043E00000F048FD002809D1A4B202206043194919
:1043F000095C194800F050FE002007E0641CDDE76E
:10440000164800F049FE012000E0002016BD000023
:1044100000E100E080E100E0008100400010024087
:104420008C00002012F10F400C81004002010200BC
:1044300012010900ECE7FF1FA09004400881004032
:10444000E0790000647A00002079000054E8FF1F42
:1044500078790000F0E7FF1FF87900004479000048
:1044600010B50400200080218900FEF747F90029DB
:1044700003D01E210B48FFF7FDFD0B48046010BD63
:1044800038B504000D00084800680849884203D088
:1044900030210448FFF7EEFD64B204206043034975
:1044A0000D5031BD5878000008ED00E000E0FF1F1E
:1044B00038B504000D00002D03D124211B48FFF75F
:1044C000D9FD1B4800688021090401431848016098
:1044D00018480021016064B21020604316496A1E2A
:1044E0000A5064B21020604313490818C0680121C3
:1044F000014364B2102060430F4A1018C16064B2D7
:10450000102060430C49081880680121884364B278
:1045100010216143084A5118886064B2102060433A
:10452000054908180321816031BD0000D0770000E3
:104530003C800440007003400071034010B504004B
:1045400064B2042C07DA0122012164B21948005D2B
:10455000FFF746F90EE0042004002000441E40B29C
:10456000002807D00122012164B21248005DFFF744
:1045700037F9F2E710BD38B505000C006DB2042D17
:1045800007DA2100C9B26DB20A48405DFFF78FF922
:104590000EE0042005002800451E40B2002807D088
:1045A0002100C9B26DB20348405DFFF780F9F2E720
:1045B00031BD0000E8E7FF1F00B580B2010000290F
:1045C00007D06E231A00002A01D0521EFBE7491EB5
:1045D000F5E700BD80B501216020FFF768F90121F2
:1045E0006120FFF764F9BA48006806214843FA21C0
:1045F0008900FEF783F800F01DFD00216020FFF721
:1046000056F900216120FFF752F901BD80B5002164
:104610006120FFF74CF900216020FFF748F90121E4
:104620006120FFF744F9AA48006805214843FA21B0
:104630008900FEF763F800F0FDFC01216020FFF720
:1046400036F901BD38B5040000200500EDB2082D93
:1046500015DA200604D501216020FFF728F903E0D0
:1046600000216020FFF723F901216120FFF71FF9E6
:1046700000216120FFF71BF964006D1CE6E70121B2
:104680006020FFF714F901216120FFF710F90021E4
:104690006120FFF70CF900216020FFF708F931BD18
:1046A00010B50400FFF796FF7820FFF7CBFF4020FE
:1046B000FFF7C8FF2000C0B2FFF7C4FFFFF7A6FF57
:1046C00010BD10B50400FFF785FF7820FFF7BAFF93
:1046D0000020FFF7B7FF2000C0B2FFF7B3FFFFF7DE
:1046E00095FF10BD38B505000C0020005038C0B251
:1046F000FFF7E7FF2900C9B2090910200843C0B23B
:10470000FFF7DFFF2907090F01200843C0B2FFF7B9
:10471000D8FF31BD70B5040000200500EDB2082DB2
:1047200017DA28005038C0B2FFF7CBFF0120FFF79F
:10473000C8FF1020FFF7C5FF00200600F6B2802E4C
:1047400005DA2000C0B2FFF7ABFF761CF6E76D1C60
:10475000E4E770BD38B500200400E4B2082C16DA96
:1047600020005038C0B2FFF7ACFF0120FFF7A9FFCF
:104770001020FFF7A6FF00200500EDB2802D04DA1F
:104780000020FFF78DFF6D1CF7E7641CE5E731BDE6
:1047900080B5002201216020FFF722F800220121CC
:1047A0006120FFF71DF8FA204000FFF705FFAE205B
:1047B000FFF787FF0020FFF784FF1020FFF781FF3E
:1047C0004020FFF77EFF8120FFF77BFFCF20FFF720
:1047D00078FFA120FFF775FFC820FFF772FFA62022
:1047E000FFF76FFFA820FFF76CFF3F20FFF769FF7F
:1047F000D320FFF766FF0020FFF763FFD520FFF708
:1048000060FF8020FFF75DFFD920FFF75AFFF120FE
:10481000FFF757FFDA20FFF754FF1220FFF751FF91
:10482000DB20FFF74EFF4020FFF74BFF2020FFF774
:1048300048FF0220FFF745FF8D20FFF742FF1420BD
:10484000FFF73FFFA420FFF73CFFA620FFF739FF4B
:10485000AF20FFF736FF0020FFF75CFF00210020AC
:10486000FFF740FF01BDF4B582B004000E006846BA
:104870000021017000250027FFB20298C05D0028CA
:1048800025D06846FFB20299C95D20390170E4B2B3
:104890007F2C02DB00200400761C3100C9B220000E
:1048A000C0B2FFF71FFF00200500EDB2062D0BDAA6
:1048B000EDB2684600780621484306490818405D75
:1048C000FFF7EEFE6D1CF0E7A41D7F1CD4E7F7BDDB
:1048D00080000020C06F0000F7B506000F0068469A
:1048E0000021417100246846002101716846058954
:1048F00068460089002803D168460121017112E051
:10490000ADB228000A21FDF7F9FE00290BD1684657
:1049100069460979491C0171ADB228000A21FDF7E9
:10492000EDFE0500ECE70020050068460089002840
:104930000FD00A204543684600890A21FDF7DEFEB4
:104940006D18684600890A21FDF7D8FE694608817E
:10495000EBE7ADB2002D2FD0F6B27F2E02DB0020A8
:1049600006007F1C3900C9B23000C0B2FFF7BAFEA2
:1049700068460090ADB228000A21FDF7BFFE0098FE
:104980004171ADB228000A21FDF7B8FE05000020F4
:104990000400E4B2062C0DDAE4B268464079062140
:1049A000484359490818001960300078FFF778FE2D
:1049B000641CEEE7B61DCCE7684600796946421EE6
:1049C0000A71C0B200281BD0F6B27F2E02DB002095
:1049D00006007F1C3900C9B23000C0B2FFF782FE6A
:1049E00000200400E4B2062C08DAE4B246480019BC
:1049F00060300078FFF754FE641CF3E7B61DDBE778
:104A0000F7BD70B500260025002400200600382ED2
:104A100078DA30000821FDF771FE0100C9B21820D4
:104A2000FFF760FE00200500502D69DA0020040029
:104A30005020704340193549085C002802D02000FE
:104A40000124044350207043401930490818503065
:104A50000078002802D02000022404435020704334
:104A600040192A490818A0300078002802D02000F8
:104A70000424044350207043401924490818F0309E
:104A80000078002802D0200008240443A020400021
:104A90005021714349191D4A5118085C002802D061
:104AA000200010240443C8204000502171434919BC
:104AB000164A5118085C002802D020002024044324
:104AC000F0204000502171434919104A5118085CE8
:104AD000002802D02000402404438C208000502174
:104AE00071434919094A5118085C002802D0200076
:104AF000802404432000C0B2FFF7D2FD6D1C93E771
:104B0000083684E770BD0000C06F000060EDFF1F35
:104B100080B569460880694609884A1E6B461A8036
:104B200089B20029F7D101BD80B5012201211120F0
:104B3000FEF756FE012201211020FEF751FE43210F
:104B40001120FFF7E9FA43211020FFF7E5FA01BD34
:104B500080B5A24800688021490201439F48016056
:104B60009E4800688021890201439C480160C8205A
:104B70004000FFF7CDFFBA480068BA490140B84885
:104B80000160C8204000FFF7C3FFB748006801007C
:104B9000C903C90F002908D1B14800688021490222
:104BA0000143AF480160002027E0AD480068802144
:104BB00049020143AA48016088480068A9490140A8
:104BC00086480160C8204000FFF7A2FF83480068C4
:104BD000A649014081480160A34800680100C9035B
:104BE000C90F002908D09E4800688021490201436E
:104BF0009B480160002000E0012002BD80B577489D
:104C000000689A49014075480160744800689549F8
:104C1000014072480160C8204000FFF779FF6F48EB
:104C200000688021890201436C480160C82040006F
:104C3000FFF76EFF69480068802149020143674819
:104C40000160C8204000FFF763FF01BD80B56348E5
:104C500000688649014061480160C8204000FFF7B4
:104C600057FF5E4800687F4901405C480160C820EA
:104C70004000FFF74DFF5948006880218902014339
:104C800056480160C8204000FFF742FF53480068C3
:104C90007649014051480160C8204000FFF738FFC5
:104CA00001BD80B54D480068704901404B48016026
:104CB000C8204000FFF72CFF4848006880214902C7
:104CC000014346480160C8204000FFF721FF4348E8
:104CD000006880218902014340480160C8204000EB
:104CE000FFF716FF3D480068604901403B480160FE
:104CF000C8204000FFF70CFF01BD80B537480068B1
:104D00005A490140354801605548006855490140FD
:104D100053480160C8204000FFF7FAFE2F480068A2
:104D20008021890201432D480160C8204000FFF71F
:104D3000EFFE4D4800680100C903C90F00290ED0DD
:104D400047480068802149020143454801602348E3
:104D50000068464901402148016000200DE04048BC
:104D600000688021490201433D4801601B480068FA
:104D70003E49014019480160012002BD38B50400D8
:104D800008252800451EC0B2002826D0200607D5D9
:104D9000124800688021490201431048016005E083
:104DA0000E4800682F4901400C4801606400C8208B
:104DB0004000FFF7ADFE09480068802189020143E9
:104DC00006480160C8204000FFF7A2FE03480068C3
:104DD0002649014001480160D3E731BD00F00F4092
:104DE00038B5082400251E4800681E4901401C48AB
:104DF00001602000441EC0B2002820D06D001C4875
:104E000000681A4901401A480160C8204000FFF7B5
:104E10007FFE174800688021890201431448016021
:104E2000C8204000FFF774FE0F4800680100C90366
:104E3000C90F0029DDD0280001250543D9E708481E
:104E40000068802149020143054801600848006864
:104E50000649014006480160EDB2280032BD00005D
:104E600014F00F40FFFFFEFF10F00F40FFFFFDFFAB
:104E700000F00F4070B504000E0000253100C9B2EB
:104E8000200080B200F00AF8002805D16D1CEDB2B8
:104E9000142DF3D1002000E0012070BD38B50500CD
:104EA0000C00FFF755FE002801D1002019E0422038
:104EB000FFF764FFFFF721FF002803D1FFF79EFEF5
:104EC00000200EE02800C0B2FFF758FFFFF715FFE3
:104ED0002000C0B2FFF752FFFFF70FFFFFF78EFE73
:104EE000012032BDF8B505000F0016000024320085
:104EF000D2B2390089B2280000F00AF8002805D1A2
:104F0000641CE4B21E2CF2D1002000E00120F2BDAE
:104F100070B504000D001600FFF71AFE002801D13D
:104F2000002037E04220FFF729FFFFF7E6FE0028C8
:104F300003D1FFF763FE00202CE03000C0B2FFF782
:104F40001DFFFFF7DAFEFFF759FEFFF701FE00280D
:104F500001D100201EE04320FFF710FFFFF7CDFE38
:104F6000002803D1FFF74AFE002013E0ADB2002D68
:104F70000DD0FFF735FF2070ADB2012D02D1FFF744
:104F800090FE01E0FFF762FE641C6D1EEEE7FFF786
:104F900035FE012070BD000010B5040064B2082C7D
:104FA0000DDA0022002164B22148005DFEF718FCF2
:104FB000032164B21E48005DFFF7AEF814E008203C
:104FC00004002000441E40B200280DD00022002121
:104FD00064B21748005DFEF703FC032164B2144875
:104FE000005DFFF799F8ECE710BD10B5040064B25E
:104FF0000F48005DFEF79EFC002801D1002000E074
:10500000012010BD10B50400200040B2FFF7EDFFF5
:1050100000280AD10A2000F029F8200040B2FFF74A
:10502000E4FF002801D1002000E0012010BD0000B5
:10503000E0E7FF1F10B50400002C16D080204004CC
:10504000844203D329210F48FFF714F80E480021AA
:1050500001600E4804600E48002101600A480521E5
:10506000016009480068C003FBD510BD10B50400FD
:105070002000441E002804D006480068FFF7DAFF2D
:10508000F6E710BD7876000010E000E014E000E0E4
:1050900018E000E0800000200EB400B582B003A943
:1050A00000916B4602000121034878440A3000F069
:1050B00091FA029906B0084771290000F1B584B051
:1050C0000F006846AD4981816946102008560028C6
:1050D00003D0022825D012D335E0A94800688021EA
:1050E000C9000143A6480160C02189000F20FEF7D6
:1050F000EBFFC02189000E20FEF7E6FF23E0A04869
:1051000000688021090101439D480160C021890098
:105110004320FEF7D9FFC02189004420FEF7D4FFC9
:1051200011E09748006880214901014394480160DB
:10513000C02189006220FEF7C7FFC02189006320DB
:10514000FEF7C2FFFFE7694610200856002800D08E
:10515000ABE08C4800688C4901408A48016089486E
:1051600000688A4901438748016089480078F32133
:105170000140874801708748002101708648006817
:10518000864948430221FDF7B9FA02900420040041
:10519000E4B2212C64DA0298E4B22100491C79437C
:1051A000FDF7AFFA0500ADB280208001854255DAE7
:1051B0000298ADB2E4B22100491C6943FDF7A1FA9F
:1051C00001900198C01B012803DB01983900461AA1
:1051D00002E00198C01B4642B6B2002E05D16846D7
:1051E00005806846E4B244803AE068468089B6B2F9
:1051F000864206D268468681684605806846E4B2E3
:1052000044806D1CADB280208001854226DA029870
:10521000ADB2E4B22100491C6943FDF772FA019076
:105220000198C01B012803DB01983900461A02E0EF
:105230000198C01B4642B6B2002E05D168460580D3
:105240006846E4B244800BE068468089B6B2864284
:1052500004D2684605806846E4B24480641C97E73F
:105260005C480078E02101400C006846008880B26C
:10527000000AC006C00E20435649087056486946C9
:105280000988017055480078E02101400C0068460B
:105290004088C006C00E2043504908703C48007842
:1052A0000C2101433A48017066E069461020085617
:1052B000042148434A490858C178F32008406A4607
:1052C0001021515604225143454A5158C87069462D
:1052D0001020085604214843414908580021817094
:1052E00040480068FA218900484302900298102142
:1052F0007943FDF706FA69460880684600888021F0
:105300008901884202DB68463749018069461020DE
:10531000085604214843324908580078E0210140EA
:105320000C006846008880B2000AC006C00E204308
:105330006A461021515604225143294A5158087097
:1053400069461020085604214843254908586946F3
:1053500009884170694610200856042148432049B5
:105360000858C1780C2008436A461021515604227F
:1053700051431B4A5158C87005B0F0BDFFFF0000F3
:105380003480044004800440FFFFFFF30000010468
:1053900003A0064002A006407C00002040420F000F
:1053A00000B540B2002806D1104A12781206FBD58B
:1053B0000F4A11700DE040B204224243084B9A5844
:1053C00012791206F7D540B204224243044B9A5890
:1053D000D17100BD00A0064001A006400AA0064011
:1053E000D8E6FF1F88000020FF1F000004A0064031
:1053F00007A00640F2B582B00600300080094507DC
:105400006D0F202045436846310010398906890E0A
:105410000822514301706846007828180400684645
:10542000007A082148432018401E0700FFB2E4B26A
:10543000A7420DD3002200212000C0B2FEF7D0F910
:10544000812149002000C0B2FEF73EFE641CEDE75A
:10545000F7BDFEB504000D00694620200E56099FD9
:1054600076B2012E01D101200AE076B2022E01D1DE
:10547000022005E076B2002E01D1042000E00020D9
:105480006946087076B2012E05D14748854202D39D
:105490004648A8421CD276B2022E09D14248854223
:1054A00006D34348A84203D3A807800F03280FD18F
:1054B00076B2002E08D13C48854205D33D48A8422B
:1054C00002D32800800703D060213B48FEF7D2FDBD
:1054D00080200002874203D362213748FEF7CAFDCD
:1054E000364800688021490001433448016034484F
:1054F0000068022101433248016064B23148002152
:10550000015564B2102060432F490818816880203B
:105510004004084364B2102161432B4A511888604B
:1055200064B21020604328490D5064B210206043DB
:10553000254908180199416076B23005C0218903D8
:10554000014076B27004C022D20202400A431F48D2
:10555000104364B2102161431B4A5118C86064B201
:1055600010206043184908183902090A816068460A
:10557000007AC0B2400931308021014364B2114841
:10558000015513496846007AFEF79EFD684601788A
:105590002800FFF72FFF64B20A48005D4006400E66
:1055A00064B208490855F7BD10F00F4013F10F40E1
:1055B00012F10F4010F10F400477000040800440CA
:1055C0003C800440001002400081004080000860E0
:1055D00000010100F1B5A4B015001E00069104AC55
:1055E0000020E0620AE00698249A9047069000287E
:1055F00000D10DE3E06A401CE0626D1C29780029AF
:1056000001D1E06A06E32529EDD100206061A061A7
:10561000E06120626062A06202E0010001200843B4
:105620006D1C29782029F8D023290ED02B2904D0ED
:105630002D2907D030290BD00DE0010002200843AE
:1056400080B2EDE701000420F9E701000820F6E749
:1056500001001020F3E72A290ED131680A1D3260BB
:1056600009686163002905D54A426263010004208C
:10567000084380B26D1C12E0002161630AE0626B96
:10568000744B9A4205D093009A1852005118303941
:1056900061636D1C29780A00303A0A2AEFD3297811
:1056A0002E2903D00021C94321631DE06D1C2978F8
:1056B0002A2906D131680A1D3260096821636D1CF0
:1056C00012E0002121630AE0226B624B9A4205D06E
:1056D00093009A1852005118303921636D1C2978B3
:1056E0000A00303A0A2AEFD32087297858487844AC
:1056F000FF305F3000F0D1FE002801D028786D1C0B
:105700003A216054605C682805D12978682902D163
:105710003A20622106E06C2806D128786C2803D153
:105720003A20712121546D1C15A820612A7810009F
:1057300025382AD01C3800D1CFE0001F022800D81D
:10574000CBE0133800D1F5E0093800D1C5E0801E68
:1057500000D192E1401E00D139E1401E022800D85C
:10576000BBE0001F00D132E1401F00D18BE0401EA2
:1057700000D1DFE0401E24D0C01E0CD0801E00D11E
:10578000D8E0C01E00D1D5E081E16169481C6061AC
:1057900015A8252287E13068011D31600068E060AE
:1057A000226B002A02D500F082FE08E0002100F002
:1057B00086FE002802D0E168401A00E0206BA0615C
:1057C00072E13068011D316002680020C043002191
:1057D000104004AA03C215A8E0603C2202AB04A852
:1057E00003C803C302A803C8002904D1002802D1BA
:1057F000206B00281CD0521E02A803C80007000F0F
:105800003030C0B23A2800DB273015A98B18187049
:1058100002A803C800090F073843090902AF03C7EC
:1058200002A803C801D1002802D0E0689842E2D360
:105830003C20801AA06115A98918E160216B88427B
:105840000CDA081A2062208F0349014021872BE1DE
:10585000C0210000FFFFFF7FEFFF0000002900D400
:1058600022E13821615C14220A40102A00D01BE199
:10587000616B6269891A226A891A0A1A012A00DA96
:1058800012E1226210E13A20205C622817D06828D9
:1058900006D06A280BD06C2818D0712807D015E0E4
:1058A0003068011D3160E16A00680180FCE0326807
:1058B000101D3060E06AC117126803C2F4E030685E
:1058C000011D3160E16A00680170EDE03068011D82
:1058D0003160E16A00680160E6E03068C01D0721C0
:1058E0008843306001000831316003C804AB03C352
:1058F000002905D56169481C606115A82D230FE0BA
:10590000208F810705D56169481C606115A82B238C
:1059100006E0C00705D56169481C606115A8202311
:105920004354606915A90818E060110004A800F04C
:1059300001FAB9E03A20235C6C2B01D130680FE00A
:10594000712B01D1306802E06A2B306808D1C01D8C
:1059500007218843306001000831316003C803E04B
:10596000011D31600068002104AF03C7682B05D119
:1059700004A803C880B2002104AB0FE0622B05D15C
:1059800004A803C8C0B2002104AB07E0742B01D007
:105990007A2B04D104AB04A803C8002103C3382028
:1059A000205C000760D504A803C8002901D10028A5
:1059B0005AD020201043782856D1616915A8302389
:1059C0004354491C481C606115A842544CE03A20DD
:1059D000205C62280CD0682810D06A281AD06C2865
:1059E00022D0712816D074281ED07A280CD01BE043
:1059F0003068011D3160006840B219E03068011D57
:105A00003160006800B213E03068011D3160006849
:105A100000210EE03068C01D07218843306001007E
:105A20000831316003C804E03068011D316000684E
:105A3000C11704AB03C3002905DA6169481C606122
:105A400015A82D230FE0208F810705D56169481C1B
:105A5000606115A82B2306E0C00705D56169481CC5
:105A6000606115A820234354606915A90818E060F7
:105A7000110004A800F0D0F816E06169481C6061CC
:105A80003068021D326015AA006850540CE061694C
:105A9000481C606115A825234354002A04D061697D
:105AA000481C606115A842546D1C606B6169401A06
:105AB000216A401AA169401A616A401AE169401AD4
:105AC000A16A401A14903820205C400711D468461F
:105AD00020210171002709E0012301AA04A92498CB
:105AE00000F0C1FC002800D092E07F1C149887428F
:105AF000F2DB676915A800900FE00098017806981E
:105B0000249A90470690002800D181E0E06A401C6A
:105B1000E0620098401C00907F1E002FEDD1684687
:105B200030210171206A009008E0012301AA04A934
:105B3000249800F098FC00286AD17F1C00988742C6
:105B4000F3DBA769E06800900EE000980178069802
:105B5000249A9047069000285AD0E06A401CE062E0
:105B60000098401C00907F1E002FEED16846302127
:105B70000171606A009008E0012301AA04A9249839
:105B800000F071FC002843D17F1C00988742F3DBB2
:105B9000E769A069E168081800900EE000980178B4
:105BA0000698249A90470690002831D0E06A401C5D
:105BB000E0620098401C00907F1E002FEED16846E6
:105BC00030210171A06A009008E0012301AA04A914
:105BD000249800F048FC00281AD17F1C00988742C6
:105BE000F3DB3820205C400700D407E5684620211D
:105BF0000171002700E07F1C1498874200DBFDE460
:105C0000012301AA04A9249800F02DFC0028F2D059
:105C10000020C04325B0F0BDF2B584B00600306965
:105C200001906846027C6F2A01D1082006E02021FD
:105C30001143782901D00A2000E0102000903C2771
:105C400003CE083E04000D00642A01D0692A07D162
:105C5000002905DA00200021001BA94104000D00E5
:105C6000002D11D1002C0FD1306B00280CD10098E1
:105C700008283AD13820305C000736D53B270198F8
:105C80003B303021017030E07F1E02972000290058
:105C9000009AD31700F01FFC3032D2B23A2A03DB4D
:105CA0006846007C513812180199CA552000290015
:105CB000009AD31700F00FFC04000D0001D1002C56
:105CC00004D0F0680199C9198842DDD300980828EA
:105CD0000BD13820305C000707D50198C05D302813
:105CE00003D07F1E01983021C1553C20C01BB061FC
:105CF0000199C919F160316B884206DA081A3062DD
:105D0000308F0B490140318710E000290ED5382132
:105D1000715C14220A40102A08D1716B7269891AC9
:105D2000326A891A0F1A012F00DB376205B0F0BD05
:105D3000EFFF0000F3B591B007AD02AA03C803C29C
:105D400012A8007820210143009161290CD01198FC
:105D5000006B002802D51198062104E004D16729C0
:105D600002D1119801210163119841684800400D4A
:105D7000A84A904225D1080312D111980068002842
:105D80000ED111980321816112A8007861381A2878
:105D900042D32348784488300090032200990BE0D6
:105DA00011980321816112A8007861381A282FD335
:105DB0001C4979446E3103221198C06800F0C0FB81
:105DC000F8E1012817DA119800F0E8FB012812DB4E
:105DD000002700200099612931D11199C96830222A
:105DE0000A70491C119A4B1CD36012AA1278612ABE
:105DF0001ED178221DE011994968874A0A408749D7
:105E00001143119A51608649471A0020C043E1E7C7
:105E1000054979441231CEE7044878440E30BBE797
:105E2000041C0000F81B0000F01B0000F41B000025
:105E300058220A7011994969891C119A51610028E8
:105E400003D1002468468480AAE10098612800D02C
:105E50009DE01198046B002C01D5212400E0641C06
:105E600024B2661C6A4603C803C202A803C8002203
:105E7000002300F0B5FB02AA684603C802D28023C3
:105E80001B06594003C2381F6946888068460021B6
