:10000000F85F002011040000E5390000E539000028
:10001000E5390000E5390000E5390000E539000068
:10002000E5390000E5390000E5390000E539000058
:10003000E5390000E5390000E5390000E539000048
:10004000E5390000E5390000E5390000E539000038
:10040000FFFFFFFFFFFFFFFFFFFFFFFFFEFFFFFFFD
:1004100062B608F085FBFEE700B524482449097858
:10042000405C2449087022480078401C204908702C
:1004300020480078002803D101201F49087002E0FD
:1004400000201D49087001201C49087001201C492A
:10045000087017480078042802DB0020144908704F
:1004600000BD00B5114812490978405C1149087077
:100470000F480078401C0E4908700E48007800288C
:1004800003D101200C49087002E000200A490870DD
:1004900001200A49087001200A49087004480078C0
:1004A000042802DB00200249087000BDC4EAFF1FD7
:1004B000BA000020B9000020B8000020C2000020CF
:1004C000B7000020B600002070B586B005000020FF
:1004D0001C49087000201C49087000201B49087046
:1004E0000020BD4908700020BC490870280001F0B8
:1004F00049FB0600F6B2002E05D1B9480078401C31
:10050000B749087065E210480078002803D10F4809
:100510000078002802D03C20B24908703B2004003B
:10052000E4B20F2C00DA27E2A41EE4B250206043AC
:10053000AD49E4B2091989784018285C002807D130
:10054000641C19E2A8000020A9000020AA000020D5
:10055000A6480490A6480390A6480290A648019099
:100560004F2000900123A048E4B2001982782900AE
:100570002000C0B201F0F0FCE4B2372C30DB9F4821
:10058000E4B2005D97490978884229D39C48E4B2D7
:10059000005D012824D19B48E4B2005D00281FD1F2
:1005A0009948007800281BD1012098490870974885
:1005B0000078012814D19048E4B2005D8C49E4B27F
:1005C00008554F2200218A48E4B2005DCB4BE4B2CB
:1005D0001B5DC018C01F02F016F98449E4B208552B
:1005E000E4B22B2C2EDBE4B2382C2BDA87480078CF
:1005F000012827D18248E4B2005D002822D17F483B
:10060000E4B2005D7D49E4B20919891E0978401AF7
:10061000012817DB7948E4B20019001F00787749F8
:10062000E4B20919891F0978401A00280AD5CE4872
:100630000078002806D174480078002802D10120F3
:10064000C94908706D48E4B20019801E00786549F8
:10065000097888425DD3C4480078012859D16A4896
:100660000078002855D10120D04908700020674942
:100670000870BD48007801284BD1C8204000D649F9
:1006800008605C48E4B2005D5849E4B208554F2266
:1006900000215848E4B2005D984BE4B21B5DC01ADB
:1006A000C01C02F0B0F85249E4B20855BF480078C7
:1006B00001282ED15248E4B2005D002829D15148CA
:1006C000E4B2005D002824D14E48E4B20019801E37
:1006D000007800281DD1434800784849E4B2095DFC
:1006E000884216D33F4800784449E4B20919891E6C
:1006F000097888420DD34248E4B20019801E007880
:10070000002806D181204000B34908600120B34988
:100710000870A6480078012800D087E0AF4800782C
:10072000012800D082E0E4B2282C00DA7EE02D48D7
:1007300000783249E4B2095D884277D22E48E4B2AB
:10074000005D2D49E4B20919891E0978401A002874
:100750006CD42948E4B20019801E00782649E4B21E
:100760000919091F0978401A00285FD42648007823
:1007700000285BD12348E4B2005D002856D121480F
:10078000E4B200190838007801284FD181204000D8
:100790009149086001220121982002F04DF8184883
:1007A000E4B2005D002833D11548E4B20019801E80
:1007B000007800282CD11248E4B200198078002873
:1007C00026D1874B962252000021012002F070F9B9
:1007D000C82002F06DFB26E0AB000020AC0000203A
:1007E000A7000020A5000020FCE8FF1F7CE9FF1FF8
:1007F0003CE9FF1FBCE8FF1F7CE8FF1F3CEAFF1F2E
:10080000FCE9FF1FBCE9FF1FBF000020BC00002067
:10081000744B962252000021012002F049F99620E3
:10082000400002F045FB01206F4908706E480078D7
:10083000012834D1E4B2372C31DB6C48E4B2005DDE
:1008400000282CD16A48E4B2005D012827D169480C
:10085000E4B2005D68490978884220D30022012172
:10086000982001F0E9FF0120644908706448E4B26F
:10087000005D6449E4B208554F2200216148E4B2AA
:10088000005D1E4BE4B21B5DC018143801F0BBFFC5
:100890005D49E4B20855812040004F49086057483F
:1008A000007801283AD1E4B2382C37DB4F48E4B263
:1008B000005D002832D14E48E4B2005D00282DD101
:1008C0004D48007808304B49E4B2095D884225DB89
:1008D00000204E4908700020234908700020334949
:1008E000087000204049087000204449087000202A
:1008F0003A4908700020464902E000BF14E4FF1F97
:10090000087001220121982001F096FF812040000B
:1009100031490860B42040002F4988603A48E4B269
:10092000005D3849E4B2095D4018022102F0ECFA9A
:100930003849E4B208553448E4B2005D3149E4B2C4
:10094000095D401A3449E4B208553348E4B2005D09
:1009500029490978884204D22F48E4B2005D26492B
:1009600008702D4802E000BFBD000020E4B2005D29
:10097000072800DBD4E5A41C284804703D200400AF
:10098000E4B226480078801C844222DBA41EE4B234
:10099000502060431B49E4B2095D4018281800212B
:1009A0008170E4B250206043174901E0BE0000208E
:1009B000E4B2095D40182818801E00210170E4B2DD
:1009C000502060431349E4B2095D401800212954C6
:1009D000D6E706B070BD00BFC8E6FF1FC10000200B
:1009E0003075000008840000BF000020BCE9FF1F34
:1009F000FCE9FF1F3CEAFF1FA5000020C00000200B
:100A00007CE8FF1F3CE9FF1F7CE9FF1FBC000020C2
:100A1000B7000020FCE8FF1F7CEAFF1FA8000020B1
:100A200070B586B0050000209F49087000209F49DE
:100A3000087000209E49087000209E490870002020
:100A40009D490870280001F09DF80600F6B2002EBE
:100A500005D19A480078401C984908700FE29348E5
:100A60000078002803D192480078002802D03C206A
:100A7000934908703B200400E4B20F2C00DAD1E166
:100A8000A41EE4B2502060438E49E4B2091989786B
:100A90004018285C002801D1641CC3E18A480490F6
:100AA0008A480390C0480290894801904F200090E6
:100AB00001238448E4B20019827829002000C0B2E2
:100AC00001F04AFAE4B2372C2FDBB848E4B2005DFB
:100AD0007B490978884228D3B548E4B2005D0128F3
:100AE00023D1CA48E4B2005D00281ED1C84800786E
:100AF00000281AD10120C7490870C648007801288B
:100B000013D1A948E4B2005D6F49E4B208554F2201
:100B100000216D48E4B2005DCA4BE4B21B5DC01A0F
:100B200001F071FE6949E4B20855E4B22B2C2EDBCA
:100B3000E4B2382C2BDAB7480078012827D19C483A
:100B4000E4B2005D002822D19848E4B2005D9749E4
:100B5000E4B20919891E0978401A012817DB934865
:100B6000E4B20019001F00789049E4B20919891F06
:100B70000978401A00280AD5C2480078002806D112
:100B8000A3480078002802D10120BE490870874898
:100B9000E4B20019801E00784949097888422BD3B5
:100BA000B8480078012827D199480078002823D137
:100BB0000120B5490870002096490870B1480078B6
:100BC000012819D100220121982001F035FE40486A
:100BD000E4B2005D3D49E4B208554F2200213B4894
:100BE000E4B2005D974BE4B21B5DC018C01E01F07B
:100BF0000AFE3549E4B20855A348007801287AD1A5
:100C0000E4B2282C77DB2E4800786849E4B2095D0D
:100C1000884270D26448E4B2005D6349E4B20919C5
:100C2000891E0978401A012865DA5F48E4B2001984
:100C3000801E00785C49E4B20919091F0978401A3E
:100C4000012858DA72480078002854D16F48E4B27D
:100C5000005D00284FD16D48E4B2001908380078D3
:100C6000012848D101220121982001F0E5FD5048DA
:100C7000E4B2005D00282DD14D48E4B20019801E79
:100C80000078002826D14A48E4B20019807800286C
:100C900020D1894B962252000021012001F008FF4B
:100CA000B42002F005F920E0A8000020A9000020EF
:100CB000AA000020AB000020AC000020A70000200C
:100CC000A5000020FCE8FF1F7CE9FF1F3CE9FF1F97
:100CD0007CE8FF1F794B962252000021012001F091
:100CE000E7FE9620400002F0E3F801204849087032
:100CF00000206449087046480078012829D1E4B2F0
:100D0000372C26DB4148E4B2005D002821D1284879
:100D1000E4B2005D01281CD100220121982001F0DD
:100D20008BFD0120664908701F48E4B2005D6549EB
:100D3000E4B208554F2200216248E4B2005D414B05
:100D4000E4B21B5DC01A1E3801F05DFD5E49E4B2DD
:100D500008555B480078012832D1E4B2382C2FDBEB
:100D60001348E4B2005D00282AD12848E4B2005DAF
:100D7000002825D15548007808300C49E4B2095DB7
:100D800088421DDB00202349087000203D4908707F
:100D900000203D49087000201D4908700020484986
:100DA000087000204A4905E0BCE8FF1F3CEAFF1F2D
:100DB000BCE9FF1F087001220121982001F03CFDD1
:100DC0004048E4B2005D4049E4B2095D40180221A8
:100DD00002F09AF83F49E4B208553A48E4B2005D9F
:100DE0003949E4B2095D401A3B49E4B208553A4832
:100DF000E4B2005D35490978884204D23648E4B24D
:100E0000005D32490870344806E000BFFCE9FF1F6E
:100E1000BF000020BC000020E4B2005D072800DB1A
:100E20002AE6A41C2D4804703D200400E4B22B489F
:100E30000078801C844222DBA41EE4B25020604370
:100E4000214901E014E4FF1FE4B2095D40182818AD
:100E500000218170E4B2502060431A49E4B2095D78
:100E600040182818801E00210170E4B25020604311
:100E70001849E4B2095D401800212954D6E706B0AC
:100E800070BD0000BD000020BE00002028201449D5
:100E900008700120134908704F2013490870012081
:100EA000124908704F20124908704E2011490870ED
:100EB0004E20114908707047A8610000C05D000015
:100EC000C00000207CE9FF1F3CE9FF1FA5000020B7
:100ED000B6000020FCE8FF1F7CEAFF1FA8000020EE
:100EE00039E9FF1FB9E8FF1FF9E8FF1F79E9FF1F84
:100EF000B9E9FF1F79EAFF1FB9EAFF1FF0B587B014
:100F0000060000204A4908700020C84908700020E7
:100F1000484908700020C6490870002046490870FA
:100F200000204649087000204549087000204549C6
:100F300008700020BF490870002043490870002055
:100F4000BD490870300000F01DFE6946087568460E
:100F5000007D002804D101203C49087000F0F6FC17
:100F600000203A4908703B20314908703B200400BA
:100F7000E4B20A2C01DA00F0BCFCA41E3448049050
:100F800034480390C3480290C34801904F2000901A
:100F900001233148E4B20019827831002000C0B248
:100FA00000F0DAFFBD48E4B2005D052863DAE4B280
:100FB000292C60DB29480021405624285BDB274888
:100FC000002140562D2856DAB348E4B20019807843
:100FD00005002800AF49E4B209198978C0B28842F7
:100FE0003ED214480078002812D1E4B25020604369
:100FF000EDB240193018A0380078002815D18B4880
:101000000078401C8949087001200A4908700CE0EA
:10101000E4B250206043EDB240193018A038007897
:10102000002802D00020034908706D1CD1E700BFE2
:10103000A8000020B5000020AD000020AE00002078
:10104000AF000020A9000020AB000020A700002076
:101050007CE9FF1F3CE9FF1FFCE8FF1F6EE8FF1F54
:1010600072480078042806DB704800780F2802DAFE
:1010700001206F490870AA48E4B2005D012872D1CE
:10108000A848E4B2005D00286DD1A648E4B200197A
:10109000801E0078002866D1A248E4B20019001F23
:1010A000007800285FD19E48E4B20019801E0078C5
:1010B000012858D1E4B2322C55DB78485D490978D3
:1010C000405C7649E4B20919897888424BD273486A
:1010D000E4B2001980787149E4B209190979401A1B
:1010E0000B2840DA6B48E4B2005D6A49E4B20919A2
:1010F000891E0978401A002835D48B480078674942
:10110000E4B2095D88422ED26348E4B2005D6249D0
:10111000E4B20919491E0978401A002823D45E4810
:10112000E4B2005D5C49E4B20919891E0978401AED
:10113000002818D47B48E4B200198078002812D126
:101140003C48007800280ED03B48007800280AD19F
:1011500076480078002806D101220121982001F06C
:101160006BFBFFF759F96F48E4B2005D012800D02E
:10117000A0E06B48E4B2005D002800D09AE0684827
:10118000E4B20019801E0078002800D092E0644884
:10119000E4B20019001F0078002800D08AE06148FE
:1011A000E4B20019801E0078012800D082E0E4B289
:1011B000322C00DA7EE039485C490978405C3749D6
:1011C000E4B209198978884274D23448E4B200192B
:1011D00080783249E4B209190979401A0B2869DA92
:1011E0002D48E4B2005D2C49E4B20919891E097842
:1011F000401A00285ED44C4800782849E4B2095DC2
:10120000884257D24A480078002853D14448E4B273
:10121000005D4349E4B20919491E0978401A0028C3
:1012200048D43F48E4B2005D3D4907E0B4000020E7
:10123000B3000020AA000020AC000020E4B209198D
:10124000891E0978401A002834D4384800780028CC
:1012500030D0BA48007800282CD1B948007800284E
:1012600028D13048E4B20019001F0078002821D0AE
:101270002B48E4B20019001F007800281AD12B482F
:101280000078002816D0AD480078002812D1AC486C
:1012900006E000BFBCE8FF1F7CE8FF1F3CEAFF1F21
:1012A0000078002806D101220121982001F0C4FA1B
:1012B000FFF7D7F8E4B2392C00DBB3E1E4B21F2C1E
:1012C00000DAAFE19F48E4B2005D322800DBA9E11B
:1012D0009D480078002800D1A4E1CF48007800287C
:1012E00000D09FE1CD48E4B200198078CB49E4B248
:1012F000095D401A042800DBC4E0C948E4B20019C3
:101300008078801DC649E4B2095D884200DBB9E0FF
:1013100006480078002800D0B4E001480AE000BF89
:10132000FCE9FF1FBCE9FF1FA5000020A900002069
:10133000B7000020E4B2005D002800D0A2E0B84869
:10134000E4B2001980780500EDB2B548E4B2005D62
:10135000401E85422EDAE4B250206043EDB24019BF
:101360003018A038007800280CD0E4B25020604338
:10137000EDB2401930189C380078002802D1C948D5
:10138000057015E0E4B250206043EDB2401930180A
:10139000F038007800280BD0E4B250206043EDB262
:1013A00040193018EC380078002801D1BD4805708C
:1013B0006D1CC9E7BB480078002800D132E198488D
:1013C000E4B2005DB7490978401A052800DA29E13E
:1013D0009348E4B2005DB34909784018022101F056
:1013E00093FDB04908702500E4B220001E38EDB22C
:1013F000A84200DB16E1EDB250206843A949097804
:101400004018305C00283BD0EDB250206843A5491D
:1014100009784018301850380078002830D0EDB2E4
:10142000502068439F49097840183018A038007848
:10143000002825D0E4B2502060437949E4B2095D28
:10144000401830189F380078002819D0E4B2502096
:1014500060437349E4B2095D401830189D38007844
:1014600000280DD0E4B2502060436D49E4B2095D1C
:10147000401830189B380078002801D0CB48047001
:101480006D1EB1E76648E4B2005D6549E4B2091932
:101490008978401A042800DBC4E06048E4B2005DAB
:1014A0005E49E4B209198978891F884200DBB9E0F6
:1014B00023480078002800D0B4E0BD48E4B2005DC5
:1014C000002800D0AEE05548E4B20019807805004D
:1014D0005248E4B2005D401CEDB2A84236DAE4B2F4
:1014E00050206043EDB240193018A0380078002831
:1014F0000CD0E4B250206043EDB240193018A4384B
:101500000078002802D16748057015E0E4B2502049
:101510006043EDB240193018F038007800280BD045
:10152000E4B250206043EDB240193018F43800782E
:10153000002801D15B4805706D1EC9E7AB00002093
:10154000AA0000203CEAFF1FA300002055480078B5
:10155000002867D0534800783049E4B2095D401A4A
:1015600005285FDB2D48E4B2005D4E49097840183C
:10157000022101F0C9FC4B4908702500E4B22000AB
:101580001E38EDB2A8424DDAEDB25020684345490D
:1015900009784018305C00283BD0EDB250206843F9
:1015A000404909784018301850380078002830D069
:1015B000EDB2502068433B49097840183018A038F4
:1015C0000078002825D0E4B2502060431349E4B2EB
:1015D000095D40183018A1380078002819D0E4B20D
:1015E000502060430D49E4B2095D40183018A3381B
:1015F000007800280DD0E4B2502060430749E4B2DF
:10160000095D40183018A5380078002801D09B48A3
:1016100004706D1EB2E700BFB30000207CE9FF1F1D
:101620003CE9FF1F9648E4B2005DC9490978891C6E
:10163000884247DB5E48E4B20019807800280ED06B
:10164000C448E4B2005DC449E4B209198978491E6E
:10165000884212DA01205649E4B208550DE0BD482F
:10166000E4B2005DBB49E4B209198978491E884299
:1016700003DA01204E49E4B20855B848E4B2001933
:101680008078002810D0B648E4B200198078401C59
:10169000B449E4B2095D884214DA0120AF49E4B2EA
:1016A00008550FE0AF000020AE48E4B20019807882
:1016B000401CAC49E4B2095D884203DA0120A74925
:1016C000E4B208553A48E4B2005D002832D0E4B2F2
:1016D000372C14DBA048E4B2001980789E49E4B2AC
:1016E00008553520A04908700020A04908609A4894
:1016F000E4B2005D01F062FC9D49086039E09A485F
:10170000007800280AD198480470934B96480278D4
:10171000121DD2B29649954800F04FF994480268DC
:10172000924801682000C0B200F00EFA8A49E4B283
:1017300008551EE08F48007800281AD18A480078A2
:10174000002816D08348E4B2025D8248E4B2001952
:1017500081788048E4B20019007900F023F901F0A3
:101760003DFC07003800844901F044FC01D2814867
:1017700004707A48E4B2005D002836D0E4B2372C19
:1017800018DB7748E4B2001980787549E4B208554F
:1017900035207A4908700020794908607048E4B221
:1017A000005D01F00BFC774908603DE0AD000020D2
:1017B000BCE9FF1F7148007800280AD16F48047007
:1017C000674B6E480278121DD2B26E496C4800F029
:1017D000F4F86C4802686A4801682000C0B200F062
:1017E000B3F95F49E4B208551EE067480078002865
:1017F0001AD162480078002816D05A48E4B2025D37
:101800005848E4B2001981785648E4B200190079CA
:1018100000F0C8F801F0E2FB070038005B4901F076
:10182000FDFB01D8584804704D48E4B2005D4A49B8
:10183000E4B2095D401A5649E4B2085555480078AB
:1018400000281FD04848007800281BD0494800785D
:10185000002817D150480078002813D04748007856
:1018600000280FD04848007800280BD14B48E4B23C
:10187000001980784949E4B2085510E0AE00002014
:101880003CEAFF1F3648E4B2005D3349E4B2095D2B
:101890004018022101F038FB4049E4B208553C48A9
:1018A000E4B2005D2A490978884204D23848E4B29B
:1018B000005D274908705E4804702E4800780028B3
:1018C00001D1FFF755FB30480078002801D1FFF720
:1018D0004FFB3348E4B2005D002806D11F48E4B254
:1018E000005D002801D1FFF743FB2000801C504918
:1018F00008701D480078002823D020480078002870
:101900001FD01C48007800280BD0254801901248B1
:101910000090104B3200174801781348007800F00F
:10192000BBFB1948007800280BD00C4801900C48EC
:1019300000900C4B3200144801781048007800F0F9
:10194000ABFB31003A48007800F06EFC07B0F0BD08
:10195000A50000207CE8FF1F3CE9FF1FFCE9FF1FFA
:101960007CE9FF1FBCE8FF1FA9000020BCEAFF1FA5
:1019700090E4FF1FAB000020FFFF3FC0AA00002043
:10198000C0EAFF1F94E4FF1FAC00002000004040AD
:101990007CEAFF1FF7E9FF1F37EAFF1FFCE8FF1F84
:1019A000BCE9FF1F70B40300CE1A3400561A35008C
:1019B0002E1B300040B270BC7047F0B583B00600FB
:1019C0000F0014001D00E4B228190079E4B2295D6B
:1019D000401A01F047FB02000B000020584901F0BB
:1019E0004BFB0022574B01F009FC01F068FC306012
:1019F000E4B2285D01F026FB02000B0000205049F4
:101A000001F03AFB00900191E4B2200001F0D6FA17
:101A1000316801F085FC01F0DBFC02000B0000984E
:101A2000019901F051FD01F04AFC3860F7BD00005A
:101A3000A8000020F2B582B0070016001C00089D27
:101A400009A8007801283DD1F6B2A85D1430E4B2AF
:101A5000295D401A01F006FB02000B000020384906
:101A600001F00AFB00900191F6B2E4B2301B01F0E4
:101A7000F9FA02000B000098019901F0BFFB01F098
:101A80001EFC3860E4B2285D01F0DCFA02000B00B5
:101A900000202B4901F0F0FA00900191E4B22000FF
:101AA00001F08CFA396801F03BFC01F091FC020076
:101AB0000B000098019901F007FD01F000FC02996C
:101AC00008603CE0F6B2A85D1438E4B2295D401A23
:101AD00001F0C8FA02000B000020194901F0CCFA0D
:101AE00000900191F6B2E4B2301B01F0BBFA0200A3
:101AF0000B000098019901F081FB01F0E0FB3860D8
:101B0000E4B2285D01F09EFA02000B0000200C49AF
:101B100001F0B2FA00900191E4B2200001F04EFA17
:101B2000396801F0FDFB01F053FC02000B00009846
:101B3000019901F0C9FC01F0C2FB02990860F7BDF0
:101B40000000F03F00001040FEB506000D0014003C
:101B5000F6B2300001F032FA290001F0E1FB210079
:101B600001F029FD02904F2201210091019202987B
:101B700001F0B2FD019A009900F045FE070038001F
:101B8000C0B2FEBDF0B587B00400FFF77FF93B207F
:101B90000500EDB250206843B64909784018205C32
:101BA000002838D14F200090012305AA521C2100A3
:101BB0002800C0B200F082F807004F2000900123F7
:101BC00005AA21002800C0B200F0C1F806003800C4
:101BD0003100C0B2C9B288420AD3FFB2002F07D089
:101BE000344B354A21002800C0B200F0FAF826E054
:101BF00038003100C0B2C9B288420AD2F6B2002E13
:101C000007D02C4B2C4A21002800C0B200F04EF91E
:101C100015E000204BE09848049098480390254830
:101C20000290254801904F20009001239448EDB286
:101C30004019827821002800C0B200F08DF9914847
:101C4000007891490870914800789149087091484E
:101C5000007891490870914800789149087091483E
:101C60000078002808D090480078002804D08148E7
:101C70000078B34908700DE08448007881490978FC
:101C80004018022101F040F9AD490870AC480078D5
:101C900078490870AB480078AB490870AB480078C9
:101CA000AB490870A9480078AA490870012007B01C
:101CB000F0BD0000BCE8FF1F7CE8FF1FFEB504007C
:101CC0000D0000276846007A6946487008A8007829
:101CD000694608706846007A060008A80078310056
:101CE000C9B288421DD3FFB2002F0CD1E4B25020FC
:101CF0006043F6B28019285C002810D06846467010
:101D0000012007000BE0E4B250206043F6B28019D6
:101D1000285C002803D16846711E017001E0761C22
:101D2000DBE7FFB2002F01D100200FE0684600780A
:101D3000694649784018022101F0E6F801990870D7
:101D40006846007869464978401AC0B2FEBDFEB5C3
:101D500004000D0000266846007A6946487008A80D
:101D600000786946087008A80078070038006946BE
:101D7000097AC0B288421ED3F6B2002E0CD1E4B26A
:101D800050206043FFB2C019285C002811D068467B
:101D90000770012006000CE0E4B250206043FFB25F
:101DA000C019285C002804D169463800401C4870DE
:101DB00001E07F1EDAE7F6B2002E01D100200FE02D
:101DC00068460078694649784018022101F09CF87D
:101DD000019908706846007869464978401AC0B28F
:101DE000FEBDF0B5040000200126E4B216554F26D2
:101DF000E4B21E5501263500EDB2502D1DDAC0B2F9
:101E000000280CD1E4B250266643EDB276198E5DFF
:101E1000002E10D0E4B21555012630000BE0E4B2DC
:101E200050266643EDB276198E5D002E03D16E1EEC
:101E3000E4B21E5501E06D1CDEE7C0B2002817D0E9
:101E4000E4B2175D0D4EE4B23755E4B21F5D0A4EA1
:101E5000E4B23755E4B21E5DE4B2175DF71B8C4E59
:101E6000E4B237558A4EE4B2375D8A4EE4B2375554
:101E7000C0B2F0BD39E9FF1F7CE9FF1F3CE9FF1F3D
:101E8000FCE8FF1FB7E8FF1FB9E8FF1FF7E8FF1FD7
:101E9000F9E8FF1F77E9FF1F79E9FF1FB7E9FF1F87
:101EA000B9E9FF1FF7E9FF1F37EAFF1FF0B504008C
:101EB00000200126E4B216554F26E4B21E554F26E7
:101EC0003500EDB2002D1ED0C0B200280CD1E4B216
:101ED00050266643EDB276198E5D002E11D0E4B225
:101EE0001D55012630000CE0E4B250266643EDB2E9
:101EF00076198E5D002E04D12E00761CE4B21655A4
:101F000001E06D1EDDE7C0B2002817D0E4B2175D16
:101F1000BF4EE4B23755E4B21F5DBE4EE4B2375552
:101F2000E4B21E5DE4B2175DF71B594EE4B23755BB
:101F3000574EE4B2375D574EE4B23755C0B2F0BDEC
:101F400037E9FF1F77EAFF1F79EAFF1FB7EAFF1F94
:101F5000B9EAFF1FA5000020F4B50200089C099D06
:101F60000127AD48D2B287540127AC48D2B287547A
:101F70006846007ED2B2A0540798D2B28354684615
:101F800000780600F6B2DBB21800401C86421DDB6A
:101F9000D2B250205043F6B28019085C002813D109
:101FA000D2B250205043F6B280190818401E007873
:101FB000002809D100279848D2B287540798D2B296
:101FC0008654D2B2AE5401E0761EDBE76846007854
:101FD00006006846007E401EF6B2B0421CDBD2B25C
:101FE00050205043F6B28019085C002812D1D2B2BA
:101FF00050205043F6B2801908184078002809D1C3
:1020000000278648D2B28754D2B2A6540A98D2B2D8
:10201000865401E0761CDCE77F48D2B2805C002861
:102020000DD0D2B2372A05DB07983B27C05DD2B26C
:10203000A85404E0D2B2A8188078D2B2A854774845
:10204000D2B2805C00280FD0D2B2372A05DB3B2009
:10205000275C0A98D2B2875406E00A98D2B2801858
:1020600087780A98D2B28754D2B2A05C079FD2B2C6
:10207000BF5CC71B0648D2B287540A98D2B2805CB4
:10208000D2B2AF5CC71B0348D2B28754F1BD000087
:102090003CEAFF1F7CEAFF1FFCB587B004000D007F
:1020A0000E9EE4B2372C02DB3B20040000E0241D2E
:1020B0000F983B21405C002846D0EDB2584800788C
:1020C000001D854240DB3B200400EDB27019001F6B
:1020D0000078EDB2715D401A00F0C4FF02000B0001
:1020E0000020504900F0C8FF00900191EDB2281F78
:1020F000EDB2401B00F0B6FF02000B000098019902
:1021000001F07CF801F0DBF80390EDB2705D00F0B7
:1021100099FF02000B000020424900F0ADFF009043
:102120000191EDB2280000F049FF039901F0F8F8A1
:1021300001F04EF902000B000098019901F0C4F97A
:1021400001F0BDF804903AE0E4B2305DEDB2715DAB
:10215000401A00F087FF02000B000020314900F018
:102160008BFF00900191E4B2EDB2601B00F07AFFAA
:1021700002000B000098019901F040F801F09FF86F
:102180000390E4B2305D00F05DFF02000B00002020
:10219000244900F071FF00900191E4B2200000F0AA
:1021A0000DFF039901F0BCF801F012F902000B00D9
:1021B0000098019901F088F901F081F804906846CF
:1021C000057220006946097AC0B288421ED368466B
:1021D0006946097A891C01726846007A00F0EEFEB1
:1021E000039901F09DF8049901F0E5F905904F225B
:1021F000012100911700059801F06EFA3A0000994C
:1022000000F001FB6946097A7054DAE709B0F0BDC5
:102210003CE9FF1F7CE9FF1FBCE9FF1FFCE9FF1F32
:10222000A80000200000F03FF2B582B00700C748C8
:102230000078C7490870C7480078C74908703D2032
:102240000400E4B2FFB23800801C844200DA5FE18F
:10225000A41EC248E4B2005D00281CD0C048E4B20D
:10226000005D002817D0BF48E4B2005DBE49E4B26B
:10227000095D4018022100F047FEBC49E4B2085550
:10228000B848E4B2005DB849E4B2095D401AB84903
:10229000E4B20855A0E0B148E4B2005D00284BD09C
:1022A000B148E4B2005D01282DD1B2480078002881
:1022B00029D1AC48E4B2015D0091AD48E4B2001907
:1022C0008078022100F020FE0099091A0091A548AB
:1022D000E4B200198078A349E4B2095D401A0221F2
:1022E00000F012FE0099081806009E48E4B2005D56
:1022F000801B022148439E49E4B2085576B2012E64
:1023000016DAA41C04E19748E4B2005D9649E4B2F1
:10231000095D4018022100F0F7FD06009148E4B283
:10232000005D9149E4B2095D401A9149E4B2085553
:102330008E48E4B206554FE08948E4B2005D0028BB
:102340004AD08848E4B2005D4F282DD18A480078F1
:10235000002829D18448E4B2015D00918448E4B2A8
:1023600000198078022100F0CFFD00990918009132
:102370007D48E4B2005D7C49E4B209198978401ACD
:10238000022100F0C1FD0099081A06007648E4B267
:10239000005D301A022148437549E4B2085576B20F
:1023A000502E16DBA41CB3E06E48E4B2005D6E490B
:1023B000E4B2095D4018022100F0A6FD060069485C
:1023C000E4B2005D6849E4B2095D401A6849E4B2CC
:1023D00008556648E4B206556848007800282CD0B5
:1023E0000120019066480090644803783B22AB4985
:1023F000AB48FFF71FFB3B20050028005F49097829
:10240000C0B2884219D3A5480268A54801682800CF
:10241000C0B2FFF799FB5449EDB248555148EDB2AF
:10242000405D5149EDB2495D4018022100F06CFD5C
:102430004E49EDB248556D1EDFE79A4800780028F6
:102440002CD00220019098480090964803783B22B7
:1024500096499748FFF7EEFA3B200500280091497E
:102460000978C0B2884219D3904802689048016840
:102470002800C0B2FFF768FB3A49EDB24855394829
:10248000EDB2405D3849EDB2495D4018022100F0DF
:102490003BFD3649EDB248556D1EDFE72C4800780C
:1024A0003149E4B2095D884204D22F48E4B2005DAC
:1024B000274908702B48E4B2005D27490978884213
:1024C00004D22848E4B2005D234908700298E4B2BF
:1024D00050216143244AE4B2125D8918401800215A
:1024E00081700298E4B2502161431E4AE4B2125D49
:1024F00089184018801E002101700298E4B2502112
:1025000061431A4AE4B2125D89180022425498E6E7
:102510006E4800786E4908706E480470154800785F
:10252000002806D0104B134802785C495C48FFF73E
:1025300044FA11480078002806D00A4B0E48027869
:102540005A495B48FFF739FAF7BD000077E9FF1FEA
:10255000B1000020B7E9FF1FB2000020BCE9FF1F57
:10256000FCE9FF1F7CE9FF1F3CE9FF1FFCE8FF1FA0
:102570007CEAFF1FAB000020AC000020AD00002073
:102580007CE8FF1FFEB50026002553480078002890
:1025900003D150480078392809DB544800780700F7
:1025A0004F480078002802D001204E4908704B485F
:1025B000007800280AD04D48007807004848007885
:1025C000002843D00120474908703FE04148007887
:1025D000152802DA15203F4908703D200400E4B2B6
:1025E0003C480078801C844213DBA41E4048E4B2BF
:1025F000005D3D49E4B2624289183B22895C484350
:1026000036183948E4B2614240183B21405C2D182D
:10261000E5E74E220221009101923000290000F0EE
:1026200073FC019A009900F0EEF807004E22022197
:10263000FFB2380000F0E7F807002C480770684642
:102640002B49244A12788918897801722821684612
:10265000007A00F02FF840B200F004FD02000B00F9
:1026600024A003C800F008FD009001912821380043
:10267000C0B200F01FF800F0F5FC02000B001FA034
:1026800003C800F0F9FC009A019B00F0BAFE01F0CB
:1026900041F81C4908703800C0B2FEBD90E4FF1F2D
:1026A000BCEAFF1FAE000020BCE8FF1F94E4FF1F40
:1026B000C0EAFF1F00B50300CA1A100040B201288B
:1026C00002DA020052B2504240B200BD37E9FF1FA9
:1026D00039E9FF1FA8000020A7000020B300002058
:1026E000A3000020A200002054E4FF1F6EE8FF1F9B
:1026F000FCE8FF1F9A9999999999E93F9A999999B4
:102700009999C93FA600002010B504000D48007833
:10271000002807D10C480078012803D12000FDF7DC
:10272000D3FE0EE007480078012807D1064800785C
:10273000002803D12000FEF773F902E02000FEF725
:10274000DDFB10BDB6000020B70000209620400041
:1027500033490880704780B5FFF7F8FF3048002103
:10276000425E30480168304801F06AF82F49096834
:1027700008182E4908602D480068012814DBFA2249
:10278000520000212948006800F03DF82749086000
:1027900000220021022000F04BFA244802680121A7
:1027A000022000F045FA13E0002221491F4800688A
:1027B00000F029F81D4908601C48006842420021C9
:1027C000022000F035FA00220121022000F030FA48
:1027D00001BD80B5002000F036FB124908600120E1
:1027E00000F029FB0F4800681249884204DBFA20F8
:1027F000C0000C49086003E00A4800680949086005
:10280000FFF7A9FF01BD00B50300934201DB1000F3
:1028100004E0994201DB080000E0180000BD000060
:102820009800002078E8FF1F1000002074E8FF1FC8
:102830000CFEFFFFD107000070B504000E0015006C
:1028400076B2002E13D15B48E4B2611104225143E9
:1028500040585849E4B2621104235A4389584969DF
:102860000122E306DB0E9A40914341613CE051486E
:10287000E4B261110422514340584E49E4B262115E
:1028800004235A43895849690122E306DB0E9A4022
:102890000A434261EDB2002D13D14648E4B2611102
:1028A00004225143405800680121E206D20E9140B3
:1028B00088434049E4B2621104235A4389580860AE
:1028C00012E03C48E4B261110422514340580168CF
:1028D0000120E206D20E904008433649E4B262116C
:1028E00004235A4389580860802149002000C0B25F
:1028F00000F0FEFF70BD38B504000D002D48E4B2B5
:1029000061110422514340584069E106C90EC84094
:10291000C00703D46921284801F050F8EDB2002D1A
:1029200013D12448E4B26111042251434058006895
:102930000121E206D20E914088431E49E4B26211A1
:1029400004235A438958086012E01A48E4B261111E
:1029500004225143405801680120E206D20E904003
:1029600008431449E4B2621104235A4389580860A9
:1029700031BD10B504000F48E4B261110422514387
:1029800040584069E106C90EC840C00703D59221EE
:10299000094801F013F80748E4B2611104225143D9
:1029A00040580169E006C00EC1400800C007C00FD2
:1029B00010BD000054E6FF1F548E000038B504001F
:1029C0000D0064B2002C03D0022C55D039D36EE038
:1029D00096480068802149040143944801606DB223
:1029E000002D08D0022D12D00BD3042D1BD014D3F0
:1029F000052D1ED023E0C0218900982000F078FF2B
:102A00001EE0C0218900992000F072FF18E0C0216B
:102A100089009D2000F06CFF12E0C02189009E20FB
:102A200000F066FF0CE0C02189009F2000F060FFED
:102A300006E0C02189009A2000F05AFF00E036E04D
:102A400035E07A48006880218904014377480160B5
:102A50006DB2002D02D0012D06D00BE0C0218900FF
:102A6000202000F045FF06E0C02189000D2000F085
:102A70003FFF00E01BE01AE06C4800688021C904B9
:102A800001436A4801606DB2002D02D0012D06D0CD
:102A90000BE0C0218900322000F02AFF06E0C021AF
:102AA0008900332000F024FF00E000E0FFE731BDA3
:102AB000FCB583B006000F0076B2002E02D17FB2C3
:102AC000062F0CDB76B2012E02D076B2022E02D196
:102AD0007FB2022F03DBD8218D4800F06FFF390051
:102AE00049B2300040B2FFF769FF8A4800688A495E
:102AF0004843401001900198000C039900F007FA38
:102B0000040000200500A4B220002841012801DBB8
:102B10006D1CF8E7EDB2082D03DBF3217C4800F0D3
:102B20004DFF0198E840039900F0F1F9040076B2F6
:102B3000002E03D0022E18D00CD321E00498A4B2AA
:102B40002100491C4843FA21890000F0E0F9694658
:102B5000088015E00498A4B22100491C48436F493D
:102B600000F0D5F9694608800AE00498A4B2210073
:102B7000491C48436A4900F0CAF969460880FFE7E2
:102B8000684876B20421714340587FB208217943E6
:102B90004018644976B20422724389587FB20822F1
:102BA0007A438918C96804229143C1605D4876B2AE
:102BB0000421714340587FB20821794340182821ED
:102BC000C16059480068594901405748016056485A
:102BD000006880214904014353480160EDB2690750
:102BE000490F082008434F4976B20422724389589E
:102BF0000860A4B24B4876B2042171434058846007
:102C0000484876B20421714340587FB20821794385
:102C100040186946098801610020424976B20422C1
:102C200072438958486005B0F0BD00003C80044004
:102C3000F8B505000F00160000246DB2002D02D17A
:102C40007FB2062F0DDB6DB2012D02D06DB2022DC9
:102C500002D17FB2022F04DBFF2130312C4800F07B
:102C6000ADFE6DB2002D03D0022D13D009D31AE0B2
:102C70002F48864204D39A214900254800F09EFE41
:102C800011E02C48864204D39C214900204800F0E2
:102C900095FE08E02848864204D39E2149001C483E
:102CA00000F08CFEFFE71F486DB2042169434058D5
:102CB00080680400002CF6D06DB2002D03D0022DE8
:102CC00012D009D318E02000401C7043FA2189007B
:102CD00000F01DF900900FE02000401C70430F49E8
:102CE00000F015F9009007E02000401C70430C49EB
:102CF00000F00DF90090FFE70A486DB20421694326
:102D000040587FB208217943401800990161F1BD14
:102D1000E48E00002C00002040420F0060EA00001A
:102D200010270000B0E6FF1F04800440FFFFFFFCF7
:102D3000E903000061EA00001127000070B50400FB
:102D40000E0015006DB2082D04DBFF21F43142485E
:102D500000F034FE64B2002C03D0022C11D008D352
:102D600017E0414800688021490401433E48016062
:102D700013E03D4800688021890401433A4801601E
:102D80000BE0394800688021C904014336480160DE
:102D900003E03649304800F011FE76B2002E0DD126
:102DA0003348006880214904A140884330490860C5
:102DB0008021C900302000F09BFD15E076B2012E85
:102DC0000DD12B48006880214904A14001432848C7
:102DD00001608021C900312000F08AFD04E08521D6
:102DE00089001D4800F0EAFD1D4800681D490140AA
:102DF0001B4801601A4800688021490401431848B3
:102E000001606DB26807400F10210143134864B29E
:102E100004226243805801601648104964B20422BB
:102E200062438958886000200C4964B204226243DE
:102E30008958486070BD0021084A40B204234343CA
:102E4000D25851607047054940B204225043085897
:102E5000406880B270470000E48E0000B0E6FF1FBB
:102E600004800440FFFFFFFC3C800440050200009A
:102E70000C800440FFFF000010B50400002C16D0A9
:102E800080204004844203D329210F4800F096FD9E
:102E900000200E4908600E48046000200D490860BB
:102EA00005200A49086009480068C003FBD510BD29
:102EB00010B504002000441E002804D00648006815
:102EC000FFF7DAFFF6E710BDC08D000010E000E06C
:102ED00014E000E018E000E030000020F446002894
:102EE00004D4494200F013F84042604740420029B0
:102EF00005D45FD000F00BF8404249426047494298
:102F000000F005F84942604703460B43E6D400222F
:102F1000030A8B420BD203098B4219D243088B421E
:102F20002ED2411A00D20146524110467047FF226C
:102F300009023FD012068B4205D3121209028B42BE
:102F400001D31212090203098B4219D300E0090AC6
:102F5000C3098B4201D3CB01C01A524183098B4272
:102F600001D38B01C01A524143098B4201D34B015B
:102F7000C01A524103098B4201D30B01C01A5241BE
:102F8000C3088B4201D3CB00C01A524183088B4245
:102F900001D38B00C01A524143088B4201D34B002E
:102FA000C01A5241884200D3401A5241CFD2014642
:102FB0001046704708B500F02BFD08BD9D210200AA
:102FC0000AD002D4491E9218FCD5C905100A12066F
:102FD000524100D3012A4841704700009D21020060
:102FE000EED55242F446FFF7EBFF0122D207104321
:102FF0006047FF000CB4012212060318DA4207D81A
:103000004B18DA4204D802000A43921802D28842CE
:103010000CBC7047FCD08142FAE700000CB40122DE
:1030200012060318DA4207D84B18DA4204D8020015
:103030000A43921802D281420CBC7047FCD08842ED
:103040000CBC7047010042221201D21E004207D080
:1030500002D4521E0018FCD5C10A40051205891879
:10306000704700000100EED54042F446FFF7EBFF49
:103070000122D20711436047F0B50E005E400125E2
:10308000ED072E40B446AE0ADF184C18F44208D2C1
:10309000F7420ED2640D01D07F0D12D1002061469F
:1030A000F0BD05D1F74201D87F0D05D10020C14305
:1030B000F0BDFBD1640DF9D00020C143490549089A
:1030C0008FE0E419C902DB0229432B43DB0A460DDA
:1030D000C00231438E4630B487B295B27D432E0C88
:1030E000ADB2140C7C43A419260C240425439CB2D5
:1030F0007C43A419190C7943270CC919A4B20F04F5
:103100003C43090C000C97B247432E0CBE193543C3
:10311000ADB2170C4743360CBF19A6B2BF193E0417
:103120003543240C3E0C36199FB24743BF19BCB23D
:103130003E0C89191F0C47437F183E043443390C59
:10314000704680B297B247432E0CBE193543ADB2DC
:10315000170C4743360CBF19A6B2BF193E043543BE
:10316000240C3E0C36199FB24743BF19BCB23E0C2B
:1031700089191F0C47437F183E043443390C7746A6
:103180003F0C90B278432E0C80190604ADB22E434A
:10319000050CA0B22D18120C7A435019020C80B203
:1031A000240CA4189AB27A43121914042043120C66
:1031B00089181B0C7B43C91830BCEF0A394203D174
:1031C000B61940414941641E6F12BF0DE41B0BDB71
:1031D000FF19BC4211DA240500274208AE417841AC
:1031E000614166463143F0BD641C05D1401C61411C
:1031F000CF0201D34908F4E750E75DE7F0B40E00D1
:103200005E400125ED072E40B446AE0ADF184C188B
:10321000F4423BD2F74241D2640D43D07F0D38D007
:10322000E41BC902DB0229432B43CF0ADB0A060059
:10323000B61A9F4104D2641EB6197F41B6185F4189
:103240006812800D24180018844222DAE80C00214C
:10325000B6197F41B61A9F4102D2B6185F413F1C92
:1032600040414941F4D3241C21DD2405B6197F4196
:10327000B61A9F4105D33743C60737430026012FAF
:103280007041614166463143F0BC7047FCD1F74262
:1032900005D20020C14349054908F3E704D00020C6
:1032A000C143F1E77F0DFAD000206146ECE72442EC
:1032B000FAD1401C61410F03F6D30020E2E701225E
:1032C00052054B18DA4201D9581570475B0D072299
:1032D000D2019B1A10D9FF2B1DD2DB050122D20788
:1032E0000A4013430903020D1143490AC200524127
:1032F00000D9491CC81870470AD1800A0A03024342
:103300005212921C04D9D3070B40D00518437047C2
:10331000C80FC0077047C80F0002FF30C0057047D4
:1033200030B405004D400122D20715404B18041857
:10333000240E2ED01B0E32D0FF2C34D0FF2B3AD0CF
:10334000E4180002090210431143000A090A9446D6
:10335000C2B24A43000AC3B24B43000A4843110AAF
:103360005B181A43D2B2190A091801D44918641E0D
:10337000080A7F3C23DBFE2C08DAE405090611432A
:10338000634699416041284330BC7047FF20C00527
:10339000F9E728001B0EFF2BF6D1D043F4E72800F5
:1033A000FF2CF1D1F9E74002F7D1FF2B01D14902FF
:1033B000F3D1E005E7E7D8054902E4D0EDE74302A1
:1033C0000020641CDFD15B129B1CDCD9D805DAE736
:1033D000012212060118CA420AD28A420DD83822A6
:1033E000120609098918C20FD20711434007704716
:1033F00000D049080909014301E0C10FC9070020B5
:103400007047F0B40125ED070F005F404FD48B42A9
:1034100000D1824205D98446100062468C461900CC
:103420006346DF184C18640D7F0D3AD0661C760594
:1034300037D0E61B352E34DCDB022B43DB0A0C0DC8
:10344000C9022943C912202E0DDB1700203E06D0E9
:103450001F00F741F3405F400026012A7741C01862
:1034600071410DD217E01700F741F2405740F34188
:103470005A40B340F3405A400026801859410AD3BD
:10348000A21C52050FD0C207012F7241170040083D
:10349000CB0718434908641C24054208AF4170411A
:1034A0006141F0BC7047641C21050020F9E76B40C6
:1034B00010E06B40ABE7F742F3D1E943F1E7244278
:1034C000EFD100200021ECE7F0B40125ED070F005B
:1034D0005F40EED40C00871A9C4105D2C01BA1416D
:1034E000D219634169406B40AE0ADF184C18F442B0
:1034F000E1D2640D7F0DE2D0E61B362ED1DCDB027B
:103500002B43DB0AA4460C0DC9022943C90A012E2C
:1035100028DC04D1D6075208DF073A435B08EF0ADC
:1035200076429041994114D039423BD1B61940417D
:103530004941761C394204D1761C00184941394270
:10354000FAD0B9436746B74208D9A41B24052143E2
:10355000A7E70042EAD13642E8D1A2E7E40AE10750
:1035600000209EE7202E0BDD203E1F00F340F74198
:103570005F40012A002257417E42984191410BE071
:103580001700F741F2405740F3415A40B340F3402F
:103590005A407E42904199410A0303D2641EB619F3
:1035A000404149410027641E24054208AE4178414C
:1035B0006141F0BC70470122D20703004B402ED47A
:1035C000431A01D2C01AC91830B44B180418240E7B
:1035D0001B0E22D0FF2C20D0E31A182B1DDC090271
:1035E0001143C40D641E0002104394461925ED1AC0
:1035F0000A00AA40D940451801D36D08A41CE4056F
:10360000D209280A2D062A436546AA4160410318BB
:103610001B0EFF2B01D3C00DC00530BC70475140BD
:1036200006E05140CCE70122D20703004B40F8D41A
:10363000431A03D2C01AC9185040514030B44B1835
:10364000090211430418240E1B0E40D0FF2C3AD05F
:1036500025009D410BD31ED8C50D4002401A0BD347
:10366000ED050100400AC90591416841D5E7C50D46
:1036700040024918401AD0D001214008491C0018C6
:10368000FCD58C4204D36D1A000AED054019C4E73D
:10369000E8051040C1E7182DBFDCAC1C0D00E1406F
:1036A000E5414D40012D4941C40D00021043451A2A
:1036B00001D46D199543641EE405280A2D06954131
:1036C000604130BC7047FF2BA7D1D843A5E7244207
:1036D000A3D10020A1E700000122D2070118090EA2
:1036E0007F3910D449421F310FD4001805D2C001D0
:1036F0001043C84000D5D0437047C0011043C840B4
:1037000005D440427047002070470042F3D51000B6
:1037100070470000F4464A1805D200F00FF801D5B2
:1037200080174008604700F009F80121C907884266
:1037300000D90800404260474A1812D2400DC90221
:1037400008430121C9070843520D40210901521ABB
:10375000521C06D452421F3201D4D0407047C017C9
:103760007047002070470000002101600021416087
:103770000021816070470022026000224260002226
:1037800082600022C2600A6802614A6842618A68F7
:1037900082617047F0B585B005000F001600F01B80
:1037A000040020006043FFF75DFC02000B000020D6
:1037B0004949FFF761FC00900191484848490022BF
:1037C0008A5610214A438018C068FFF74BFC02005C
:1037D0000B0000980199FFF711FD009001913F48FF
:1037E0003F4900228A5610214A438058FFF73AFC8D
:1037F000009A019BFFF705FEFFF761FD0290200094
:10380000FFF7ECFB0299FFF78BFD010000913348B5
:103810003349002289561022514340188068696854
:10382000611A4843FFF7DAFB0099FFF7C4FEFFF780
:1038300053FF03906C602B480399401A05B0F0BD0C
:10384000F0B583B004000D001600701B01900198C4
:103850006168401AFFF7C2FB2169FFF761FD0100B3
:1038600000910198FFF7BAFB6169FFF759FD0099D4
:10387000FFF7A1FE01000091019861680222514307
:10388000401AA1684018FFF7A9FBA169FFF748FD9E
:103890000099FFF790FEFFF71FFF07006068A06028
:1038A0000198606001983121C943884203DA012000
:1038B0000D4908700DE001983121C943884208DAAA
:1038C00009480078002804D00020074908700748FC
:1038D0003F183800FEBD00000000F03FC8E6FF1FA3
:1038E0009E00002048710000A0000020D4FEFFFFD1
:1038F00030B42F4A126880239B000400E4B26409AC
:10390000A34013432A4A13602A4AC0B24311042435
:103910006343D258A0230124C506ED0EAC40D45019
:10392000244AC0B2431104246343D258C0B2C30630
:10393000DB0E04246343D15030BC704730B41C4AC2
:10394000126880239B000400E4B26409A34013437F
:10395000174A1360174AC0B2431104246343D25874
:10396000A0230124C506ED0EAC40D4500A00124934
:1039700011400A000F49C0B2431104246343C958DF
:10398000C0B2C306DB0E04246343CB58E021C90058
:1039900019401143074AC0B2431104246343D2586B
:1039A000C0B2C306DB0E04246343D15030BC704761
:1039B000388004409CE6FF1FFFF8FFFF38B5050084
:1039C0000C00220029000E4800F024F8FEE738B56C
:1039D00004000D00210049B2022000F0A3F92000EC
:1039E00032BD704710B5074804680748E4B20921A2
:1039F00061434218E4B22100044800F00BF810BD06
:103A00001490000004ED00E098E4FF1FB08F000068
:103A1000704700000EB4C0B5020003A8019000205A
:103A2000009001AB0121044878440C3000F0A4F967
:103A3000029906B0084700BFF9560000F1B584B0FE
:103A40000F00AF4869468880694610200856002854
:103A500003D0022825D012D335E0AA48006880217F
:103A6000C9000143A7480160C02189000F20FFF76A
:103A70003FFFC02189000E20FFF73AFF23E0A14855
:103A800000688021090101439E480160C02189002E
:103A90004320FFF72DFFC02189001320FFF728FFE7
:103AA00011E0984800688021490101439548016070
:103AB000C02189006220FFF71BFFC021890063201D
:103AC000FFF716FFFFE7694610200856002800D0D0
:103AD000ADE08D4800688D4901408B4801608A48FF
:103AE00000688B490143884801608A480078F321C7
:103AF00001408848017000208749087087480068A5
:103B0000874948430221FFF7FFF90390042004008E
:103B1000E4B2212C66DA0398E4B22100491C79430F
:103B2000FFF7F5F90500ADB280208001854257DA34
:103B30000398ADB2E4B22100491C6943FFF7E7F9ED
:103B400002900298C01B012803DB02983900461A34
:103B500002E00298C01B4642B6B2002E05D168466C
:103B60000580E4B2684644803CE0300069468988BC
:103B700080B2884206D26846868068460580E4B2F4
:103B8000684644806D1CADB280208001854227DAF2
:103B90000398ADB2E4B22100491C6943FFF7B7F9BD
:103BA00002900298C01B012803DB02983900461AD4
:103BB00002E00298C01B4642B6B2002E05D168460C
:103BC0000580E4B2684644800CE03000694689888C
:103BD00080B2884204D268460580E4B268464480D8
:103BE000641C95E75C480078E02101400C006846C1
:103BF000008880B2000AC006C00E204356490870F3
:103C0000684600885549087055480078E021014011
:103C10000C0068464088C006C00E2043504908701A
:103C20003C4800780C2101433A48017066E04D4859
:103C30006A4610215156042251434058C178F3205E
:103C4000084048496B4610229A5604235A43895823
:103C5000C870002143486B4610229A5604235A43E9
:103C60008058817040480068FA21890048430390D9
:103C7000039810217943FFF74AF96946088068469E
:103C8000008880218901884202DB38486946088023
:103C900034486A4610215156042251434058007856
:103CA000E02101400C006846008880B2000AC1068D
:103CB000C90E21432B486B4610229A5604235A43BF
:103CC000805801706846018826486B4610229A5633
:103CD00004235A438058417022486A4610215156A5
:103CE000042251434058C1780C2008431D496B46BB
:103CF00010229A5604235A438958C87005B0F0BD63
:103D0000FFFF00003480044004800440FFFFFFF305
:103D10000000010403A0064002A006402C00002081
:103D200040420F0000B540B2002806D1104A127878
:103D30001206FBD50F4A11700DE00A4A40B2042367
:103D40004343D25812791206F7D5064A40B20423EB
:103D50004343D258D17100BD00A0064001A00640E7
:103D60000AA00640BCE6FF1F38000020FF1F00002D
:103D700004A0064007A00640F0B5A3B006000C0062
:103D8000289D00BF74A003C86F4603C7069404A80B
:103D90003B21455400200F9003961700029310E03A
:103DA0003D00260029780698039A9047069000283F
:103DB00000D1B5E00F98401C0F906D1C761EF1D11C
:103DC0003F193878252808D1002009900A900B90D7
:103DD0000C900D900E903C000FE06A460021C94304
:103DE000380001F003F8040001D10F989AE0D7D50C
:103DF0000124E5E7010001200843641C2178202903
:103E0000F8D023290FD02B2904D02D2907D0302911
:103E10000CD089E001000220084380B2EDE70200E7
:103E200004201043F9E701000820F5E70100102005
:103E3000F2E7002111910AE01199464B994205DA07
:103E40008B0059184900891830391191641C227867
:103E5000110030390A29EFD321782E2903D000210F
:103E6000C943109128E0641C22782A2A0AD10299B9
:103E70000968029A11600A68091D029B1960109274
:103E8000641C19E02D2A01D1641C00E000220021ED
:103E900010910CE0002A09D1109B2E4DAB4205DA9F
:103EA0009D00EB185B00591830391091641C217883
:103EB0000B00303B0A2BEDD304A908872578290095
:103EC00027A000F0A5FF002801D0641C00E0002519
:103ED00004A83A214554405C682804D12178682917
:103EE00001D1622005E06C2807D120786C2804D12C
:103EF000712004A93A228854641C14A808902378DD
:103F0000029A04A9039800F069F8671C002807D1F9
:103F100014AA04A9039800F001FA002800D450E77D
:103F20000020C04323B0F0BD2A2900D081E70299C8
:103F30000968029A11600A68091D029B19601192B2
:103F4000002A05D55142119102000420104380B28D
:103F5000641C81E7CBCCCC0C00000000000000000A
:103F6000686A6C747A4C00000B0062281CD06828C8
:103F70000DD06A2803D06C2823D0712821D11A686B
:103F8000D21D072082431A6003CA1A607047002AB4
:103F900019681960086803D0091D196000B217E09C
:103FA000091D196080B217E0002A196819600868B5
:103FB00003D0091D196040B20AE0091D1960C0B2A2
:103FC0000AE0002A19681960086803D0091D196001
:103FD000C1177047091D196000217047F0B583B003
:103FE0000C0016001F0025693900253900D14DE16C
:103FF0001C3900D184E0091F022900D880E00E3965
:1040000000D106E1491F59D0093979D0891E16D04F
:10401000491E34D0491E022972D9091F2FD0491FC9
:1040200000D196E0491E49D0491E00D1E1E0C91EE9
:1040300000D1FDE0891E41D0C91E3FD02CE13A21BC
:10404000615C6C2909D06069411C61613168316033
:104050000A68091D31602A5428E1316831600A6814
:10406000091D3160009200210191C94321636A4614
:10407000210000F0D1F9002800D417E103E101226A
:1040800031003A20205CFFF76FFF03C4083C002991
:1040900004DA6069411C61612D210DE0208F8107E8
:1040A00004D56069411C61612B2105E0C00722D560
:1040B0006069411C6161202129541CE0002231000B
:1040C0003A20205CFFF750FF03C4083C3820205CF6
:1040D000000710D503CC083C002901D100280AD0E4
:1040E00020203843782806D1606930212954401CAB
:1040F000411C61612F5460692818E060390084E038
:104100003268D21D07208243326003CA326003C482
:10411000083C03CC083CC80F04D06069411C6161B5
:104120002D210DE0208F810704D56069411C61615C
:104130002B2105E0C00704D56069411C6161202185
:10414000295460692818E0603900200000F07EFAE8
:10415000ACE03B20205C002804D00024E44300BFF6
:1041600054A074E03A20205C622808D0682823D04C
:104170006A2812D06C282ED071280ED02BE030681F
:1041800030600168001D3060002903D10024E44341
:104190004EA05CE0E06A087088E030683060026839
:1041A000001D3060002A03D10024E44347A04EE004
:1041B000E06AC11703C279E0306830600168001D11
:1041C0003060002904D10024E44300BF3FA03EE05A
:1041D000E06A08806AE0306830600168001D306085
:1041E000002903D10024E44338A030E0E06A0860ED
:1041F0005CE0306830600268001D30600020C04321
:10420000104003C4083CE5607821200000F062F90A
:104210004CE06C213A22A154316831600A68091DD2
:104220003160002A2AD10024E44300BF2DA00EE013
:104230003A21615C6C29EFD0306830600768001D5E
:104240003060E760002F06D10024E4432CA000F08A
:10425000EBFD201A2BE0256B002D03D5380000F074
:1042600007FE09E02A000021380000F009FE0028BE
:1042700001D0C01B00E02800A06117E0210000F081
:10428000CBF8002812D50020C04310E06069411C23
:1042900061612521295409E06069411C6161252281
:1042A0002A54380002D0481C60616F54002003B0CB
:1042B000F0BD00007072696E74665F733A20256EFF
:1042C00020646973616C6C6F776564007072696EED
:1042D00074663A2062616420256E20617267756D94
:1042E000656E74007072696E74665F733A20626105
:1042F0006420256C7320617267756D656E740000B3
:104300007072696E74665F733A206261642025730F
:1043100020617267756D656E74000000F4B506006B
:104320000C00606B6169401A216A401AA169401A49
:10433000616A401AE169401AA16A471A3820205C74
:1043400040070DD4002F0BDD3D002021A068B047B1
:10435000A06000285CD0E06A401CE0626D1EF4D1D1
:104360006369009A2100300000F0F1FC00284FD171
:10437000256A002D0ADD3021A068B047A060002822
:1043800046D0E06A401CE0626D1EF4D1A369E26889
:104390002100300000F0DBFC002839D1656A002DD7
:1043A0000ADD3021A068B047A060002830D0E06A64
:1043B000401CE0626D1EF4D1E369E068A169421817
:1043C0002100300000F0C3FC002821D1A56A002D97
:1043D0000ADD3021A068B047A060002818D0E06A4C
:1043E000401CE0626D1EF4D13820205C40070DD5E2
:1043F000002F0BDD3D002021A068B047A060002801
:1044000006D0E06A401CE0626D1EF4D10020F2BDCF
:104410000020C043F2BD0000F1B5A6B00F001400AB
:104420003E6B002E00D5864E00F036FD796B0A18E3
:1044300026A003C803AB03C3812A44D226980021D7
:1044400026900291002E2FDD03AA2168684600F015
:10445000D2FC050037D42068002801D16D1E32D46B
:10446000AE4221DB7869401981280BD300207863A4
:1044700005AA39002698FFF751FF0290002813D4AF
:1044800000207861786901902A00694605A8019B9F
:10449000C01800F007FD01984019786120680028D5
:1044A00002D0241D761BCDE70298002804D105AA6E
:1044B00039002698FFF732FF002802D100217961E8
:1044C000796327B0F0BD0020C043FAE70000000088
:1044D00000000000F2B586B0040027690A466F2A82
:1044E00001D1082507E0084620210143782901D0A1
:1044F0000A2500E010253C2603CC083C6B4603C38C
:10450000642A01D0692A0BD1002909DA684603C858
:1045100000220023121A8B41100019006A4603C2C0
:10452000684603C8002920D100281ED1206B00282E
:104530001BD1082D52D13820205C00074ED53B26D8
:1045400030204AE000290ED53821615C14220A404F
:10455000102A08D1616B6269891A226A891A0E1AB7
:10456000002E00DD266207B0F0BD0494029703958B
:10457000761E039CE517684603C822002B0000F056
:10458000BFFC3032D2B23A2A03DB6846007E513893
:10459000121802988255684603C822002B0000F0CA
:1045A000AFFC6A4603C2684603C8002901D100284F
:1045B00005D00498C068029989198842D8D3049C10
:1045C000029F039D082D09D13820205C000705D5E6
:1045D000B85D302802D0761E3020B8553C20801BB4
:1045E000A061B919E160216B8842ABDA081A206238
:1045F000208F144901402187B5E7F8B50024124DFA
:1046000006000F00009214E0C00707D522002B001F
:1046100030003900FEF730FD06000F000098401012
:1046200000902000290022002B00FEF725FD040049
:104630000D0000980028E7D130003900F4BD0000DB
:10464000FFFFFF7FEFFF000000002440F3B591B0B3
:1046500006A811990CC902A90CC120216A4612AB07
:104660001B78194311706946097861290DD0119999
:10467000096B002901D5062105E006D169460978B4
:10468000672902D10121119A116311990CC95C00AB
:104690006415641C13D1190311D00320119988618A
:1046A00012A8007861381A2804D25B497944FF3196
:1046B000693116E059497944FF31633111E05C00FA
:1046C0006415641C13D1190311D103201199886159
:1046D00012A8007861381A281BD351497944FF3158
:1046E000413103221198C06800F0DCFBD2E104A93B
:1046F0000CC104A930C99BA20CCA22402B40002443
:1047000080256D03AB4209D204A9C0C972407B4029
:104710000DE044497944FF310D31E2E71A0D8F4C29
:10472000A41804A90CC9914F1F408D4B3B4311990C
:104730000CC169460978612913D11199C9683022E1
:104740000A708A1C119BDA6012AA1278612A01D1C0
:10475000782200E058224A7011994969891C119AFF
:1047600051611199C0C97FA20CCA32403B4004D1AB
:10477000002A02D10021002483E1684600786128E4
:1047800000D0B7E01198006B002801D5212000E08F
:10479000401C01900198401C009002A803C8002210
:1047A000002300F0E2FB02D280200006474002A86E
:1047B000C0C0241F002569460D7606A8471C009836
:1047C000002800DC6DE102A803C8002280235B03FF
:1047D00000F0E4FB00D964E108004100490D0A0043
:1047E0001C32002920D0002A1EDDB9498A420ADB8A
:1047F00009054A00520802A803C80B0080200006E1
:104800000340134316E05949014012050A4302A828
:1048100003C8110010E000BF944900009449000053
:10482000984900009049000002A803C80B008020AE
:10483000000603400020190002AA03C202A803C810
:10484000FEF768FF06000098C01F009000280ADDF0
:104850003000FEF707FC02000B0002A803C8FEF7B9
:1048600033FE02AA03C2F81D072104E0401E0F22F6
:10487000324002703611002E01DD491EF6D5491E68
:1048800000D509E1401E0570F9E70A0006AB9B1848
:1048900001E0491E5B1E521E1E78AE42F9D00F2D5C
:1048A00006D106AB5B1C9B5C5B1C06AD6D1CAB5460
:1048B000002A02D506A8491C241D4A1E11D48318BB
:1048C00012AD2D781E783036F6B2392E02DD2F006B
:1048D0003A3FF6191E70521E5B1E002AF2D512AA2C
:1048E0001570119A126B002A00D4CAE04A1E119B5F
:1048F0001A63C6E002A803C80022002300F035FBBB
:1049000006D202A803C880221206514002AA03C29E
:104910007048444320007049FEF7F6FA05900720DE
:104920000599421A04DD02A803C8FFF766FE0BE0F2
:104930005042020000206949FFF75FFE02000B00B1
:1049400002A803C8FEF75AFC02AA03C26846007810
:1049500066280DD105980A300BE000BF02FCFFFF6E
:104960000000E03FFFFFFFFFFFFFFF7FFFFF0F8023
:1049700006201199096B0818142800DD1420302135
:104980006A46117606A94C1C00283CDD049002A85A
:1049900003C8FEF7D1FE10902500083504240190CD
:1049A00001980A21FEF7B3FA0F0001980A21FEF7D9
:1049B000AEFA01903037681E077001980A21FEF7A1
:1049C000A6FA0F0001980A21FEF7A1FA0190AD1E88
:1049D00030372F70641EE3D12C0008340498083857
:1049E00004900028D0DD1098FEF72CFB02000B008D
:1049F00002A803C8FEF768FD0022394BFEF73CFB16
:104A000002AA03C2C3E706A8401C221A06A8401C3B
:104A1000059C02E0521E641E401C01783029F9D02A
:104A200069460978662901D1611C06E06946097862
:104A3000652901D1012100E00021119B1B6B591850
:104A40008A4200DA511E00291BD4914204DA425CEA
:104A5000352A01DB392200E030220B00451EED181B
:104A600001E0491E6D1E5B1E2E789642F9D0392A50
:104A700002D1C25C521CC254002B02D5401E491CFC
:104A8000641C24B200940BB2020012A801781198A1
:104A900000F028F813B0F0BDC71D0098002800DD15
:104AA00091E606A8401C3A1A06A8401C01998A42C1
:104AB00000DC1100002900D513E7914200DBE4E699
:104AC00006AA521C525C072A00DCDEE60F25DCE653
:104AD000FF07000097750000A08601000000F03F6E
:104AE00084D79741F6B587B005001C0000F089F91E
:104AF0006946406A007808702F6B002C02DC0124A4
:104B00009FA008900E9E6846017F202008436628DB
:104B100001D1761C13E067287DD10320C043864273
:104B20007DDBBE427BDA761C3820285C000702D48D
:104B3000BC4200DA270036B2BF1B00D50027A969A6
:104B4000E868401836B2002E25DC491C302202707D
:104B5000002F03DC3820285C000704D56846007865
:104B6000EA685054491CA9617042874200DA7E42CB
:104B700036B270426862BF19A74200DA3C0024B224
:104B8000EC6122000899E868AB69C01800F08AF966
:104B9000381BA862C5E03200944217DA2200089957
:104BA00000F080F9A8690019A861311B6962002F23
:104BB00003DC3821695C090706D569460978EA688B
:104BC0001154E869401CE861AF62AAE0089900F05E
:104BD00069F9A8698019A41B002F03DC3821695CDE
:104BE000090704D569460978EA681154401CA86190
:104BF00024B2A74200DA3C0024B2220008988119AE
:104C0000E868AB69C01800F04DF9A8690019A861FF
:104C1000381B686285E0612911D1702012E0BC4226
:104C200004DA3820285C000700D427007F1E00D556
:104C30000027672901D1652004E0452002E04129D1
:104C400002D1502069460877A9694A1CAA610898D0
:104C50000378E86843540898401C0890002F03DC50
:104C60003820285C000718D5501CA86169460B78CD
:104C7000E9688B54002F10DD641E24B2A74200DACD
:104C80003C0024B222000899EB68181800F00AF9D9
:104C9000A8690019A861381B6862E868A96940180A
:104CA0006946097F0170002E03D42B214170871CB7
:104CB00004E02D214170871C30004642002401A8E9
:104CC0000AE00A2204A800F082F905980099087009
:104CD000049E641C0098401C009031B20029F0DC56
:104CE000012C08DC6846007F20210143652902D1A0
:104CF000302038707F1C002C0AD130203870781C8E
:104D0000089008E0641E01A8005D303038707F1CF8
:104D1000002CF7DC08970898E968AA698918401AF6
:104D2000E8613820285C1421014010290DD1686900
:104D3000A9694018696A4018E9694018A96A4018C9
:104D4000696B884201DA081A286209B0F0BDF8B52B
:104D500007000D0014000020002B10D01E00217849
:104D6000A868B847A860002807D0E86A401CE86235
:104D70000020641C761E02D0F1E70020C043F2BD83
:104D8000300000002048704730B45368D418042B1A
:104D90000BDA002909D0057825700578002D04D09C
:104DA0005B1C491E641C401CF1E7536030BC70471B
:104DB00038B514001D0000290CD0FFF7E5FF61682D
:104DC00020006A6B90470122D243811A02D0491E0B
:104DD00002D004E0012000E00020C04332BD0021E9
:104DE000616032BD80B5DA6B904702BD80B5064B7D
:104DF000FFF7DEFF02BD80B5034BFFF7F3FF02BDF7
:104E0000000002487047000020E8FF1FE8E7FF1F8E
:104E100000BFC9B200E0401C02788A4202D0002ADA
:104E2000F9D100207047000080B5002801D100BFF3
:104E300007A006490B68002B03D0222200219847C7
:104E400001E000F0D4F8222002BD00009000002014
:104E5000636F6E73747261696E742068616E646CE6
:104E600065723A20626164206D65737361676500E5
:104E7000010000E0491C0A78002AFBD1081A70479B
:104E8000C9B201E0401C521E002A03D003788B42B5
:104E9000F8D170470020704780B5FFF773FF006CB2
:104EA00002BD0000124207D08B0706D00B78491CC8
:104EB0000370401C521EF7D87047830706D00B784A
:104EC000491C0370401C521EF9D1704770B4103A4F
:104ED00003D378C9103A78C0FBD2530701D318C95D
:104EE00018C001D508C908C0D20704D30B880380B5
:104EF000891C801C002A01D50B78037070BC704798
:104F0000124224D0994228D970B500251B4202D004
:104F10000C00002109E00024012649186441944254
:104F200000D3A41A7641F8D33100012601E076417E
:104F300009D2001864416D41A41A9D41F7D2A4180A
:104F40005D41B619F5D3300022002B0070BD1B4225
:104F5000D8D108B500F050F808BD01D19042D3D2A5
:104F600002000B0000210020704730B401246405CA
:104F70004D00EC420BD85D00EC4208D80C001C43FD
:104F800064000443144304D2994200D1904230BCDF
:104F90007047FCD08B42FAD18242F8E730B401244A
:104FA00064054D00EC420BD85D00EC4208D80C00C3
:104FB0001C4364000443144304D28B4200D1824258
:104FC00030BC7047FCD09942FAD19042F8E77CB5EA
:104FD00004000E00150030002900FDF795FF009039
:104FE0004543701B0190684603C803C473BD80B578
:104FF000012000F003F801BD7047000080B500BF3C
:1050000000BF024A11001820ABBEFBE726000200D9
:1050100038B50400002508200500EDB2002D15D09C
:10502000200604D501216620FDF765FC03E0002180
:105030006620FDF760FC00216520FDF75CFC012186
:105040006520FDF758FC64006D1EE6E731BD10B524
:10505000040000216420FDF74EFC00216320FDF7D1
:105060004AFC2000C0B2FFF7D3FF01216420FDF706
:1050700042FC10BD10B5040000216420FDF73BFC8C
:1050800001216320FDF737FC2000C0B2FFF7C0FF0D
:1050900001216420FDF72FFC10BD10B50400002194
:1050A0006420FDF728FC01216320FDF724FC20008B
:1050B00080B2000AC0B2FFF7ABFF2000C0B2FFF71A
:1050C000A7FF01216420FDF716FC10BD38B50500CF
:1050D0000C00280080B2FFF7BAFF2000C0B2FFF733
:1050E000C9FF31BD80B5E9480089FFF7B0FF01BDB8
:1050F00080B500216720FDF7FEFB6420FDF7D8FE98
:1051000001216720FDF7F7FB6420FDF7D1FE01BD0B
:1051100080B5002201216320FDF78EFB00220121D2
:105120006420FDF789FB002201216520FDF784FB47
:10513000002201216620FDF77FFB0022012167206C
:10514000FDF77AFB01BD80B5FFF7E2FFFFF7D0FF67
:105150001120FFF77CFF7820FDF7AAFEB120FFF7B2
:1051600076FF0120FFF786FF2C20FFF783FF2D201D
:10517000FFF780FFB220FFF76AFF0120FFF77AFFF9
:105180002C20FFF777FF2D20FFF774FFB320FFF7E8
:105190005EFF0120FFF76EFF2C20FFF76BFF2D2035
:1051A000FFF768FF0120FFF765FF2C20FFF762FF84
:1051B0002D20FFF75FFFB420FFF749FF0720FFF71F
:1051C00059FFC020FFF743FFA220FFF753FF022043
:1051D000FFF750FF8420FFF74DFFC120FFF737FF97
:1051E000C520FFF747FFC220FFF731FF0A20FFF776
:1051F00041FF0020FFF73EFFC320FFF728FF8A2072
:10520000FFF738FF2A20FFF735FFC420FFF71FFF05
:105210008A20FFF72FFFEE20FFF72CFFC520FFF7B6
:1052200016FF0E20FFF726FF3620FFF710FFC820DD
:10523000FFF720FFE020FFF70AFF0F20FFF71AFF1C
:105240001A20FFF717FF0F20FFF714FF1820FFF7B2
:1052500011FF2F20FFF70EFF2820FFF70BFF202064
:10526000FFF708FF2220FFF705FF1F20FFF702FFCF
:105270001B20FFF7FFFE2320FFF7FCFE3720FFF780
:10528000F9FE0020FFF7F6FE0720FFF7F3FE0220ED
:10529000FFF7F0FE1020FFF7EDFEE120FFF7D7FE4D
:1052A0000F20FFF7E7FE1B20FFF7E4FE0F20FFF7BC
:1052B000E1FE1720FFF7DEFE3320FFF7DBFE2C2098
:1052C000FFF7D8FE2920FFF7D5FE2E20FFF7D2FEEC
:1052D0003020FFF7CFFE3020FFF7CCFE3920FFF75C
:1052E000C9FE3F20FFF7C6FE0020FFF7C3FE0720E0
:1052F000FFF7C0FE0320FFF7BDFE1020FFF7BAFE48
:105300002A20FFF7A4FE0020FFF7B4FE0020FFF7DD
:10531000B1FE0020FFF7AEFE7F20FFF7ABFE2B2093
:10532000FFF795FE0020FFF7A5FE0020FFF7A2FE85
:105330000020FFF79FFE9F20FFF79CFEF020FFF765
:1053400086FE0120FFF796FEF620FFF780FE002084
:10535000FFF790FE3A20FFF77AFE0520FFF78AFE5E
:105360002920FFF774FE00F05BF801BD70B5060060
:105370009C237D221D210120C04300F019F800204C
:10538000050028004149098880B288420FD20020D8
:10539000040020003D49498880B2884205D230008F
:1053A00080B2FFF77AFE641CF3E76D1CE9E770BD7D
:1053B000F8B507000C0015001E0034484089FFF7BF
:1053C00046FE3FB23812C0B2FFF754FE3800801CD0
:1053D000C0B2FFF74FFE2DB22812C0B2FFF74AFE4F
:1053E0002800801CC0B2FFF745FE28488089FFF7DF
:1053F0002EFE24B22012C0B2FFF73CFE2000C01CDB
:10540000C0B2FFF737FE36B23012C0B2FFF732FE3D
:105410003000C01CC0B2FFF72DFEFFF763FEF1BDE8
:1054200080B52C20194908810020184988718020F6
:10543000164908808020154948802A201349488150
:105440002B2012498881C8213620FFF73FFE01BD7D
:1054500038B505000C0023001D331BB2AA1E12B282
:1054600021001D3109B2A81E00B2FFF7A1FF31BD16
:1054700038B505000C00210089B2280080B2FFF782
:10548000E7FF73480088FFF708FE31BDC8EAFF1F39
:10549000F5B581B00F001E006846694609896A4665
:1054A0009288891A491C41806846F11B491C018079
:1054B00033001C331BB268460089C21E12B2390089
:1054C0001D3109B268468088801E00B2FFF770FF68
:1054D0000020050028006946098880B288420FD262
:1054E0000020040020006946498880B2884205D225
:1054F0006846008CFFF7D1FD641CF3E76D1CE9E7FB
:10550000544843881C331BB252480088C21E12B252
:105510001D210120C043FFF74BFFF7BDFFB587B04A
:10552000002400256846808C6946898B401A0290C9
:105530006846008D6946098C401A01906846808B48
:1055400003906846008C06000298012802DB0120C7
:1055500005900BE00298002802D10020059005E09C
:105560000020C04305900298414202910198012811
:1055700002DB012004900BE00198002802D10020FA
:10558000049005E00020C04304900198414201913D
:1055900001980299884202DA0298070001E0019816
:1055A00007000020694608803800401C69460988C9
:1055B00088421CDB3000010089B2039880B2FFF7FB
:1055C00057FF0298241801982D18A74204DAE41B0B
:1055D0000398059940180390AF4202DAED1B049836
:1055E0003618684669460988491C0180DCE70BB01B
:1055F000F0BDF8B507000E0015001C0033009BB28B
:105600002A0092B2310089B2380080B2FFF786FFDB
:1056100023009BB23A0092B2310089B2380080B2C6
:10562000FFF77CFF23009BB22A0092B2210089B2CF
:10563000380080B2FFF772FF23009BB22A0092B2BB
:10564000310089B2280080B2FFF768FFF1BD000089
:105650009C000020C8EAFF1FFFB583B00D9F5C4887
:105660000088694608810CA80CA9097820390170C6
:105670006846008AFFB2C019431E1BB201936846F8
:1056800081890091FFB238000221FDF73DFC0099AD
:105690000818421E019B12B26846008A010009B236
:1056A0006846808900B2FFF783FE0EA800780028C4
:1056B0003AD10020060030003900C0B2C9B2884299
:1056C00072D2FFB20C2F09D142480CA909780C22E2
:1056D00051434018F6B2805D040008E03E480CA932
:1056E0000978102251434018F6B2805D0400002072
:1056F0000500FFB238000221FDF706FCEDB285423D
:1057000010DAE00705D56846808AC0B2FFF7B2FC20
:1057100004E06846008BC0B2FFF7ACFCE4B264085A
:105720006D1CE6E7761CC6E7002006003000390055
:10573000C0B2C9B2884237D2FFB20C2F09D1254876
:105740000CA909780C2251434018F6B2805D040080
:1057500008E021480CA90978102251434018F6B2FC
:10576000805D040000200500FFB238000221FDF733
:10577000CBFBEDB2854215DA6846808A1449088071
:10578000E0070BD56846008AF6B2811989B26846EF
:105790008089EDB2401980B2FFF76AFEE4B2640876
:1057A0006D1CE1E7761CC1E768460089084908805E
:1057B0000A4843881C331BB208480088C21E12B234
:1057C0001D210120C043FFF7F3FD07B0F0BD00002D
:1057D0009C0000203478000044720000C8EAFF1FDB
:1057E000FCB583B004000E0068464480052069467D
:1057F0008880002069460880684600886946898854
:10580000884276D28F486946098822224A43805CC2
:105810000A990978884266D18A486946098822220D
:105820004A43801840780A99497888425BD133000E
:105830000F331BB222000F3212B2310009B2200026
:1058400000B2FFF7B5FD00200700FFB2202F4ADAB3
:1058500000200500EDB2082D43DA0BA800780028DF
:1058600018D178486946098822224A438018FFB235
:10587000C019022140568021294180B2084204D03B
:1058800068468089FFF709FC29E06846008AFFF72F
:1058900004FC24E0684680896949088069486946B3
:1058A000098822224A438018FFB2C01902214056BB
:1058B0008021294180B2084205D0310089B2200000
:1058C00080B2FFF7D5FD641CA4B268464088201A58
:1058D000102804D1684640880400761C01E06D1C45
:1058E000B8E77F1CB1E7684669460988491C018012
:1058F00082E7A14843881C331BB29F480088C21E20
:1059000012B21D210120C043FFF752FD05B0F0BDCA
:10591000FCB583B004000E00684644800B20694645
:105920008880002069460880684600886946898822
:10593000884276D29148694609884A224A43805C67
:105940000A990978884266D18C48694609884A22B2
:105950004A43801840780A99497888425BD13300DD
:1059600017331BB22200173212B2310009B22000E5
:1059700000B2FFF71DFD00200700FFB2482F4ADAF2
:1059800000200500EDB2082D43DA0BA800780028AE
:1059900018D17A48694609884A224A438018FFB2DA
:1059A000C019022140568021294180B2084204D00A
:1059B00068468089FFF771FB29E06846008AFFF797
:1059C0006CFB24E0684680891D4908806B48694665
:1059D00009884A224A438018FFB2C0190221405662
:1059E0008021294180B2084205D0310089B22000CF
:1059F00080B2FFF73DFD641CA4B268464088201ABF
:105A0000182804D1684640880400761C01E06D1C0B
:105A1000B8E77F1CB1E7684669460988491C0180E0
:105A200082E7554843881C331BB253480088C21E86
:105A300012B21D210120C043FFF7BAFC05B0F0BD32
:105A40009C000020908C0000FCB583B004000E0088
:105A500068464480012069468880002069460880A5
:105A60006846008869468988884276D2A048694697
:105A7000098882224A43805C0A990978884266D163
:105A80009B486946098882224A43801840780A99CF
:105A9000497888425BD133001F331BB222001F328A
:105AA00012B2310009B2200000B2FFF781FC0020E1
:105AB0000700FFB2802F4ADA00200500EDB2082D62
:105AC00043DA0BA80078002818D18948694609886C
:105AD00082224A438018FFB2C01902214056802119
:105AE000294180B2084204D068468089FFF7D5FA80
:105AF00029E06846008AFFF7D0FA24E068468089EA
:105B00001F4908807A486946098882224A438018DA
:105B1000FFB2C019022140568021294180B20842BB
:105B200005D0310089B2200080B2FFF7A1FC641CCF
:105B3000A4B268464088201A202804D168464088CC
:105B40000400761C01E06D1CB8E77F1CB1E76846D5
:105B500069460988491C018082E7074843881C334D
:105B60001BB205480088C21E12B21D210120C0438D
:105B7000FFF71EFC05B0F0BDC8EAFF1F5884000007
:105B80009C000020FCB585B005000E000C9C0D9F0C
:105B90006846C5810020694608732078002800D136
:105BA000A4E06846007B002858D18948018800910C
:105BB000FFB238000221FDF7A7F90099081AADB22B
:105BC000A84206DB82484088FFB2C01BB6B2B04292
:105BD00000DA8BE02078812803DB01206946087316
:105BE000DBE720780D2806D1FFB2F6196846C08998
:105BF0000500641C30E0FFB20C2F02D0FFB2102F62
:105C000018D10EA8007802903800C0B20190207818
:105C100000906846038B6846828A310089B228006A
:105C200080B2FFF719FDFFB238000221FDF76CF9D1
:105C30002D1811E00EA80078029010200190207815
:105C400000906846038B6846828A310089B228003A
:105C500080B2FFF701FD0835641C9EE75C480088B0
:105C6000FFB2C01BADB2A84206DB59484088FFB264
:105C7000C01BB6B2B04200DA38E0002069460873B3
:105C8000FFB2202F0ED10EA8007801900094684634
:105C9000038B6846828A310089B2280080B2FFF700
:105CA000D3FE1FE0FFB2182F0ED10EA8007801908E
:105CB00000946846038B6846828A310089B22800C6
:105CC00080B2FFF725FE0DE00EA800780190009449
:105CD0006846038B6846828A310089B2280080B208
:105CE000FFF77EFDA41CFFB2ED1956E707B0F0BD2B
:105CF0003C8D0000FDB50F0068460088E92804DAF5
:105D0000BFB2FF203230874200DB60E06846694660
:105D10000979203901713B0010331BB268460288B3
:105D2000083212B2390009B26846008800B2FFF7A3
:105D30003FFB0020060030006946097AC0B2884265
:105D400045D26846007A0C2809D12248694609796B
:105D50000C2251434018F6B2805D050008E01E4851
:105D600069460979102251434018F6B2805D05005A
:105D7000002004006846007A0221FDF7C5F8E4B26D
:105D8000844222DAE8070ED56846008C1349088061
:105D9000F6B2B91989B268460088E4B2001980B237
:105DA000FFF766FB0DE06846808C0C490880F6B270
:105DB000B91989B268460088E4B2001980B2FFF7C9
:105DC00057FBEDB26D08641CD4E7761CB3E7F7BD52
:105DD000C8EAFF1F34780000447200009C000020D5
:105DE000FAB585B005001600370000246846058224
:105DF0006846808A69464882002E2DD16846008F09
:105E000001906846808E00906846037E3022684686
:105E1000818A280080B2FFF76DFF0835102069469F
:105E2000C88168460CA90978491E0822514381811E
:105E30006846008F00906846808A694689894318C1
:105E40009BB26846C0892A1892B26846818A2800A7
:105E500080B2FFF71DFB5FE0002F06D038000A215B
:105E6000FDF755F80700641CF6E720000CA9097837
:105E7000C0B2884202D30CA800780400E4B2270024
:105E8000E4B2002C24D06846E4B2082161436918CA
