:10000000F85F00201104000075760000757600008E
:100010007576000075760000757600007576000034
:100020007576000075760000757600007576000024
:100030007576000075760000757600007576000014
:100040007576000075760000757600007576000004
:10040000FFFFFFFFFFFFFFFFFFFFFFFFFEFFFFFFFD
:1004100062B606F0E1FFFEE71248017D4218202394
:10042000D25CC274491C0175521E9241D20F827473
:100430000122C27642740EE00A48017D4218202350
:10044000D25CC274491C0175521E9241D20F827453
:100450000122C2760274C9B2042901DB00210175B0
:100460007047000094E4FF1FF0B587B00400084D0A
:100470000020A870E87028716871A871200000F051
:1004800021FF002806D16878401C6870B4E100BFE5
:1004900094E4FF1FE8782979014301D03C202870BB
:1004A0003B270594BF1EC048C619300080308278B3
:1004B0000598B900C91909018918405C002800D1C4
:1004C00065E1BA480490BA480390BA480290B64829
:1004D00001904F20009001230599F8B201F096F8A1
:1004E000372F22DB9D204000301880792978884200
:1004F0001BD3FF20400030188078012815D1DC2064
:1005000040003018007A297E01430ED101246C7519
:100510003078C02170544F220021BB4BDB5DC018E6
:10052000C01F01F023FC2102705438002B380D2825
:1005300022D2687D01281FD1FF204000301880782A
:10054000002819D19D204000301880799D21490054
:1005500071180979401A01280EDB9D2040003018DF
:1005600080789D214900715C401A05D5A87D297EBF
:10057000014301D10124AC759D2040003018007961
:100580002978884241D3A87D01283ED1287E0028C1
:100590003BD10124EC756875C82040009B49086078
:1005A0004020305C210270544F220021964BDB5DCD
:1005B000C01AC01C01F0DAFBC0217054E87D01288C
:1005C00023D1FF2040003018817800291DD1DC2183
:1005D000490071180A7A002A17D18979002914D1A3
:1005E00029789D225200B218927991420DD39D2212
:1005F0005200B2181279914207D30078002804D132
:100600008120400081490860AC76E87D012800D057
:10061000D2E0A87E012800D0CEE0282F00DACBE07F
:1006200028789D21490071188979884200D3C3E058
:10063000301F81783278521A00D5BDE00078081A50
:1006400000D5B9E0287E002800D0B5E0DC204000CD
:100650003118087A002851D1087801284ED181201C
:1006600040006A49086001220121982001F088FBBE
:10067000FF20400030188178002900D08AE00178FE
:10068000002900D086E00079002800D082E0604B8D
:1006900096225200012001F006FCC82001F0F0FC77
:1006A00001242C76372F29DBDC2040003018007A1B
:1006B000002823D1FF2040003018807801281DD168
:1006C0009D204000301880792978884216D3002276
:1006D0000121982001F054FB01246C763078C02170
:1006E00070544F220021484BDB5DC018143801F0D4
:1006F0003DFB21027054881C44490860687E012833
:1007000028D1372F26DDDC2040003018007A002861
:1007100020D1FF2040003018807800281AD1287896
:1007200008309D21490071188979884212DB002028
:100730006875A875E87528766876A87668740122C9
:100740000121982001F01CFB812040002F49086006
:1007500066308860C020305C80214900715C0A18D6
:10076000D30F9A1852108023F254081AC02149005E
:10077000711808702A78C1B2914200D22870C0B2B4
:1007800006283BDD0F2F00DB8CE6059C39E0059C3D
:100790007F1C35E01F4B962252000021012001F002
:1007A00082FB9620400079E774FBFF1F74FCFF1F5B
:1007B00034FCFF1FB4FBFF1F287E01289ED171E788
:1007C000801EC0B214490918820012181201A31C1D
:1007D000C0268E5D97190026DE55A31E8026760062
:1007E0008E5D97190026DE558023C95C511866542A
:1007F000A978891C8842E3DA07B0F0BD059CBF1CCC
:10080000FFB2AF703D20F3E714E4FF1F6CFAFF1F47
:10081000307500000884000074FBFF1FF0B587B03E
:100820000500B94C0020A070E07020716071A071CB
:10083000280000F047FD002803D16078401C60705C
:1008400059E1E0782179014301D03C2020700595E1
:100850003B25AD1EB8484619300080308278059897
:10086000A900491909018918405C002800D115E147
:10087000B2480490B2480390B2480290AE4801904A
:100880004F20009001230599E8B200F0BFFE372DFC
:1008900023DB9D20400030188079217888421CD3CA
:1008A000DF20400030188078012816D1FC2040005D
:1008B0003018007A217E01430FD10120607540205D
:1008C000305C8021490070544F2200219E4B5B5DBB
:1008D000C01A01F04BFAC021705428002B380D28A3
:1008E0001AD2607D012817D1DF20400030188078AF
:1008F000002811D19D2040003718B8793979401A65
:10090000012809DBB8783978401A05D5A07D217E09
:10091000014301D10120A0759D204000371838798E
:100920002178884217D3A07D012814D1207E002889
:1009300011D10120E075002060753078C02170541D
:100940004F220021804B5B5DC018C01E01F00EFAE3
:10095000802149007054E07D012800D0ABE0282DB3
:1009600000DAA8E02078B979884200D3A3E03E20DD
:10097000305C4021715C091A012900DB9BE03C21BD
:10098000715C401A012800DB95E0207E002800D031
:1009900091E0FC2040003018017A00293FD1007816
:1009A00001283CD1DF20400030188178002978D11F
:1009B0000178002975D10079002872D1634B962205
:1009C0005200012001F06FFAB42001F059FB012020
:1009D00020760020A075372D21DBFC204000301848
:1009E000007A00281BD1DF204000301880780128D1
:1009F00015D100220121982001F0C2F90120607672
:100A00004020305C8021490070544F2200214E4B21
:100A10005B5DC01A1E3801F0A9F9C0217054607ED8
:100A200001281ED1372D1CDDDF20400030188078D2
:100A3000002816D1FC2040003018007A002810D180
:100A400020780830B97988420BDB00206075A075EA
:100A5000E07520766076207401220121982001F053
:100A60008FF9C020305C80214900715C0A18D30FD7
:100A70009A1852108023F254081AC02149007118A4
:100A800008702278C1B2914200D22070C0B206280C
:100A900033DD0F2D00DBDCE6059831E005986D1C99
:100AA0002DE02B4B962252000021012001F0FBF992
:100AB0009620400089E7207E0128B0D18BE7891E6F
:100AC000C9B21D4840188A0052181201AB1CC0263A
:100AD000865D97190026DE5580235B00C35CD31822
:100AE000EB189B1E1E708023C05C10182E54A0783B
:100AF000801C8142E3DA07B0F0BD0598AD1CEDB271
:100B0000A5703D210500F2E794E4FF1F0A48282163
:100B1000BD22815401213D2281544F227D23C254A4
:100B2000FD23C154FF213E3142544E21FF227E322B
:100B3000815440328154704774FBFF1F74FCFF1FC7
:100B400034FCFF1FB4FBFF1F14E4FF1FA86100006B
:100B5000C05D0000F0B589B006002C4D0020A870E3
:100B60006873A8732873E87128726872E870287136
:100B70006871A871300000F0A5FB002802D10120A7
:100B8000687060E3002068703B24AC700596A41E7A
:100B9000E4B21F4806191F4807901F4806900490AA
:100BA000079803901D480290194801904F2000902B
:100BB00001233000803082780599200000F026FD66
:100BC000A0204000325C042A37DC282C35DD0F20C1
:100BD00028562438092830D24220315CB3788B4221
:100BE00025D20598A7003F193F01FF18C019C91A5F
:100BF0000300A03B1B78AF7B002F11D1002B13D13A
:100C00006B7B5B1C6B7301230DE000BF94E4FF1F43
:100C100074FBFF1F34FCFF1F74FCFF1FB4FBFF1F9E
:100C2000002B01D00023AB73401C491EE0D1687B30
:100C3000001F0B2801D201232B73FE204000301827
:100C4000007901284CD1DE204000301800790028BE
:100C500046D1DE20400030188078002840D1DE20C8
:100C60004000305C00283BD1FE20400030188078E6
:100C7000012835D1322C33DBA02040003018817898
:100C80002879494B1B5C8B422AD2A0235B00F318C6
:100C90001B79C91A0A2923DC4021715C3E23F35CCD
:100CA000C91A1DD4297891421AD23178B21E5378CC
:100CB000CB1A15D41278891A12D4DE214900711882
:100CC000897900290CD100280AD0A879E978014354
:100CD00006D101220121542001F052F8FFF79CFBBC
:100CE000DE2040003018007901284ED1FE2040005F
:100CF00030180079002848D1FE2040003018807854
:100D0000002842D1FE204000305C00283DD1DE208A
:100D1000400030188078012837D1322C35DBA020F4
:100D2000400030188178E8781F4A125C8A422CD241
:100D3000A0225200B2181279891A0A2925DC3178CA
:100D4000B21E1278891A20D42978A0225200B25CEF
:100D500091421AD2697C002917D1FE2149007118ED
:100D6000C9784A4211D400280FD068792979014303
:100D70000BD1DE204000305C002806D0012201218A
:100D8000442000F0FDFFFFF757FB6846A021490013
:100D9000715C417020001F381A2800D393E032297B
:100DA00000DB90E09A4801E0B4FCFF1F00780028C7
:100DB00000D188E0287B002800D084E03000C030DB
:100DC000807880214900711889786A46C023F35CD5
:100DD000137080225200B25C8B1A042B00DB19E1E5
:100DE000831D6F463F78BB4200DB13E1EB78002B9D
:100DF00000D00FE1FE235B00F3181B79002B00D01D
:100E000008E17A1E90421DDA0599A200121912011A
:100E100012188918079A125D0B00A03B1F78002F4B
:100E200002D01B79002B07D00B00F03B1F78002F5E
:100E300003D01B79002B00D16872401C491C531E43
:100E40009842E9DB687A00283DD069460978091A9A
:100E5000042938DD694609780818C10F08184010C0
:100E60006872200023001E3BA3422CDA07990A5D1A
:100E7000A10009190901059F89187F189F3F05994D
:100E800001948200121812016C7A12198C5C002CE9
:100E900014D00C00503CA45C002C0FD00C00A03CE3
:100EA000A25C002A0AD03A78002A07D0BA78002A31
:100EB00004D03A79002A01D0019AEA71401E834297
:100EC000DFDB0591019C684640782978891C8842BF
:100ED00027DB3178DE20400030188079002800D1EF
:100EE00012E13000C0308078401E814204DA0123D4
:100EF000DE204000301803714020305CFE214900A4
:100F000071188979002900D100E180214900711808
:100F10008978491C814204DA0123FE204000301800
:100F20000371DE20400030180079002800D112E162
:100F3000372C00DAEDE03000C0308078C0217054EA
:100F40003521E9700021696201F0B6F8E862FE20FF
:100F5000400030180079002800D135E1372C00DA44
:100F60000FE18020400030188078802149007054C3
:100F7000352129710021A96201F09EF82863C02063
:100F8000305C80214900725C111AC0235B00F318A9
:100F90001970AE4B1B78002B00D12CE1EB78002BA5
:100FA00000D128E16B79002B00D024E1A84B1B78FD
:100FB000002B00D11FE12B79002B00D11BE1AB7975
:100FC000002B00D017E13000803080788022B054B0
:100FD0002A78C8B2904200D22970AC706979002991
:100FE00010D0A87900280DD0DE20400030180079FC
:100FF000002800D004E1FE204000301800790028CD
:1010000000D0FDE0092C00DDC1E5059EFBE000BF3E
:101010005AFBFF1F6B461B78181A042800DB52E7A7
:10102000881F824200DB4EE72879002800D04AE77B
:10103000DE20400030180079002800D043E7080087
:10104000531C8B421FDA0599A3001B191B011B18A7
:10105000C918069B1B5D01930B00A43B1F79002F51
:1010600002D01B78002B07D00B00F43B1F79002F18
:1010700003D01B78002B00D16872401E491E019BD3
:101080005B1C8342E8DB687A002800D11BE7811AE9
:10109000042900DC17E71018C10F08184010687207
:1010A000200023001E3BA34200DB0CE70699095DEC
:1010B0000191A10009190901059A019FC919571841
:1010C000A53F114601948200121812016C7A121980
:1010D0008C5C002C14D00C00503CA45C002C0FD075
:1010E0000C00A03CA25C002A0AD03A79002A07D062
:1010F000BA78002A04D03A78002A01D0019A2A72DC
:10110000401E8342DFDBDCE6B078EDE64221715C15
:10111000FFE6E87800280AD1EC70EA78079B121DF8
:10112000D2B229002C312800243000F093F801219C
:101130000091E0B200F0C0FF696A00F0D8FFE96AF0
:1011400001F02DF801F0BCF84F22009900F00EFEDE
:10115000C0217054FBE66879002800D0F7E6E878F3
:10116000002800D1F3E63078B1784900401A31798F
:1011700040180121C94340B2884200DBE7E66C71A8
:10118000E5E6287900280AD12C712A79069B121DE0
:10119000D2B2290030312800283000F05BF801215C
:1011A0000091E0B200F088FFA96A00F0A0FF296B6F
:1011B00000F0F5FF01F084F84F22009900F0D6FD11
:1011C000802149007054DAE6A879002800D0D6E6DC
:1011D0002879002800D1D2E64020305C4221715CA1
:1011E0004900401A4421715C401840B2032800DADB
:1011F000C5E6AC71C3E61018C20F10184010E5E642
:10120000059EA41CAC70E878002818D02A79002A22
:1012100015D0002907D0274A0192079A0092274B40
:10122000320000F06FFAA979002908D02248019015
:1012300006980090224B3200287900F063FA3100C2
:10124000A87800F0DDFA09B0F0BD00006FFDFF1FC7
:10125000AFFDFF1FF0B583B007000E001400181992
:101260000090007900990978401A01F057F80200BF
:101270000B000020794901F05BF801F01BF9050033
:101280003D600098007801F039F80090019120004D
:1012900000F012FF290000F02AFF01F03DF90200E2
:1012A0000B000098019901F0B3F901F003F93060E7
:1012B00003B0F0BD34FDFF1F74FDFF1F74FBFF1F63
:1012C000B4FBFF1FF0B585B00500FFF71FFCAE4C67
:1012D0002700BB37B8782918AC4A895C002929D186
:1012E0004F200090012301AA521C29003B2000F04E
:1012F000B7F806004F200090012301AA29003B20E7
:1013000000F0DBF8864209DB002E11D023004033C9
:10131000220029003B2000F0FFF86AE0002807D0F7
:1013200023004033220029003B2000F031F960E027
:10133000002090E069460870FF20FC302018012250
:101340000270B04961180A7023007B3304934F2365
:10135000049E337023003B3303931A706A4612785D
:10136000AB18029301E0521E5B1E012A0DDDA64D53
:101370005D196E78002EF6D12D78002DF3D1002363
:101380000370039D2A70FB23E2546A461278029B85
:1013900001E0521C5B1C4F2A0EDA7C4D5D192E7841
:1013A000002EF6D16D78002DF3D100230B70049D33
:1013B0002A70FF233C33E2542200FB3200780028DD
:1013C00002D03B20205C10707B20205CFF233C334C
:1013D000E3180978002900D018703B21615C401A9D
:1013E000FF217C31605418781178401AFF21BC31FC
:1013F00060543B20205C3D2160547B21615C2200D5
:101400007B3291702200FB3213789370FF223C32C2
:10141000A21813789370FF22FC32A25C002A06D037
:10142000784AA25C002A02D0B878387006E0081822
:10143000C10F0818401038703878B870FF207C3021
:10144000201801788170FF20BC302018017881704D
:10145000AB480170012005B0F0BD00000000D03F96
:10146000F0B482B01E00069C0025230037000091D6
:1014700069460C7604E0002901D03E0001257F1C5E
:10148000FCB2A34215D30099840024182401FFB2B2
:10149000E419095D2C00EED00029F0D17B1EDBB2EF
:1014A0009819C10F081840101070981BC0B2F6BCF4
:1014B0007047002DF3D10020F9E7F0B483B00C00A1
:1014C000079D00216F463D7001946C46637024783F
:1014D00004E0002E01D025000121641EE6B29E42E8
:1014E00016D3019E87003F183F01E4B23F19F65D15
:1014F0000F00EED0002EF0D1631CDBB2E818C10F54
:10150000081840101070E81AC0B203B0F0BC704761
:101510000029F2D10020F8E7F0B4040016001D0005
:1015200000202200B31801241C70AD184F262E7025
:1015300001269700BF183F01C919491C0F78002FD9
:1015400001D01E700120761C491CF6B2502E07DA1D
:101550000700F3D00F78002FF5D1711E297001E03C
:1015600001000FD0084989181A78C0240A552A7832
:1015700040340A552A781B78D21AA0235B00CA543B
:101580004033CA54F0BC704774FBFF1F7012000058
:10159000F8B40026121800920122009C22701B1839
:1015A0004F241C7085002D182D01E4B22F19CF5D3A
:1015B000002F01D01C700126641E27060AD03700B8
:1015C000F3D0E4B22F19CF5D002FF5D1641C009940
:1015D0000C7001E0310011D0864908180099097893
:1015E000C02281541978403281541978009A1278B7
:1015F000891AA02252008154403281543000F2BC3A
:10160000704700003B0200006F120000FCB484B081
:1016100004000A980D9A774D2D190126E0277F00C6
:10162000EE557702EE550C9E3619019630700B9EE2
:101630003619009633706E46367CA7003F193F017D
:1016400002975B1C039301E0761EF6B2039B9E4259
:101650000FDB029B9B19CB181F78002FF4D15B1E68
:101660001B78002BF0D1E0277F00EB55009F3E70E8
:1016700016550E9E6B461B7C401E039001E05B1CC2
:10168000DBB2039898420EDB0298C018081807785E
:10169000002FF4D140780028F1D1802189006854CE
:1016A00001990B703355E0204000285C002808D0D9
:1016B0001019372C03DB0B993B23C95C00E08178C0
:1016C0000170301980218900695C002907D0372C0E
:1016D00003DB0C993B23C95C00E081780170019920
:1016E0000978009B1B78C91AA0235B00E954007895
:1016F000115D401AC0214900685406B0F0BC704723
:1017000094E4FF1FF0B583B0372801DB3B2600E0EF
:10171000061D0998089D6A46117269460C7A3B219C
:10172000405C00281BD034488078001D844216DBC2
:101730003B2628190778001F0078C01B00F0EEFD3B
:1017400000222E4B00F0DBFF00F0B4FE0400380056
:1017500000F0D4FD009001916846007A19E0F6B2DD
:10176000AF5D285D381A00F0D9FD00900191301B63
:1017700000F0D4FD02000B000098019900F0BFFFBB
:1017800000F098FE0400380000F0B8FD00900191D0
:10179000300000F091FC210000F0A9FC00F0BCFE3C
:1017A00002000B000098019900F032FF00F082FE69
:1017B0006946097A0895019405000C0015E0A41CFF
:1017C000E4B201210091200000F076FC01000198B4
:1017D00000F08DFC290000F0E2FC00F071FD4F22CA
:1017E000009900F0C3FA08990855A642E7DA03B059
:1017F000F0BD000074FBFF1F94E4FF1F000010C049
:10180000F0B589B0064DE34FFB22BA5CAA72FF2205
:101810003C32BA5CEA723D26801C079006914FE08C
:1018200094E4FF1F802040003818001902904F22D6
:10183000012100910192200000F03EFCA96A00F015
:1018400056FC296B00F0ABFC00F03AFD019A0099C0
:1018500000F08CFA02990870029800783900C031C3
:10186000095D4018C10F08184010391980228854AA
:10187000641EE4B2287A8442D4DA05980078A97A02
:10188000814200D2A87204990978EA7A914200D282
:10189000E972B10089190901069A08181018002286
:1018A00082700698049A12788A188018801E002286
:1018B00002700698039A8023D25C89180022425451
:1018C0000798864248DBB61EF6B2B8190390039813
:1018D00080218900401800780399C031059103994F
:1018E00080225200891804910399C032895C002932
:1018F00000D187E005990A7800280ED00498007876
:101900008118CB0F59184C1003998023CC54801A9E
:101910000399C0225200885495E0012A00D0C7E004
:101920006879002800D0C3E0049800780499897889
:101930000A1A0399C0235B00C9188B785B08C31A85
:10194000D40FA21852109B185BB2C01A4000087046
:10195000012B75DAB61CF6B23800BB300178817005
:10196000AE706879002825D0694608703800C0300C
:101970000978401804780079001B00F0CFFC0200C1
:101980000B000020BE4900F0D3FC00F093FD0600E0
:101990006E62200000F090FB04006846007800F0C2
:1019A0008BFB0100300000F0A2FB0100200000F0E2
:1019B0002EFCE862AE79002E22D08020400038183C
:1019C000801904780079001B00F0A8FC02000B00CD
:1019D0000020AB4900F0ACFC00F06CFD0700AF62EA
:1019E000200000F069FB0400300000F065FB0100FE
:1019F000380000F07CFB0100200000F008FC2863A8
:101A000009B0F0BD00281ED0049800784F284FD1AF
:101A1000A87900284CD1059802788078101A03998B
:101A2000C0235B00C9188B785B08D318C40F20183B
:101A300040101B1A5BB2981A40000870502B89DACC
:101A4000039880214354E87900286AD06946487297
:101A50006846447A395D01723B20385C143069462F
:101A6000097A401A00F05AFC009001913B20001BBB
:101A700000F054FC02000B000098019900F03FFEBA
:101A800000F018FD04006C626846007A00F014FB58
:101A900000906846407A00F00FFB0100200000F043
:101AA00026FB0100009800F0B2FBE8623B2435E021
:101AB00005980278049800788118CB0F59184B10BC
:101AC000801A0399C02252008854B9E73800C03008
:101AD000001902904F22012100910192200000F094
:101AE000EBFA696A00F003FBE96A00F058FB00F0CA
:101AF000E7FB019A009900F039F9029908708020FB
:101B000040003818005D029909784018C10F081884
:101B10004010391980228854641EE4B2E879844266
:101B2000D4DA287A002800D1A7E669460872684608
:101B3000047A7B20385C143839194022895C401AB9
:101B400000F0ECFB009001913B20001B00F0E6FB55
:101B500002000B000098019900F0D1FD00F0AAFCF2
:101B60000400AC626946097A78184021405C00F0B4
:101B7000A3FA00906846007A00F09EFA0100200067
:101B800000F0B5FA0100009800F041FB28633B2407
:101B900070E600BF74FBFF1FF0B583B00020002388
:101BA000384D6A78002A02D1AA78392A06DB364AEB
:101BB0001278002A02D00122344C22702A7B002A9B
:101BC0000AD00F202E56F6B22F48007800282ED0CB
:101BD00001202E4A10702AE0AA78152A01DA152170
:101BE000A9703D22A978891C0CE0921ED2B2284E21
:101BF0005742F6193B27F65DA4188027E45D74432D
:101C000000199B19234C8A42EFDA190000F0EEFD0F
:101C10004E22022100F0AAF84E220221C0B200F0AA
:101C2000A5F8C6B2EE73A87820188221415C28205E
:101C3000401A40B2012801DA0100484228218C1BD9
:101C400064B22100012900DA4C4240B200F066FB88
:101C500011A20CCA00F06CFB0090019160B200F080
:101C60005DFB1AA20CCA00F063FB009A019B00F016
:101C70006CFC00F015FE17490870300003B0F0BD91
:101C80000000D03F94E4FF1F5AFBFF1F59FBFF1FCA
:101C900054E4FF1F74FBFF1F9A9999999999E93FA2
:101CA00080B50D490A7C002A05D14B7C012B02D15D
:101CB000FEF7DAFB01BD012A05D1497C002902D1DA
:101CC000FEF7ACFD01BDFEF745FF01BD9A9999995C
:101CD0009999C93F90E4FF1F94E4FF1F10B51F4C72
:101CE000502020805022A1681D4800F050FE6168FD
:101CF0000818606000280BDD1A49884200DD0800E2
:101D0000606000220021022000F030F962680DE0DE
:101D100001D4002003E01449884200DC0800606020
:101D200042420021022000F021F90022012102207C
:101D300000F01CF910BD10B5084C002000F088F927
:101D4000A060002000F07DF9FA20C000A168814267
:101D500000DDA060FFF7C2FF10BD000068FBFF1FA1
:101D6000D4FDFF1F102700000CFEFFFF904201DB97
:101D700010007047814200DA01000800704700003F
:101D800038B51D4B4409A4001B590124C506ED0EAE
:101D9000AC400029596902D1A143596109E02143AE
:101DA0005961002A196802D1A143196001E00C436E
:101DB0001C608021490000F01FFE31BD0E4A43091E
:101DC0009B00D2580123C006C00E83400029106832
:101DD00002D198431060704703431360704706496F
:101DE0004209920089580969C006C00EC140C8075F
:101DF000C00F704700000000F8F9FF1F80B50028F1
:101E000003D002283CD028D301BD6A480268802351
:101E10005B041343036005290AD801A0405C874492
:101E2000041018202830C0218900982000F0E4FD1B
:101E300001BDC02189009920F8E7C02189009D20BB
:101E4000F4E7C02189009E20F0E7C02189009F208F
:101E5000ECE7C02189009A20E8E756480268802311
:101E60009B0413430360002902D0012904D001BD63
:101E7000C02189002020D9E7C02189000D20D5E7A5
:101E80004C4802688023DB0413430360002902D01E
:101E9000012904D001BDC02189003220C6E7C0213C
:101EA00089003320C2E7F5B583B00D001E006A46F5
:101EB0000C201056FFF7A2FF6948006869494843A3
:101EC0004710380C049900F094FC80B2002100E027
:101ED000491C0200CA40012AFADA684601700078FB
:101EE000C7403800049900F084FC87B269460C2092
:101EF00008560190002803D002280CD006D311E028
:101F0000781C46433000FA21890008E0781C4643DB
:101F10003000554903E0781C46433000534900F037
:101F200068FC04005248019989004058E9004118B2
:101F3000CA6804239A43CA602822CA604D4A1368BB
:101F40004D4D1D401560136880256D041D431560BF
:101F50006A4612785207520F0823134303608760C2
:101F6000A4B20C610021416005B0F0BD30B50C0099
:101F70003F4985004D59A9680029FCD0002803D0AD
:101F800002280CD006D310E0491C4A431000FA2165
:101F9000890008E0491C4A431000334903E0491C0A
:101FA0004A431000314900F024FCE100691808613F
:101FB00030BD00003C80044070B582B016000400C3
:101FC0002C4D002C03D0022C09D004D30CE0AA6BBA
:101FD00080235B0406E0AA6B80239B0402E0AA6BCB
:101FE0008023DB041343AB630A0008D1A968802275
:101FF000520482409143A960290D302009E0012953
:1020000009D1A9688022520482400A43AA60290D9E
:10201000312000F0F1FC2868174901402960286848
:1020200080214904014329601148A10040587107EB
:10203000490F10220A43026010498160002141606B
:1020400073BD00BF00210A4A8000105841607047EC
:10205000074980000858406880B2704700000000BF
:10206000F0FDFF1F40420F0060EA00001027000053
:1020700054FAFF1F04800440FFFFFFFCFFFF000035
:1020800070B4802149020522094B0A4C0026002821
:102090000BD0401E2568002DF9D01E605D609E604B
:1020A0001A601D680D40F2D1FBE770BC704700005C
:1020B00010E000E0F4FDFF1F9D2102000AD002D4D1
:1020C000491E9218FCD5C905100A1206524100D3C8
:1020D000012A4841704700009D210200EED552427E
:1020E000F446FFF7EBFF0122D2071043604730B4FC
:1020F00005004D400122D20715404B180418240E4C
:102100002ED01B0E32D0FF2C34D0FF2B3AD0E41847
:102110000002090210431143000A090A9446C2B2A0
:102120004A43000AC3B24B43000A4843110A5B18F2
:102130001A43D2B2190A091801D44918641E080AB0
:102140007F3C23DBFE2C08DAE405090611436346D5
:1021500099416041284330BC7047FF20C005F9E732
:1021600028001B0EFF2BF6D1D043F4E72800FF2CEC
:10217000F1D1F9E74002F7D1FF2B01D14902F3D1A8
:10218000E005E7E7D8054902E4D0EDE74302002087
:10219000641CDFD15B129B1CDCD9D805DAE7012275
:1021A000D20703004B402ED4431A01D2C01AC918DB
:1021B00030B44B180418240E1B0E22D0FF2C20D054
:1021C000E31A182B1DDC09021143C40D641E000222
:1021D000104394461925ED1A0A00AA40D940451823
:1021E00001D36D08A41CE405D209280A2D062A4350
:1021F0006546AA41604103181B0EFF2B01D3C00D99
:10220000C00530BC7047514006E05140CCE7012288
:10221000D20703004B40F8D4431A03D2C01AC9189E
:102220005040514030B44B18090211430418240E99
:102230001B0E40D0FF2C3AD025009D410BD31ED859
:10224000C50D4002401A0BD3ED050100400AC90537
:1022500091416841D5E7C50D40024918401AD0D0D8
:1022600001214008491C0018FCD58C4204D36D1A8A
:10227000000AED054019C4E7E8051040C1E7182D34
:10228000BFDCAC1C0D00E140E5414D40012D494152
:10229000C40D00021043451A01D46D199543641E04
:1022A000E405280A2D069541604130BC7047FF2B9C
:1022B000A7D1D843A5E72442A3D10020A1E700007D
:1022C0000122D2070118090E7F3910D449421F316B
:1022D0000FD4001805D2C0011043C84000D5D04328
:1022E0007047C0011043C84005D4404270470020E9
:1022F00070470042F3D510007047000001004222F1
:102300001201D21E004207D002D4521E0018FCD582
:10231000C10A400512058918704700000100EED57A
:102320004042F446FFF7EBFF0122D207114360471A
:10233000F0B50E005E400125ED072E40B446AE0A12
:10234000DF184C18F44208D2F7420ED2640D01D0C7
:102350007F0D12D100206146F0BD05D1F74201D8B2
:102360007F0D05D10020C143F0BDFBD1640DF9D034
:102370000020C143490549088FE0E419C902DB0286
:1023800029432B43DB0A460DC00231438E4630B44D
:1023900087B295B27D432E0CADB2140C7C43A419C8
:1023A000260C240425439CB27C43A419190C7943C0
:1023B000270CC919A4B20F043C43090C000C97B2B6
:1023C00047432E0CBE193543ADB2170C4743360CAC
:1023D000BF19A6B2BF193E043543240C3E0C361972
:1023E0009FB24743BF19BCB23E0C89191F0C47432B
:1023F0007F183E043443390C704680B297B247438D
:102400002E0CBE193543ADB2170C4743360CBF191D
:10241000A6B2BF193E043543240C3E0C36199FB2B8
:102420004743BF19BCB23E0C89191F0C47437F18A4
:102430003E043443390C77463F0C90B278432E0C5F
:1024400080190604ADB22E43050CA0B22D18120C53
:102450007A435019020C80B2240CA4189AB27A4321
:10246000121914042043120C89181B0C7B43C91841
:1024700030BCEF0A394203D1B61940414941641ECC
:102480006F12BF0DE41B0BDBFF19BC4211DA2405F0
:1024900000274208AE417841614166463143F0BDB4
:1024A000641C05D1401C6141CF0201D34908F4E707
:1024B00050E75DE7012252054B18DA4201D9581561
:1024C00070475B0D0722D2019B1A10D9FF2B1DD23A
:1024D000DB050122D2070A4013430903020D114311
:1024E000490AC200524100D9491CC81870470AD194
:1024F000800A0A0302435212921C04D9D3070B40EC
:10250000D00518437047C80FC0077047C80F0002B6
:10251000FF30C00570470000012212060118CA42B0
:102520000AD28A420DD83822120609098918C20F28
:10253000D20711434007704700D0490809090143F9
:1025400001E0C10FC90700207047F0B40125ED0775
:102550000F005F404FD48B4200D1824205D98446A0
:10256000100062468C4619006346DF184C18640D53
:102570007F0D3AD0661C760537D0E61B352E34DC4D
:10258000DB022B43DB0A0C0DC9022943C912202EA2
:102590000DDB1700203E06D01F00F741F3405F40DF
:1025A0000026012A7741C01871410DD217E01700AB
:1025B000F741F2405740F3415A40B340F3405A408C
:1025C0000026801859410AD3A21C52050FD0C20719
:1025D000012F724117004008CB0718434908641CBB
:1025E00024054208AF4170416141F0BC7047641C52
:1025F00021050020F9E76B4010E06B40ABE7F742A4
:10260000F3D1E943F1E72442EFD100200021ECE7C8
:10261000F0B40125ED070F005F40EED40C00871ADF
:102620009C4105D2C01BA141D219634169406B4056
:10263000AE0ADF184C18F442E1D2640D7F0DE2D0EF
:10264000E61B362ED1DCDB022B43DB0AA4460C0D45
:10265000C9022943C90A012E28DC04D1D607520831
:10266000DF073A435B08EF0A76429041994114D064
:1026700039423BD1B61940414941761C394204D117
:10268000761C001849413942FAD0B9436746B7422F
:1026900008D9A41B24052143A7E70042EAD136420A
:1026A000E8D1A2E7E40AE10700209EE7202E0BDD37
:1026B000203E1F00F340F7415F40012A00225741AE
:1026C0007E42984191410BE01700F741F24057409C
:1026D000F3415A40B340F3405A407E429041994101
:1026E0000A0303D2641EB619404149410027641E03
:1026F00024054208AE4178416141F0BC7047F0B416
:102700000E005E400125ED072E40B446AE0ADF18EC
:102710004C18F4423BD2F74241D2640D43D07F0DB6
:1027200038D0E41BC902DB0229432B43CF0ADB0A62
:102730000600B61A9F4104D2641EB6197F41B6182E
:102740005F416812800D24180018844222DAE80CD8
:102750000021B6197F41B61A9F4102D2B6185F41D7
:102760003F1C40414941F4D3241C21DD2405B61906
:102770007F41B61A9F4105D33743C607374300262A
:10278000012F7041614166463143F0BC7047FCD176
:10279000F74205D20020C14349054908F3E704D0B8
:1027A0000020C143F1E77F0DFAD000206146ECE73D
:1027B0002442FAD1401C61410F03F6D30020E2E726
:1027C000F446002804D4494200F013F84042604720
:1027D0004042002905D45FD000F00BF84042494246
:1027E0006047494200F005F84942604703460B4301
:1027F000E6D40022030A8B420BD203098B4219D282
:1028000043088B422ED2411A00D201465241104653
:102810007047FF2209023FD012068B4205D31212E5
:1028200009028B4201D31212090203098B4219D308
:1028300000E0090AC3098B4201D3CB01C01A5241FF
:1028400083098B4201D38B01C01A524143098B4249
:1028500001D34B01C01A524103098B4201D30B0132
:10286000C01A5241C3088B4201D3CB00C01A524157
:1028700083088B4201D38B00C01A524143088B421C
:1028800001D34B00C01A5241884200D3401A524132
:10289000CFD201461046704708B5C046C04608BDB5
:1028A000F4464A1805D200F00FF801D58017400809
:1028B000604700F009F80121C907884200D90800E3
:1028C000404260474A1812D2400DC9020843012114
:1028D000C9070843520D40210901521A521C06D45F
:1028E00052421F3201D4D0407047C01770470020B9
:1028F0007047000000210160416081607047002244
:10290000026042608260C2600A6802614A68426195
:10291000896881617047F0B583B00500541A324868
:102920003249002289560901461820006043FFF70A
:10293000F5FC00900191F068FFF7F0FC02000B003D
:1029400000980199FFF7DBFE009001913068FFF7D6
:10295000E5FC009A019BFFF7F8FDFFF7ABFD0700D0
:102960002000FFF7B9FB3900FFF7C1FB0700B06893
:102970006968611A4843FFF7AFFB3900FFF70FFCA6
:10298000FFF79EFC6C601A49081A03B0F0BDF8B559
:102990000500561A6F68F01BFFF79EFB2969FFF7C9
:1029A000A6FB04003000FFF797FB6969FFF79FFB68
:1029B0002100FFF7F4FB04007800301AA9684018E2
:1029C000FFF78AFBA969FFF792FB2100FFF7E7FBFE
:1029D000FFF776FCAF606E603121C9438E4202DAA8
:1029E0000121044A1170F2BD6CFAFF1F04FEFF1FA3
:1029F0004871000006FEFF1F30B41B4A1368540DD7
:102A00004509AC401C431460184A43099B00D25846
:102A10001F2301241F250540AC40A025545103402D
:102A20009800115030BC704730B40F4A1368540DF1
:102A30004509AC401C4314600C4A43099B00D25822
:102A40001F2301241F250540AC40A02554510340FD
:102A5000980010180268064B0B40E021C900114095
:102A60001943016030BC70473880044040FAFF1FB2
:102A7000FFF8FFFF70B5082580260400344201D01E
:102A8000012100E000216620FFF798F90021652070
:102A9000FFF794F901216520FFF790F964006D1E9E
:102AA000ECD170BD10B5040000216420FFF786F959
:102AB00000216320FFF782F918E010B5040000211F
:102AC0006420FFF77BF901216320FFF777F92000ED
:102AD0000DE010B5040000216420FFF76FF901211B
:102AE0006320FFF76BF9200AFFF7C4FFE0B2FFF79E
:102AF000C1FF01216420FFF761F910BD80B50021FD
:102B00006720FFF75BF96420FFF7BAFA012167201D
:102B1000FFF754F96420FFF7B3FA01BD80B5002236
:102B200001216320FFF72CF9002201216420FFF727
:102B300027F9002201216520FFF722F90022012157
:102B40006620FFF71DF9002201216720FFF718F921
:102B500001BD80B5FFF7E2FFFFF7D0FF1120FFF7BF
:102B6000A1FF7820FFF78CFAB120FFF79BFF01202F
:102B7000FFF7A3FF2C20FFF7A0FF2D20FFF79DFFFD
:102B8000B220FFF78FFF0120FFF797FF2C20FFF700
:102B900094FF2D20FFF791FFB320FFF783FF012063
:102BA000FFF78BFF2C20FFF788FF2D20FFF785FF15
:102BB0000120FFF782FF2C20FFF77FFF2D20FFF77A
:102BC0007CFFB420FFF76EFF0720FFF776FFC020E1
:102BD000FFF768FFA220FFF770FF0220FFF76DFFED
:102BE0008420FFF76AFFC120FFF75CFFC520FFF7D5
:102BF00064FFC220FFF756FF0A20FFF75EFF0020A8
:102C0000FFF75BFFC320FFF74DFF8A20FFF755FF5B
:102C10002A20FFF752FFC420FFF744FF8A20FFF766
:102C20004CFFEE20FFF749FFC520FFF73BFF0E20CA
:102C3000FFF743FF3620FFF735FFC820FFF73DFFC2
:102C4000E020FFF72FFF0F20FFF737FF1A20FFF7D5
:102C500034FF0F20FFF731FF1820FFF72EFF2F2042
:102C6000FFF72BFF2820FFF728FF2020FFF725FF85
:102C70002220FFF722FF1F20FFF71FFF1B20FFF777
:102C80001CFF2320FFF719FF3720FFF716FF002056
:102C9000FFF713FF0720FFF710FF0220FFF70DFFDC
:102CA0001020FFF70AFFE120FFF7FCFE0F20FFF7DF
:102CB00004FF1B20FFF701FF0F20FFF7FEFE172088
:102CC000FFF7FBFE3320FFF7F8FE2C20FFF7F5FEA1
:102CD0002920FFF7F2FE2E20FFF7EFFE3020FFF74E
:102CE000ECFE3020FFF7E9FE3920FFF7E6FE3F203B
:102CF000FFF7E3FE0020FFF7E0FE0720FFF7DDFE11
:102D00000320FFF7DAFE1020FFF7D7FE2A20FFF797
:102D1000C9FE0020FFF7D1FE0020FFF7CEFE002005
:102D2000FFF7CBFE7F20FFF7C8FE2B20FFF7BAFE90
:102D30000020FFF7C2FE0020FFF7BFFE0020FFF7D4
:102D4000BCFE9F20FFF7B9FEF020FFF7ABFE01208D
:102D5000FFF7B3FEF620FFF7A5FE0020FFF7ADFE5C
:102D60003A20FFF79FFE0520FFF7A7FE2920FFF777
:102D700099FE00F079F801BDF8B50400444F788958
:102D8000FFF790FEFF20FFF798FE0020FFF795FE6B
:102D90000020FFF792FE7F20FFF78FFEB889FFF734
:102DA00081FE0020FFF789FE2020FFF786FE00202D
:102DB000FFF783FE9F20FFF780FE3889FFF772FE42
:102DC000002617E000216420FEF7F8FF01216320B0
:102DD000FEF7F4FF200AFFF74DFEE0B2FFF74AFED0
:102DE00001216420FEF7EAFF6D1C7988A8B28842B1
:102DF000E8D3761C3988B0B2884201D20025F4E7C6
:102E0000F1BDF1B50F0014001D00214E7089FFF7D0
:102E100049FE009800B20004000EFFF74EFE009835
:102E200000B2801CC0B2FFF748FE2004000EFFF77E
:102E300044FEA41CE0B2FFF740FEB089FFF732FE6B
:102E40003804000EFFF739FEFF1CF8B2FFF735FE1D
:102E50002804000EFFF731FEED1CE8B2FFF72DFE4F
:102E60003089FFF71FFEF1BD80B509482C21018193
:102E7000002181718021018041802A2141812B2103
:102E800081813620FFF70EFEC820FFF716FE01BD38
:102E9000C8E4FF1F80B50B00821E1D331BB212B2A7
:102EA00019001000FFF7ADFF01BDF8B5171A7F1C20
:102EB000BFB25C1A641CA4B21C331BB2D21E12B285
:102EC0001D3109B2801E00B2FFF79BFF012C1CDBF5
:102ED0002600012F17DB3D00069C00216420FEF731
:102EE0006DFF01216320FEF769FF200AFFF7C2FD95
:102EF000E0B2FFF7BFFD01216420FEF75FFF6D1E0A
:102F0000EBD168460483761EE3D13F4843881C33E7
:102F10001BB20088C21E12B21D210120C043FFF760
:102F200070FFF1BDF0B589B015001A0000240494BB
:102F300002940300EF1A561A0091002F01DD0120C0
:102F400006E001D1002003E00020C04379420F00D9
:102F5000002E01DD012106E001D1002103E0002166
:102F6000C943724216003200BE4200DA3A006D4692
:102F7000AC80541C0394049C029D07970696029310
:102F8000009E059004910092684687881BE0B1B2CC
:102F9000029880B2FFF77EFF1B48008AFFF799FD79
:102FA0000798241806982D180098A04204DA241ACD
:102FB00002980599401802900098A84202DA2D1A4A
:102FC000049836187F1C0398BFB2B842DFDA09B004
:102FD000F0BDF8B507000E0015001C003300FFF728
:102FE000A1FF23003A0031003800FFF79BFF2300C8
:102FF0002A0021003800FFF795FF23002A00310046
:103000002800FFF78FFFF1BDC8E4FF1FF5B585B0BD
:103010000E001D000C9F0E9C68465849098A81814C
:10302000203F0DA800783018431E1BB26846808AE6
:103030000DA9097849084018421E12B231B26846FB
:10304000808A00B2FFF7DDFE002C0DA8007855D174
:1030500000284AD0FFB24A487900C91989004018AF
:1030600048493A018F180DA90978029001910DA8DD
:1030700000780C2802D10298047800E03C780DA872
:103080000078400829D00DA80078400869460E8BCA
:103090000D800500E00709D500216420FEF78EFEB3
:1030A00001216320FEF78AFEF0B20AE000216420CD
:1030B000FEF784FE01216320FEF780FE684600884B
:1030C000C0B2FFF7D7FC01216420FEF777FE640849
:1030D0006D1EDFD16846068305887F1C0298401C60
:1030E00002900198401E0190C1D168468089234911
:1030F00008824B881C331BB2088843E10028F4D0B7
:10310000FFB21F487900C919890040181D493A01CA
:10311000891837000DAA12780290019100920DA82B
:1031200000780C2801D1029800E0019804780DA8DD
:103130000078400816D06846858A0DA800784608B1
:103140006846008B0D490882E00707D5B9B2A8B2DE
:10315000FFF7A0FE0948008AFFF7BBFC64086D1C5E
:10316000761EEDD17F1C0198401C01900298401CF6
:1031700002900098401E0090D1D1B6E7C8E4FF1F2E
:103180008C680000B43B0000F8B586B004000E0067
:1031900015000D9F019400BF4FA0029005200590DF
:1031A00068466946098B090A4182290A0182029808
:1031B00000780C990978884275D1029840780C996A
:1031C000497888426FD133000F331BB222000F328F
:1031D00012B231B220B2FFF714FE0298831C2022F3
:1031E000390001981F0003926B465E801D800DAB75
:1031F000197001900026374D8020F0400DA9097804
:1032000000292AD1795689B201420FD000216420C9
:10321000FEF7D4FD01216320FEF7D0FD6846008A49
:10322000C0B2FFF727FC684600880EE0002164204A
:10323000FEF7C4FD01216320FEF7C0FD6846408A09
:10324000C0B2FFF717FC6846008BC0B2FFF712FC54
:1032500001216420FEF7B2FD15E069460988298244
:103260000021795689B2014207D068464188A0B250
:10327000FFF710FE288AFFF72CFC641CA4B201980B
:10328000201A10281DD0761C082EB5DB684646880B
:1032900005880DA8017801987F1C039A521E03929D
:1032A000A2D10F0001900298223002900598401E92
:1032B000059000D07BE7074843881C331BB2008889
:1032C00060E06846468805880DA8017801980400EA
:1032D000761CE1E7C8E4FF1FCFB50000000C3FF803
:1032E000030006380C701FC0038C0E0C3FFE0DB699
:1032F0000D98199C318C31866786CDB30000000093
:1033000018301BFF306036CC6CCC7D8619FE18DB84
:1033100030D87FD870DB019B1F9B771FBCE000007B
:10332000000006C036FF36C0378037B03718060CAD
:1033300000003FFE36663666366636667FFFBFD8CB
:10334000000000003060306037FF7EFB379E338C1A
:103350003F06380031FC70603060306030607FFFC5
:10336000A1E6C00023E82C18D8081008300030006F
:103370003000300030003000100018080C1003E05E
:1033800000000000C21E12B21D210120C043FFF741
:1033900038FD07B0F0BD0000F8B586B004000E009F
:1033A00015000D9F019400BF63A002900B200590B3
:1033B00068466946098B090A4182290A01820298F6
:1033C00000780C990978884275D1029840780C9958
:1033D000497888426FD1330017331BB2220017326D
:1033E00012B231B220B2FFF70CFD0298831C4822C2
:1033F000390001981F0003926B465E801D800DAB63
:103400001970019000264B4D8020F0400DA90978DD
:1034100000292AD1795689B201420FD000216420B7
:10342000FEF7CCFC01216320FEF7C8FC6846008A49
:10343000C0B2FFF71FFB684600880EE00021642041
:10344000FEF7BCFC01216320FEF7B8FC6846408A09
:10345000C0B2FFF70FFB6846008BC0B2FFF70AFB54
:1034600001216420FEF7AAFC15E06946098829823B
:103470000021795689B2014207D068464188A0B23E
:10348000FFF708FD288AFFF724FB641CA4B201980B
:10349000201A182845D0761C082EB5DB68464688C9
:1034A00005880DA8017801987F1C039A521E03928B
:1034B000A2D10F00019002984A3002900598401E58
:1034C000059000D07BE71B4C65881C352088C61E04
:1034D0006089FFF7E7FAFF20FFF7EFFA0020FFF718
:1034E000ECFA36B23004000EFFF7E7FAB61CF0B281
:1034F000FFF7E3FAA089FFF7D5FA0020FFF7DDFA1E
:103500002020FFF7DAFA2DB22804000EFFF7D5FAD3
:10351000ED1CE8B2FFF7D1FA2089FFF7C3FA07B034
:10352000F0BD6846468805880DA80178019804001A
:10353000761CB9E7C8E4FF1FCEC2000000000000FF
:103540001000000C7FF004402004402001402002C5
:103550007FE0624020324020124020047FE00400DF
:103560000005001004FFF8088910788910188910E8
:103570001889101889101889101889160776E8001C
:103580000000CAAA000000000000100010087FF828
:103590000C6010046010016010427FF03260101A5D
:1035A0006010127FF004690004088005088C088808
:1035B0008C18C8983848901868A01048C010088027
:1035C00030088010088C03F770000000B6C80000B7
:1035D00000001000000800000C080FFFFC0840006D
:1035E0000830C008208808209C0FFFE008208008D1
:1035F0002080083F8008000019FFE01820C010203C
:1036000080101180100B00200600201B804060FEFF
:10361000478018000000B5E7000000000000001817
:10362000000010000010000010000FFFF008102034
:103630000810200810200810200FFFE008102008B4
:1036400010200810200810200FFFE00810000010C4
:103650000800100800100400180C000FF80000000B
:10366000D1B90000000000000000180FFFFC0C00A2
:10367000000C0C000C0C000C0C000C0C000C0C00D2
:103680000C0C000DFFF00C0C000C0C00080C80085A
:103690000C40080C60080C30100C20100C00200CA2
:1036A0000C27F3F0400000000000C1F7000000000C
:1036B000080000060008020804FFFC0604000004DD
:1036C00000010840411020312030127FD01200103C
:1036D00004646004644004644008644078644018F2
:1036E000444018444418C44418844419047E060411
:1036F00000000000A1E60000000000000000000C37
:103700000000121F801230681260180CC018008070
:103710000801800801800001800001800001800014
:1037200001800000800000C00000C0100060200088
:1037300038C0000F00000000000000000000A3BA25
:103740000000000000000000000000000000000079
:103750000000000000000000000000000000000069
:10376000000000000000001C00001C00000C000015
:103770000000000000000C00001C00001C00000005
:103780000000000000000000A3A5000000000000F1
:103790000000000000000700180880300880600862
:1037A00080C00881800881000882000504000208AA
:1037B000000011E0002110004110008310010310EF
:1037C0000201100401100800E000000000000000E9
:1037D0000000A3D600000000000000000000000070
:1037E0000FC1F00300400300400100800180800110
:1037F000810000C10000C3000062000062000024DC
:10380000000034000018000018000018000000003C
:10381000000000000000000000000000A3C1000044
:103820000000000000000000000000000000080090
:10383000001800001C00002C00002400006600009E
:10384000460000C30000830000FF00010180010169
:10385000800200C00200C00F83F0000000000000E2
:103860000000000000000000F0B585B00600150063
:103870001C000A9800966A461B0A13822B0A538181
:103880000278D72A6FD14078D6286CD10F003B0040
:103890001F331BB232001F3212B209B230B2FFF72F
:1038A000B0FA894880210391390007000B9A6B46D2
:1038B000198169468D80CC800BA90A700024834D44
:1038C0008020E0400BA9097800292AD1795689B2D5
:1038D00001420FD000216420FEF770FA012163201D
:1038E000FEF76CFA68464089C0B2FFF7C3F8684635
:1038F00080880EE000216420FEF760FA0121632039
:10390000FEF75CFA6846008AC0B2FFF7B3F8684673
:10391000C088C0B2FFF7AEF801216420FEF74EFA6E
:1039200015E06946898829820021795689B20142C9
:1039300007D068460189B0B2FFF7ACFA288AFFF7D2
:10394000C8F8761CB6B20098301A202839D0641C0A
:10395000082CB5DB684601898588C4887F1C0398DC
:10396000401E0390A2D1594C65881C352088C61E84
:103970006089FFF797F8FF20FFF79FF80020FFF717
:103980009CF836B23004000EFFF797F8B61CF0B280
:10399000FFF793F8A089FFF785F80020FFF78DF86F
:1039A0002020FFF78AF82DB22804000EFFF785F8D3
:1039B000ED1CE8B2FFF781F82089FFF773F805B036
:1039C000F0BD684601898588C488009E491CC5E70A
:1039D000F0B587B00C9D0D9F6C4660827E08267303
:1039E000059704000E0068460282C3810DA8077087
:1039F00007E031002000FFF7C7FBAD1C0DA80078E1
:103A00002418287800285DD030490A88A4B26B4673
:103A10001B7BD31AA34255DB4B88059FDB1BB6B239
:103A2000B3424FDB812810DBD01BA0424ADB202FA2
:103A30003AD10EA80078019000956846C389028AA1
:103A400031002000FFF710FFD7E70D2806D10DA8A1
:103A5000007836186846448A6D1C23E00C2F01D08C
:103A6000102F11D10EA9097802910DA909780191A1
:103A700000906846C389028A31002000FFF7C6FA29
:103A80006846007B24180DE00EA9097802911021E8
:103A9000019100906846C389028A31002000FFF737
:103AA000B5FA08346D1CACE7182F0EA80078019009
:103AB00000956846C389028A9BD131002000FFF738
:103AC0006BFC9AE707B0F0BD026D0000C8E4FF1F71
:103AD000F9B585B00C0015006846808AE92863DADC
:103AE000FF20323084425FDA203D230010331BB2C6
:103AF0006846828A083212B209B2808A00B2FFF7A1
:103B000080F96846007E00284ED00D980C99EDB2E1
:103B1000264A6B005B199B00D21800BF25A32D011C
:103B20005B196D462D7E6E46318669468886039206
:103B30000293200001951E4D6946097E0C2901D192
:103B4000039900E002990C786946097E490820D063
:103B50000D990C9A6B469E8A1B7E5F086B461A86EF
:103B60006A46918669460880E007684601D5008E5E
:103B700000E0808E288268460188B0B2FFF78AF99B
:103B8000288AFEF7A6FF6408761C7F1EECD16846E3
:103B90000088401C0299491C02910399491C039119
:103BA0000199491E0191C7D107B0F0BD8C68000092
:103BB000C8E4FF1F0000000000000000000000003B
:103BC00000000000000000080808080808080000BD
:103BD0001818000000486C241200000000000000CB
:103BE000000000000000002424247F1212127F1223
:103BF000121200000000081C2A2A0A0C1828282A81
:103C00002A1C080800000022251515152A585454AE
:103C1000542200000000000C1212120A762529110D
:103C2000916E000000060604030000000000000082
:103C300000000000004020101008080808080810C4
:103C40001020400000020408081010101010100886
:103C5000080402000000000008086B1C1C6B080828
:103C60000000000000000000080808087F0808089D
:103C7000080000000000000000000000000000003C
:103C8000060604030000000000000000FE00000023
:103C90000000000000000000000000000000000024
:103CA0000606000000008040402020101008080494
:103CB00004020200000000182442424242424242F2
:103CC00024180000000000080E080808080808086A
:103CD000083E00000000003C424242202010080440
:103CE000427E00000000003C42422018204040423A
:103CF000221C0000000000203028242422227E20E4
:103D0000207800000000007E0202021A2640404295
:103D1000221C0000000000382402021A26424242FF
:103D2000241800000000007E222210100808080855
:103D3000080800000000003C42424224182442428D
:103D4000423C0000000000182442424264584040B7
:103D5000241C0000000000000000181800000000F3
:103D6000181800000000000000000008000000001B
:103D70000008080400000040201008040204081095
:103D8000204000000000000000007F0000007F00D5
:103D9000000000000000000204081020402010086D
:103DA000040200000000003C424246402010100087
:103DB000181800000000001C225A555555552D4278
:103DC000221C00000000000808181414243C2242A1
:103DD00042E700000000001F2222221E224242422F
:103DE000221F00000000007C42420101010101424B
:103DF000221C00000000001F224242424242424276
:103E0000221F00000000003F4212121E1212024246
:103E1000423F00000000003F4212121E1212020236
:103E2000020700000000003C222201010171212252
:103E3000221C0000000000E7424242427E42424211
:103E400042E700000000003E0808080808080808CB
:103E5000083E00000000007C101010101010101020
:103E60001010110F0000007722120A0E0A121222FF
:103E70002277000000000007020202020202020292
:103E8000427F000000000077363636362A2A2A2A7A
:103E90002A6B0000000000E346464A4A5252526232
:103EA000624700000000001C224141414141414164
:103EB000221C00000000003F424242423E02020239
:103EC000020700000000001C2241414141414D53C6
:103ED000321C60000000003F4242423E1212222289
:103EE00042C700000000007C424202041820404209
:103EF000423E00000000007F490808080808080842
:103F0000081C0000000000E7424242424242424296
:103F1000423C0000000000E742422224241414180E
:103F2000080800000000006B4949494955553622F0
:103F300022220000000000E742242418181824243C
:103F400042E7000000000077222214140808080845
:103F5000081C00000000007E21201010080404420C
:103F6000423F000000780808080808080808080808
:103F70000808780000000202040408080810102055
:103F800020204040001E10101010101010101010B3
:103F900010101E0000384400000000000000000067
:103FA0000000000000000000000000000000000011
:103FB000000000FF000608000000000000000000F4
:103FC00000000000000000000000003C4278444275
:103FD00042FC0000000000030202021A2642424294
:103FE000261A00000000000000000038440202020F
:103FF00044380000000000604040407844424242A3
:1040000064D80000000000000000003C427E020274
:10401000423C0000000000F08808087E08080808FC
:10402000083E0000000000000000007C22221C026C
:104030003C42423C000000030202023A4642424235
:1040400042E700000000000C0C00000E0808080801
:10405000083E000000000030300000382020202002
:104060002020221E0000000302020272120A161211
:10407000227700000000000E080808080808080859
:10408000083E0000000000000000007F9292929223
:1040900092B70000000000000000003B4642424290
:1040A00042E70000000000000000003C42424242A3
:1040B000423C0000000000000000001B264242427B
:1040C000221E020700000000000000784442424225
:1040D000447840E000000000000000774C04040435
:1040E000041F0000000000000000007C42023C4071
:1040F000423E0000000000000008083E08080808D2
:10410000083000000000000000000063424242420C
:1041100062DC000000000000000000E742242414DC
:104120000808000000000000000000EB4949555558
:104130002222000000000000000000762418181859
:10414000246E000000000000000000E74224241458
:1041500018080807000000000000007E2210080870
:10416000447E000000C0202020202010202020209D
:104170002020C0001010101010101010101010107F
:104180001010101000060808080808100808080891
:10419000080806000C32C200000000000000000009
:1041A00000000000FAB585B0040016000C9F0396CD
:1041B0000025002E62D16846008F01906846808EEF
:1041C00000906846037E3022818A2000FFF780FC41
:1041D00008346846008F00906846808A791EC900BE
:1041E000431840E00A21FEF704FB6D1C0028F9D1BA
:1041F000EDB2BD4200D93D000395280027D06846A6
:1042000004826846008AEDB2E9004418083C6D1E3D
:104210006846008F01906846808E00906846037E55
:10422000029330000A21FEF7E4FA0A003032029BC2
:10423000D2B26846818AA0B2FFF74AFC30000A2158
:10424000FEF7D7FA06002806DBD16846048A0398F1
:10425000B84211D0C00024186846008F009003981F
:10426000381AC00023189BB22200103292B268465E
:10427000818AA0B2FEF719FE07B0F0BD1046B5E77F
:10428000487100000A0B0C0D0E0F101112131415BB
:10429000161718191A1B1C1D1E1F20212223242546
:1042A000262728292A2B2C2D2E2F30313233343536
:1042B000363738393A3B3C3D3E3F40414243444526
:1042C0004600000006060606060606060606050562
:1042D0000F0F0F0F0F0F0A0A0A0A0A0A0505050534
:1042E000050505050505050505050505010101018E
:1042F00001010101010101010101010101010101AE
:1043000000000000000000000000000000000000AD
:104310000000002800000000000000000000000075
:104320002800000000000000000000000000000065
:104330000000803F00009E420000000000000000DE
:1043400000000000000000000000FFFF2800000047
:10435000000000000000000000000000000000005D
:10436000000000000000000000000000000000004D
:10437000000000000000000000000000000000003D
:10438000000000000000000000000000000000002D
:10586000000000000000000000F00FF840F00FF80A
:1058700080F00FF8C0F00FF800F10FF800000A1DDB
:105880003000030040000200420003094400030A04
:105890004800020350000206600001008000021868
:1058A0008800010A9400010DC800011ADC00011FE4
:1058B0000090044000A0044000B0044000C0044038
:1058C00000D00440008003400090034000A003404B
:1058D00000A0064000B0064000C0064001010000E4
:1058E0000000000068010000500000006D01000091
:1058F000000000009B010000500000006801000053
:10590000000000005E0100003C00000019000000E3
:10591000000000005000000014000000170000000C
:10592000000000003C00000014000000180000000F
:105930000000000046000000140000009A99594041
:1059400031082C3FCDCCCC3D0E0F0C0D272800008C
:105950000000000000000000010000000000000046
:105960000D81110009030CD01240173F1850190384
:105970001A783200A00A63E0ACFF650C660067008D
:1059800029142C1E2A007E0C7F16802A814E8261EB
:10599000836F847B8586868E879788A489AF8AC526
:1059A0008BD78CE88D204A00491347084B144C17BD
:1059B000460522992303A6049B009C41AB069E1139
:1059C0009F020000310050000000000000000000B5
:1059D0002C0100014100000038B572B6994800F072
:1059E0006FFB99492E2000F030FC9849102000F000
:1059F0002CFC97480068810009184900002000F03D
:105A00002DFC9449262000F020FC8020C003924900
:105A100008609248FCF76EFF91499248FCF76FFFCF
:105A200000F039F8FDF795F8CD4C2000FDF7A4F90A
:105A300000F087F88C4D6878002804D100F01EF93A
:105A400068780028FAD029789C2000F01FFD2000FB
:105A5000FDF792F9854B9622520000210120FCF7B8
:105A600022FAFA2464000023220000210220FCF71D
:105A70001AFA0023220001210220FCF714FA002266
:105A800000210020FCF798FA62B600220121442090
:105A9000FCF776F931BD80B5002200212120FCF70A
:105AA0006FF902212120FCF7BFFF002200212220F4
:105AB000FCF766F902212220FCF7B6FF0022002144
:105AC0002320FCF75DF902212320FCF7ADFF002223
:105AD00000212720FCF754F902212720FCF7A4FF1E
:105AE000002200212820FCF74BF902212820FCF796
:105AF0009BFF002200212920FCF742F902212920E6
:105B0000FCF792FF002200212A20FCF739F902213C
:105B10002A20FCF789FF002200212B20FCF730F916
:105B200002212B20FCF780FF002000F0C5FD0120A2
:105B300000F0C2FD022000F0BFFD032000F0BCFD1C
:105B400001BD80B52220FCF74AF9012800D00020D1
:105B50004549C8702920FCF742F9012808D12A20BC
:105B6000FCF73DF9012803D14149087000202BE0E2
:105B70002920FCF734F9012809D12A20FCF72FF954
:105B8000002804D102203A49087001201CE0292095
:105B9000FCF725F9002809D12A20FCF720F9002874
:105BA00004D103203249087002200DE02920FCF7BF
:105BB00016F900280AD12A20FCF711F9012805D18D
:105BC00004202B49087003202A49087001BDF8B54C
:105BD000FF26002469460C800225002000F0C6FD47
:105BE000002801D1002613E0012000F0BFFD0028AD
:105BF00001D101260CE0022000F0B8FD002801D1FF
:105C0000022605E0032000F0B1FD002800D10326A4
:105C1000FF2EE2D0184F3C7034006846068803E03F
:105C20000120FCF72DFA761C60B200F094FD0028EC
:105C3000F6D0B6B2FF212E318E4200DB3D70E0B2CD
:105C4000F2BD0000A0F7FF1FBD720000D57200007A
:105C5000FCFDFF1FDD72000000E100E0B8FDFF1F4A
:105C6000CCFAFF1FD4FDFF1F64FBFF1F487100002B
:105C700005FEFF1F04FEFF1F0CFEFF1FF0B583B0E3
:105C8000374D0120029010200190364800902B00E3
:105C9000002205210520FDF79BFE01200290102027
:105CA0000190314800902B00002215210520FDF7BE
:105CB0008FFE01200290102001902C4800902B00B4
:105CC000002225210520FDF783FE012002901020EF
:105CD0000190274800902B00002235210520FDF778
:105CE00077FE244FB8783A78234E244C012847D1C8
:105CF0000295F82000020190032000901023052156
:105D00006920FEF74FFA02950020019003200090D1
:105D10001023002030560001225815216920FEF77B
:105D200041FA0295002001900320009010232000EA
:105D30000830002171560901425825216920FEF7DB
:105D400031FA0295002001900320009010232000DA
:105D50000C300021715609014258352145E100BF40
:105D6000FFFF00006C7500007C7500008C75000062
:105D70009C75000064FBFF1F04FEFF1F6CFAFF1FF1
:105D8000022836D1029500200190032000901023B4
:105D900005216920FEF706FA0295F820000201901D
:105DA00003200090102300203056000122581521B6
:105DB0006920FEF7F7F9029500200190032000907A
:105DC0001023200008300021715609014258252176
:105DD0006920FEF7E7F9029500200190032000906A
:105DE000102320000C300021715609014258352142
:105DF000FBE0032836D1029500200190032000909B
:105E0000102305216920FEF7CDF9029500200190AD
:105E10000320009010230020305600012258152145
:105E20006920FEF7BFF90295F820000201900320D7
:105E300000901023200008300021715609014258BB
:105E400025216920FEF7AEF902950020019003207C
:105E50000090102320000C30002171560901425897
:105E60003521C2E0042836D102950020019003209C
:105E70000090102305216920FEF794F90295002077
:105E8000019003200090102300203056000122587A
:105E900015216920FEF786F9029500200190032064
:105EA000009010232000083000217156090142584B
:105EB00025216920FEF776F90295F820000201906D
:105EC00003200090102320000C300021715609019E
:105ED0004258352189E00528029545D100200190DE
:105EE00003200090102305216920FEF75BF902953D
:105EF0000020019003200090102300203056000164
:105F0000225815216920FEF74DF9029500200190D5
:105F10000320009010232000083000217156090151
:105F2000425825216920FEF73DF902950020019095
:105F300003200090102320000C300021715609012D
:105F4000425835216920FEF72DF9012002901020DA
:105F5000019000BF57A000902B00F82212024621AA
:105F60001E20FDF735FD43E0002001900320009046
:105F7000102305216920FEF715F9029500200190F4
:105F800003200090102300203056000122581521D4
:105F90006920FEF707F90295002001900320009088
:105FA0001023200008300021715609014258252194
:105FB0006920FEF7F7F80295002001900320009079
:105FC000102320000C300021715609014258352160
:105FD0006920FEF7E7F80295002001900320009069
:105FE000102333480021425645216920FEF7DAF894
:105FF000FFF7EDFD002805D002282ED00BD3032893
:1060000051D052E0B878401CB870C0B207284CDBC1
:106010000020B87049E0B878012806D045D303289D
:106020000DD005D3042811D03FE03878401C20E083
:10603000002030560001201801680A3121E00020BC
:1060400030560001201881680A3122E000203056C5
:1060500000012018C1680A3123E0B878012806D071
:1060600023D303280FD006D3042814D01DE038789A
:10607000401E387019E000203056000120180168D9
:106080000A39016011E000203056000120188168B3
:106090000A39816009E00020305600012018C168EB
:1060A0000A39C16001E00120787003B0F0BD000042
:1060B00005FEFF1F534554204F4B202121000000B7
:1060C0007CB5544E7060544D002469460C7000F04D
:1060D000F4F88021122000F0D9F90028F4D0322001
:1060E000FBF7CEFF0B220121684600F0F4F90028EF
:1060F000EAD0684600782128E6D109E06000281837
:106100004178007800F0C2F90028DDD0641CA4B208
:106110006420285C8442F1DB9620800001900120FD
:106120000090072372683D49002000F033FB3C4893
:1061300001784906490E01703A480168490049084A
:1061400001600120384908608007384908603849F3
:106150000720FCF751FC37490620FCF74DFC0020D6
:1061600076BD30B4314A8020C0052A490023CB5681
:10617000042B21D103230B7010602F4A93688409EC
:106180001C43946096239B009360244B13604968E2
:1061900051608021224B1C78802525431D70D368D7
:1061A0001843D06025480160D06809060143D160DA
:1061B00001201D49086002E010600220087030BC18
:1061C00070471F4841684900490841600121164A4B
:1061D0001160104A11700168802252040A43026063
:1061E000704770B40B4804210170144A0023DB434C
:1061F00013600D4C0D0705E000268657022E02D1D4
:1062000001701360256000268657012EF4D170BC02
:1062100070470000E8FAFF1FF0FAFF1F12F10F406D
:10622000001002400C81004000E100E080E100E04D
:10623000020102001201090000810040A090044008
:1062400008810040034908607047034A80001150EC
:106250007047000008ED00E000E0FF1F10B40D4A99
:106260001368802424041C43146000220A4B1A6023
:106270000A4A00011018491E0160C16801220A4340
:10628000C26081680122914381600321816010BC5A
:10629000704700003C8004400070034000710340E0
:1062A00081B06946088075486B46694609880A18B6
:1062B0001A800029F9D101B0704780B5012201216F
:1062C0001120FBF75DFD012201211020FBF758FD95
:1062D00043211120FCF7A8FB43211020FCF7A4FB6D
:1062E00001BDF8B48020400265490A6802430A6093
:1062F000430013430B60C8235B006A461380421EB1
:106300006E466C462488A5183580002CF9D15D4C6A
:106310004D6925404D616D462B806F466D462D8839
:10632000AE183E80002DF9D101250E69360C2E40A5
:1063300016D04E6906434E610E6834400C606C46C0
:1063400023806E466B461B889C183480002BF9D145
:106350000A684D4B13400B600A69120C154004D0BB
:106360004A6910434861002000E00120F2BC7047F8
:1063700038B5434C2168444808402060CA49014070
:106380002160C8256D002800FFF78AFF2068802162
:106390008902014321602800FFF782FF20688021E5
:1063A0004902014321602800FFF77AFF31BD78B42C
:1063B000354833490A6802400A604A69314B134044
:1063C0004B61C82252006B461A80B84B6E466C4631
:1063D0002488E5183580002CF9D10C68C543254385
:1063E0000D606C4622806D466A461288D4182C8057
:1063F000002AF9D14B69802252021A430B69DC034F
:10640000E40F4A610A6803D010400860002002E0EF
:1064100010400860012072BC7047F8B402000820E8
:10642000164BC8246400164D6F46401E2968160698
:1064300002D55E1C0E4301E0124E0E402E6052004B
:1064400069460C8069460988CE183E800029F9D13A
:1064500029688026B6020E432E6069460C80694684
:106460000988CE183E800029F9D12968064E0E40D1
:106470002E600028D9D1F1BC70470000FFFF00005A
:1064800000F00F40FFFFFEFFFFFFFDFF70B50500AE
:106490000C000026FFF725FF002808D04220FFF758
:1064A000BCFFFFF784FF002807D1FFF761FF761CD0
:1064B000F6B2142EEED1002070BDE8B2FFF7ADFFAA
:1064C000FFF775FF2000FFF7A8FFFFF770FFFFF74A
:1064D0004FFF012070BDF8B51E2407000E00150007
:1064E0002A003100380000F007F8002802D1641EAD
:1064F000F6D1F2BD0120F2BDF3B581B01400FFF773
:10650000F0FE002800D1A1E04220FFF786FFFFF750
:106510004EFF002800D197E02000FFF77EFFFFF735
:1065200046FFFFF725FFFFF7DCFE002800D18DE0D6
:106530004320FFF772FFFFF73AFF002800D183E006
:106540006846008900287AD0584BC8246400584D0A
:106550006F46082000216A69534E16406E61401E46
:1065600049002A68534E16402E606A4614806A46D7
:106570001288D6183E80002AF9D12A688026B602F1
:1065800016432E606A4614806A461288D6183E80EA
:10659000002AF9D101222E69360C164002D00E00D5
:1065A000012131430206DAD168695A1C02436A614B
:1065B0002868404A02402A600198017029683D48D5
:1065C00008406946098901292860684604806A46AE
:1065D0003ED168460088C11811800028F9D128688A
:1065E000591C014329606846048068460088C11828
:1065F00011800028F9D1286880218902014329608F
:106600006846048068460088C11811800028F9D1C6
:106610002868284901402960684604806846008847
:10662000C11811800028F9D10198401C01906846DA
:1066300069460989C91801810089002889D1FFF7B5
:1066400097FE012003B0F0BDFFF792FE0020F9E7AE
:1066500068460088C11811800028F9D128681249BD
:10666000014029606846048068460088C11811808E
:106670000028F9D1286880218902014329606846F1
:10668000048068460088C11811800028F9D1286864
:106690000849014029606846048068460088C1189E
:1066A00011800028F9D1BFE7FFFFFEFFFFFF0000C8
:1066B00000F00F40FFFFFDFF10B5354C072801DC4F
:1066C00024183EE000220021E079FBF759FB03216A
:1066D000E079FCF7A9F900220021A079FBF750FB33
:1066E0000321A079FCF7A0F9002200216079FBF7D3
:1066F00047FB03216079FCF797F9002200212079FC
:10670000FBF73EFB03212079FCF78EF900220021E4
:10671000E078FBF735FB0321E078FCF785F90022F0
:106720000021A078FBF72CFB0321A078FCF77CF973
:10673000002200216078FBF723FB03216078FCF73F
:1067400073F9002200212078FBF71AFB032120783F
:10675000FCF76AF910BD80B50D49085CFBF73FFBFB
:10676000401E8041C043C00F40B202BD10B5084971
:106770000C182078FBF733FB002807D10A20FBF721
:106780007FFC2078FBF72BFB002800D0012010BDF8
:10679000D8FAFF1FF0B583B01D006C462023E356E6
:1067A000012B01D1082408E0022B01D1102404E0C0
:1067B0001C0001D1202400E00024099E6F463D709A
:1067C0000D00694648702C484168870D0F434760AB
:1067D000016802270F4307606946012008562749D0
:1067E000091801910021019F3970254900010818FD
:1067F000816880277F040F438760056042601A0527
:10680000C021890311405B04C022D2021A400A430E
:106810001C491143C1603102090A81606846007851
:1068200040093130802101430198017016496846C2
:106830000078FCF7E1F8A8094001103DE900401894
:1068400001194E1EF6B281256D00040009E00022F8
:1068500000212000FBF794FA29002000FCF7CCF877
:10686000641CE4B2A642F2DA019800784006400EB9
:106870000199087003B0F0BD3C8004400010024054
:10688000008100408000086000010100000000005D
:1068900000000000000000000000040404040404E0
:1068A0000004000000140A0A0000000000000000BC
:1068B000000014143F140A3F0A0A000000041E15C9
:1068C00005060C14150F0400000012150D0A142CF7
:1068D0002A1200000000040A0A1E151509360000DD
:1068E000000202010000000000000000002010086B
:1068F0000808080808102000000204080808080812
:106900000804020000000004150E0E15040000002B
:1069100000000404041F0404040000000000000040
:10692000000000000002020100000000001F000043
:106930000000000000000000000000000002000055
:1069400000100808080404020202010000000E11F1
:1069500011111111110E00000000040604040404BA
:10696000040E000000000E1111080402011F0000B7
:1069700000000E11100C1010110E00000000080C89
:106980000A0A091E0818000000001F01010F10105C
:10699000110E000000000E09010F1111110E000070
:1069A00000001F09080404040404000000000E1184
:1069B000110E1111110E000000000E1111111E1008
:1069C000120E00000000000004000000000400009F
:1069D0000000000000040000000404000020100873
:1069E0000402040810200000000000001F00001F27
:1069F000000000000002040810201008040200003B
:106A000000000E11110804040004000000000E1123
:106A10001915151D011E0000000004040C0A0A1EB1
:106A20001233000000000F12120E1212120F00009B
:106A300000001E1101010101110E000000000F12E3
:106A400012121212120F000000001F120A0E0A0288
:106A5000121F000000001F120A0E0A0202070000A7
:106A600000001C1201013911120C00000000331249
:106A7000121E12121233000000001F04040404044A
:106A8000041F000000003E08080808080809070065
:106A9000000037120A060A0A123700000000070237
:106AA00002020202223F000000001B1B1B1B1515E7
:106AB0001515000000003B1216161A1A12170000D6
:106AC00000000E1111111111110E000000000F1223
:106AD000120E02020207000000000E111111111720
:106AE000190E180000000F12120E0A1212370000C1
:106AF00000001E1101060810110F000000001F15F4
:106B000004040404040E00000000331212121212D6
:106B1000120C000000003312120A0A0C04040000D8
:106B200000001515150E0A0A0A0A000000001B0ACB
:106B30000A04040A0A1B000000001B0A0A040404D9
:106B4000040E000000001F0908040402121F0000C8
:106B5000001C04040404040404041C0000020202D7
:106B60000404080808100000000E080808080808B7
:106B700008080E0000040A000000000000000000E9
:106B800000000000000000000000003F00040000C2
:106B9000000000000000000000000000000C121CBB
:106BA000123C000000000302020E1212120E00003E
:106BB00000000000001C1202021C0000000018105F
:106BC000101C1212123C000000000000000C121EEB
:106BD000021C000000003804041E0404041E00000F
:106BE00000000000003C120C021E221C00000302E8
:106BF000020E121212370000000004000006040406
:106C0000040E000000000800000C0808080808072F
:106C100000000302023A0A0E1237000000000704C7
:106C200004040404041F000000000000000F1515F8
:106C30001515000000000000000F121212370000AE
:106C400000000000000C1212120C000000000000F6
:106C5000000F1212120E020700000000001C121298
:106C6000121C103800000000001B06020207000082
:106C700000000000001E020C101E000000000004B6
:106C8000040E04040418000000000000001B12128F
:106C9000123C0000000000000037120A0C04000043
:106CA000000000000015150E0A0A00000000000098
:106CB000001B0A040A1B0000000000000037120A33
:106CC0000C04040300000000001E0804041E000061
:106CD0000018080808040808080818000808080828
:106CE0000808080808080808000604040408040442
:106CF0000404060002251800000000000000000047
:106D0000D7D60000000000060000000300000000CD
:106D1000C0000001C0C0000107C00001FF00021F49
:106D2000FE0007F01C0007C070000F00E0000E031B
:106D3000F0001C0FF0003C0F70003C00E000180059
:106D4000C0000000C0000000C000000060000000A3
:106D50002000000037000001FF00007FF80007F866
:106D600030001F8030000080300000C03000006024
:106D700060000018E000000FC000000600000000E6
:106D800000000000020074489100405A521E0C2A74
:106D900000D3704718B5652801DA002146E0C928FC
:106DA00001DA012142E0FF222E32904201DA022173
:106DB0003CE06432904201DA032137E064329042D1
:106DC00001DA042132E06432904201DA05212DE03B
:106DD0006432904201DA062128E06432904201DAFE
:106DE000072123E06432904201DA08211EE0643278
:106DF000904201DA092119E06432904201DA0A2155
:106E000014E06432904201DA0B210FE064329042C8
:106E100001DA0C210AE06432904201DA0D2105E02A
:106E20006432904201DA0E2100E00F214B4C2170B8
:106E30002178491CFBF7DAFC81B2292901DA00200C
:106E400042E0512901DA01203EE0792901DA0220ED
:106E50003AE0A12901DA032036E0C92901DA042049
:106E600032E0F12901DA05202EE0FF201A308142BC
:106E700001DA062028E02830814201DA072023E0E9
:106E80002830814201DA08201EE02830814201DAF0
:106E9000092019E02830814201DA0A2014E0283064
:106EA000814201DA0B200FE02830814201DA0C2008
:106EB0000AE02830814201DA0D2005E028308142C5
:106EC00001DA0E2000E00F20607011BD70B50400E3
:106ED000FFF758FF2248416B420D0A4342631F49A6
:106EE0000A78120749780904E023DB020B401343B8
:106EF000036481211B4A11701B4924224A70BA2263
:106F00000A7010228B791342FCD10C228B7913402A
:106F1000082BFAD1104BA4001B191F259C782C407C
:106F20000C714024DE78354025434D7120258E7943
:106F30002E42FCD08D792542FCD002240C708C7935
:106F400014400C2CFBD10168802252020A430260DB
:106F50001888C0B270BD00000CFAFF1F62FBFF1F53
:106F6000048004400050064000400640F2B584B062
:106F700007006B4E002F03D0022F1DD00ED32BE045
:106F80006848016B020D0A430263C025AD00290069
:106F90000F20FBF731FD29000E201BE06148016B3B
:106FA000C20C0A430263C025AD0029004320FBF751
:106FB00023FD290013200DE05A48016B8022520165
:106FC0000A430263C025AD0029006220FBF714FDCF
:106FD00029006320FBF710FD0021F322380073D154
:106FE00050480368504D1D40056003684F4D1D43D8
:106FF00005604F48C07802404D48C27081704D48CE
:1070000000684D494843C10F081841106A46158869
:1070100001940091042400980499621C5143FBF7E9
:10702000E8FB87B2390080208001814231DA601CA0
:1070300002900098029A5143FBF7DBFB0499411A36
:10704000012902DB0499401A00E04842010464D09F
:1070500080B2B04202DA06003D0001947F1CBFB24C
:10706000390080208001814213DA0098029A51434E
:10707000FBF7BFFB0499411A012902DB0499401A6E
:1070800000E04842010448D080B2B04201DA3D003D
:107090000194641C212CBEDB2800019C24490B7840
:1070A000E0211F220B4005042D0E15401D43204BEF
:1070B0001D705870987A014022400A439A72D8781D
:1070C0000C210143D97026E01C48BB00C41820687D
:1070D000C3781A40C2702068817019480068FA218C
:1070E0008900484304990901FBF783FB80B28021A2
:1070F0008901884200DB481E21680A78E02313409A
:10710000C204D20E1A430A70216848702068C17800
:107110000C220A43C27005B0F0BD3800BEE7000083
:10712000FFFF000004800440FFFFFFF300000104A4
:1071300000A00640F0FDFF1F40420F0060FAFF1F55
:10714000FCFDFF1F70B584B03A4D28206870FEF733
:1071500043FC394E3078012808D13848FBF70CFE43
:107160003C23502200210020FBF733FFFFF739F8C2
:107170009622920032482918281D00F06DF8281D2B
:10718000FAF78EFDFAF708FD010069702A782D489C
:10719000FBF7C1FB2C4C20602C4A2D49FAF7E6FD89
:1071A0000200226000210120FAF7E0FE3078012879
:1071B000DCD100F00EF8214802900020019003205D
:1071C000009010232348026845216920FCF7EAFF5C
:1071D000CCE7F0B583B058234D221D210120C043D8
:1071E000FBF70FFE00273C2638003C21FBF7FEFA98
:1071F00080B28100081800010025A02401900199A7
:1072000000912800A021FBF7F1FA80B2009908183C
:1072100008490818007981084901C0080843C0B22C
:10722000FBF74BFC5035641EE9D13C37761EDBD1B1
:1072300003B0F0BDDCE4FF1F67FBFF1FFFFF000092
:10724000C4120000B8FDFF1F10E4FF1FC486000039
:10725000CC5B000070FBFF1F78B40300684600BFE2
:1072600015A425880580002A24D001246D460878BD
:10727000491CC609AE5D1E7086092640AE5D5E7073
:1072800046092640AE5D9E7006092640AE5DDE7062
:10729000C6082640AE5D1E7186082640AE5D5E7152
:1072A00046082640AE5D9E712040285CD8710833A8
:1072B000521EDCD171BC7047FF00000036480168E7
:1072C0000022D2430260480600D4704780B5FEF722
:1072D00048FF01BD80B5FEF774FF01BD38B52F48EA
:1072E0000178491C01702E4A0023D35E012B01DB7B
:1072F0005B1E13802B4A0023D356012B01DB5B1E40
:107300001370294A0023D356012B01DB5B1E137037
:10731000264A0023D35E012B01DB5B1E1380244A27
:107320001378002B09D0234B1C88002C03D0641E3B
:107330001C80240401D1002313701F4A1F4B1C78AA
:107340001578254309D01E4C25786D1C2570EDB2AB
:10735000C92D02DB00241C701470C9B20F2904D19E
